:100000000C941D020C9445020C9445020C9445027C
:100010000C9445020C9445020C9445020C94450244
:100020000C9445020C9447020C9445020C94450232
:100030000C9445020C9445020C9445020C94450224
:100040000C94D1070C9445020C948A050C94D105AC
:100050000C9445020C9445020C9445020C94450204
:100060000C9445020C9445020000004B000004BFB4
:1000700000004BFF0004BFFF004BFFFF04BFFFFF6A
:100080004BFFFFFFBFFFFFFDFFFD7100FFD710001B
:10009000FDF10000DA1000007100000110000017EF
:1000A0000000017E000017EF06EFFFFF6EFFFFFF6D
:1000B000EFFFFFFAFFFFFFA3FFFFFA30FFFAA300F5
:1000C000FFFA3000FFA30000000000000000000065
:1000D0000000000000000000000000000000000020
:1000E00000000000000000000FFFFFFF0FFFFFFFF8
:1000F0000FFFFFFF0FFFFFFF0FFFFFFF0FFFFFFFD0
:100100000FFFFFFF0FFFFFFF0000000000000000D7
:1001100000000000000000000000000000000000DF
:100120000000000000000000FFFD7100FFFD7100F5
:10013000FFFD7100FFFD7100FFFD7100FFFD71000B
:10014000FFFD7100FFFD71000000000000000000D5
:10015000000000000000000000000000000000009F
:10016000000000000000000000000000000000008F
:10017000000000000000000000000000000000007F
:100180000000000000000000FFFFFF4BFFFFF4BF76
:1001900000004BFF0004BFFF004BFFFF04BFFFFF49
:1001A0004BFFFFFFBFFFFFFDFFFD7100FFD71000FA
:1001B000FDF10000DA1000007100000110000017CE
:1001C0000000017E000017EF06EFFFFF6EFFFFFF4C
:1001D000EFFFFFFAFFFFFFA3FFFFFA30FFFAA300D4
:1001E000FFFA3000FFA30000FFFFFF4BFFFFF4BF4B
:1001F00000004BFF0004BFFF004BFFFF04BFFFFFE9
:100200004BFFFFFFBFFFFFFDFFFD7100FFD7100099
:10021000FDF10000DA10000071000001100000176D
:100220000000017E000017EF06EFFFFF6EFFFFFFEB
:10023000EFFFFFFAFFFFFFA3FFFFFA30FFFAA30073
:10024000FFFA3000FFA300000044447C444428101F
:10025000003C44443C44443C0038440404044438D6
:10026000001C24444444241C007C04043C04047CFE
:10027000000404043C04047C0078444474044438BE
:10028000004444447C44444400381010101010389A
:100290000018242020202070004424140C1424442E
:1002A000007C0404040404040044444454546C4496
:1002B00000444464544C4444003844444444443866
:1002C000000404043C44443C00582454444444384E
:1002D000004424143C44443C003C4040380404782E
:1002E000001010101010107C003844444444444462
:1002F0000010284444444444002854545444444482
:100300000044442810284444001010102844444459
:10031000007C04081020407C0078447840380000BD
:10032000003C44444C3404040038440404380000C5
:1003300000784444645840400038047C443800004D
:10034000000808081C084830384078444478000009
:10035000004444444C3404040038101010180010B9
:1003600018242020203000200024140C142404041D
:10037000003810101010101800444454542C000081
:10038000004444444C3400000038444444380000E5
:1003900004043C44443C000040405864645800005D
:1003A000000404044C340000003C403804380000D1
:1003B00000304808081C0808005864444444000001
:1003C00000102844444400000028545444440000D1
:1003D0000044281028440000384078444444000079
:1003E000007C0810207C00000038444C54644438E1
:1003F0000038101010101810007C081020404438ED
:10040000003844402010207C0020207C242830200C
:1004100000384440403C047C003844443C040830EC
:10042000000808081020407C003844443844443810
:100430000018204078444438480711241FBECFEFED
:10044000D8E0DEBFCDBF11E0A0E0B1E0E2E6F1E12F
:1004500002C005900D92A23EB107D9F712E0A2EEBC
:10046000B1E001C01D92AD39B107E1F714E0CAE374
:10047000D4E004C02297FE010E94AB08C833D10724
:10048000C9F70E9498070C94AF080C9400001F92C3
:100490000F920FB60F9211242F933F934F935F93B8
:1004A0006F937F938F939F93AF93BF93EF93FF933C
:1004B0000E94B004FF91EF91BF91AF919F918F91F6
:1004C0007F916F915F914F913F912F910F900FBE50
:1004D0000F901F9018951F938091C101882381F080
:1004E00085E792E00E94A006181619064CF485E7ED
:1004F00092E00E94D1068235910511F41092C1015B
:100500008091C101882309F050C085E792E00E94E4
:10051000A00604970CF449C085E792E00E94D1063A
:100520008093E30185E792E00E94D1068093E40185
:1005300085E792E00E94D1068093E50185E792E08D
:100540000E94D1068093E60182EE91E00E94E402CF
:100550009091C0018823D1F010E6919FC001112431
:1005600080509F4F62EE71E00E94ED028091C001C9
:10057000819FC001112480509F4F0E94820580916D
:10058000C00191E089278093C0010CC081E09827C9
:1005900080E6989FC001112480509F4F62EE71E069
:1005A0000E94ED0281E08093C1011F91089580E0D7
:1005B00091E00E94540585E792E040E855E260E052
:1005C00070E00E941A060895FC01818181508330F9
:1005D00010F080E0089581E008952F923F924F92AD
:1005E0005F926F927F928F929F92AF92BF92CF92C3
:1005F000DF92EF92FF920F931F93DF93CF9300D080
:1006000000D0CDB7DEB72C01FB018281B82EB294A9
:10061000AFE0BA227FE0672E68228381182F1295FF
:100620001F706FE0A62EA82274808181823009F4A9
:1006300088C0833020F4813009F03CC11DC0833074
:1006400021F0843009F036C104C050E020E030E0F1
:10065000F5C02B2D30E0D901B595A795872D90E0F9
:10066000880F991F880F991FA82BB92B50E060E0C5
:1006700070E02170307003C18B2C9924B694BA823B
:10068000AA24BB2421E08222992451C0143010F402
:10069000212F02C0212F2450872D6981462D0E94D1
:1006A0007104082F81149104C1F0133018F4212F24
:1006B0002F5F02C0212F2350872D6981462D0E9474
:1006C0007104EB81FC81EC29FD29E40DF51D829577
:1006D0008F700295007F082B06C0EB81FC81EC290E
:1006E000FD29E40DF51D00838B819C8101969C837F
:1006F0008B831F5F049751F60894E11CF11C98E06E
:10070000E916F10461F06E2C6701CC0CDD1CCC0CF9
:10071000DD1CC228D3281A811C821B82B7CF089403
:10072000A11CB11CE3E0AE16B10409F4C3C0A98258
:10073000150115E0220C331C1A95E1F7EE24FF2475
:10074000E2CF872D0E949E04782EFFEF8F1709F4C9
:10075000B1C000E0CC24DD24EB2CFF2488EF9FEF18
:10076000E80EF91E08C0013011F01A2D01C0162D37
:100770000894C11CD11C312E3294B0EF3B224601AB
:10078000A5E0880C991CAA95E1F71C821B82872D95
:100790006B810E94900490E0E6E0EB1538F00B2CA2
:1007A00002C0880F991F0A94E2F706C00E2C02C0FF
:1007B000959587950A94E2F76B817C81660F771F88
:1007C000660F771F6829792940E050E0A82FB0E034
:1007D0009A01220F331FCD01022E02C0880F991FEC
:1007E0000A94E2F78823880F880B83212160FD019A
:1007F00002C0EE0FFF1F2A95E2F7E7FD812BFA01F9
:10080000E62BF72BE40DF51D80834F5F5F4F4430DF
:100810005105F1F68B819C8101969C838B8308970F
:1008200009F0B5CF0F5F033009F09DCF43C05130C1
:1008300011F01A2D01C0162D2F5F3F4F412F429509
:10084000407F412BB90195E0660F771F9A95E1F73C
:1008500080E090E0FC01E62BF72BE40DF51D4083D2
:10086000019680329105B1F75F5F533001F722C0E6
:10087000513011F01A2D01C0162D6F5F7F4FFB0113
:1008800085E0EE0FFF1F8A95E1F7EA2BFB2BE40DC5
:10089000F51D40812115310521F0942F907F912B7A
:1008A00005C04F70912F9295907F942B90835F5F3E
:1008B0005330F1F60F900F900F900F90CF91DF9182
:1008C0001F910F91FF90EF90DF90CF90BF90AF906E
:1008D0009F908F907F906F905F904F903F902F9060
:1008E0000895E42FF0E0EE0FFF1FEE0FFF1F30E042
:1008F000E22BF32B70E095E0660F771F9A95E1F7F6
:10090000E62BF72B65E00E94540880E6989FC00113
:100910001124E80FF91FE859FF4FE4918E2F089535
:10092000E82FF0E043E0EE0FFF1F4A95E1F7E60FF6
:10093000F11DE85BFD4FE4918E2F0895982F8154AF
:100940008A3168F080528A3110F4865E0895892FCA
:1009500080538A3010F08FEF0895892F8C5F0895AF
:10096000CF92DF92EF92FF920F931F93CF93DF937B
:100970000091EB01E02EFF24F701EE53FE4F808142
:100980008093B200C090E901D090EA011091EC018F
:10099000439A8BB187708BB985B1887F85B9133045
:1009A000B9F0143028F4113071F0123078F409C025
:1009B000153091F0153070F0163081F0173091F449
:1009C0000FC084E001C082E085B90CC081E0FCCF9B
:1009D00080E807C080E405C080E203C080E101C078
:1009E00088E08BB9429AC12FD0E0CC0FDD1FCC0F2D
:1009F000DD1F60E070E02AC0FA01EA2BFB2BEC0D52
:100A0000FD1D8081282F30E0C901E4E09595879590
:100A1000EA95E1F7E816F90614F4409A01C0409807
:100A20004198419A2F703070E216F30614F4409A00
:100A300001C040984198419A4F5F5F4F4430510543
:100A4000D9F66F5F7F4F6330710559F0DB0185E0A8
:100A5000AA0FBB1F8A95E1F7AC2BBD2B40E050E0FD
:100A6000CBCF42984398812F8F5F8093EC018830E1
:100A700090F01092EC01802F8F5F8093EB0180311A
:100A800050F01092EB018091E7019091E801909372
:100A9000EA018093E901DF91CF911F910F91FF90BF
:100AA000EF90DF90CF900895F8942FEF2AB927B9EF
:100AB00024B91BB815B89093E8018093E70190938F
:100AC000EA018093E901E0EBF0E0808183608083BC
:100AD000E1EBF0E080818460808380818C7F808383
:100AE00080818C7F8083E6EBF0E080818083E0E78B
:100AF000F0E08081816080838091C2018093B200A8
:100B000078940895F8949093E8018093E70178949D
:100B1000089508951F920F920FB60F9211242F93EC
:100B20003F934F938F939F93EF93FF934091C60012
:100B300020912D0230912E022F5F3F4F2F73307086
:100B400080912F02909130022817390759F0E091D7
:100B50002D02F0912E02E351FE4F408330932E027E
:100B600020932D02FF91EF919F918F914F913F9193
:100B70002F910F900FBE0F901F901895E09181025A
:100B8000F0918202E05CFF4F81919191208131814F
:100B9000821B930B8F739070892B11F00E94890533
:100BA00008951F920F920FB60F9211242F933F9327
:100BB0004F935F936F937F938F939F93AF93BF9365
:100BC000EF93FF9320917102309172028091730232
:100BD000909174022817390731F48091C1008F7DFC
:100BE0008093C10016C0E0917302F0917402EF5C33
:100BF000FD4F40818091730290917402019660E4F0
:100C000070E00E9460089093740280937302409396
:100C1000C600FF91EF91BF91AF919F918F917F910E
:100C20006F915F914F913F912F910F900FBE0F9059
:100C30001F901895AF92BF92DF92EF92FF920F93A1
:100C40001F93CF93DF93EC017A018B01DD244030B9
:100C500081EE580780E0680780E0780711F0DD2416
:100C6000D39491E0A92EB12CEC89FD89DD2069F0A7
:100C7000C5010E8C02C0880F991F0A94E2F7808389
:100C800060E079E08DE390E005C0108260E874E8F0
:100C90008EE190E0A80197010E9473082150304036
:100CA00040405040569547953795279580E1203034
:100CB000380720F0DD2011F0DD24D6CFE889F9894E
:100CC0003083EA89FB892083EE89FF89408121E016
:100CD00030E0C9010A8C02C0880F991F0A94E2F71C
:100CE000482B4083EE89FF894081C9010B8C02C0EB
:100CF000880F991F0A94E2F7482B4083EE89FF89F9
:100D00004081C9010C8C02C0880F991F0A94E2F738
:100D1000482B4083EE89FF8980810D8C02C0220F11
:100D2000331F0A94E2F7209528232083DF91CF9187
:100D30001F910F91FF90EF90DF90BF90AF900895BB
:100D4000DC011C96ED91FC911D97E05CFF4F219119
:100D5000319180819181281B390B2F733070C9012B
:100D60000895DC011C96ED91FC911D97E05CFF4F0E
:100D700020813181E054F040DF01AE5BBF4F8D91A7
:100D80009C9111972817390719F42FEF3FEF07C0EF
:100D90008D919C91E80FF91F8081282F30E0C901C7
:100DA0000895DC011C96ED91FC911D97E05CFF4FCE
:100DB00020813181E054F040DF01AE5BBF4F8D9167
:100DC0009C9111972817390719F42FEF3FEF10C0A6
:100DD0008D919C911197E80FF91F20818D919C9125
:100DE000119701968F73907011969C938E9330E0BB
:100DF000C9010895FC0186859785DC01A05CBF4F81
:100E0000FC01EE5BFF4F2D913C9111978081918108
:100E100028173907C1F70895CF93DF93EC01462FC8
:100E2000EE85FF85E05CFF4F80819181E054F040CA
:100E3000019660E470E00E9460089C01DF01AE5BF7
:100E4000BF4F8D919C91119728173907D1F3E05C22
:100E5000FF4F80819181E054F040E80FF91F4083FB
:100E6000EE85FF85E05CFF4F31832083EE89FF89AB
:100E7000208181E090E00D8C02C0880F991F0A94B8
:100E8000E2F7282B208381E090E0DF91CF91089555
:100E9000109278021092770288EE93E0A0E0B0E022
:100EA0008093790290937A02A0937B02B0937C02A4
:100EB00086ED91E090937602809375028DEE91E03D
:100EC000909382028093810281E392E09093840266
:100ED0008093830285EC90E0909386028093850254
:100EE00084EC90E0909388028093870280EC90E0FD
:100EF00090938A028093890281EC90E090938C0217
:100F000080938B0286EC90E090938E0280938D020A
:100F100084E080938F0283E08093900287E0809347
:100F2000910285E08093920281E08093930208957C
:100F3000CF93DF930E9419080E94D702CEEBD5E031
:100F40000E946B022097E1F30E94BE05F9CFCF9279
:100F5000DF92EF92FF920F931F93CF93DF937C0169
:100F60006B018A01C0E0D0E00FC0D6016D916D0128
:100F7000D701ED91FC910190F081E02DC701099519
:100F8000C80FD91F015010400115110571F7CE018E
:100F9000DF91CF911F910F91FF90EF90DF90CF9055
:100FA00008951F920F920FB60F9211242F933F9323
:100FB0008F939F93AF93BF938091980290919902E2
:100FC000A0919A02B0919B0230919C020196A11DC2
:100FD000B11D232F2D5F2D3720F02D570196A11D18
:100FE000B11D20939C028093980290939902A09344
:100FF0009A02B0939B028091940290919502A091E5
:101000009602B09197020196A11DB11D80939402A2
:1010100090939502A0939602B0939702BF91AF91DF
:101020009F918F913F912F910F900FBE0F901F9026
:101030001895789484B5826084BD84B5816084BD40
:1010400085B5826085BD85B5816085BDEEE6F0E041
:10105000808181608083E1E8F0E01082808182609D
:101060008083808181608083E0E8F0E0808181601E
:101070008083E1EBF0E0808184608083E0EBF0E04E
:10108000808181608083EAE7F0E0808184608083F2
:10109000808182608083808181608083808180689C
:1010A00080831092C1000895991B79E004C0991FB4
:1010B000961708F0961B881F7A95C9F780950895B2
:1010C00097FB092E07260AD077FD04D02ED006D034
:1010D00000201AF4709561957F4F0895F6F790956A
:1010E00081959F4F0895A1E21A2EAA1BBB1BFD01FB
:1010F0000DC0AA1FBB1FEE1FFF1FA217B307E407F7
:10110000F50720F0A21BB30BE40BF50B661F771F4E
:10111000881F991F1A9469F760957095809590952E
:101120009B01AC01BD01CF010895AA1BBB1B51E17E
:1011300007C0AA1FBB1FA617B70710F0A61BB70B47
:10114000881F991F5A95A9F780959095BC01CD01EC
:101150000895EE0FFF1F0590F491E02D0994F89487
:02116000FFCFBF
:101162000000004B000004BF00004BFF0004BFFF63
:10117200004BFFFF04BFFFFF4BFFFFFFBFFFFFFD61
:10118200FFFD7100FFD71000FDF10000DA10000032
:1011920071000001100000170000017E000017EF2F
:1011A20006EFFFFF6EFFFFFFEFFFFFFAFFFFFFA358
:1011B200FFFFFA30FFFAA300FFFA3000FFA300009E
:1011C2000000004B000004BF00004BFF0004BFFF03
:1011D200004BFFFF04BFFFFF4BFFFFFFBFFFFFFD01
:1011E200FFFD7100FFD71000FDF10000DA100000D2
:1011F20071000001100000170000017E000017EFCF
:1012020006EFFFFF6EFFFFFFEFFFFFFAFFFFFFA3F7
:10121200FFFFFA30FFFAA300FFFA3000FFA300003D
:101222000101E7E7E7E7E7E7E7E7E7E7E7E7E7E718
:10123200E7E7000000000C07A707A006D106B106E9
:02124200FA06AA
:00000001FF
