:100000000C9435000C945D000C945D000C945D0024
:100010000C945D000C945D000C945D000C945D00EC
:100020000C945D000C945F000C945D000C945D00DA
:100030000C945D000C945D000C945D000C945D00CC
:100040000C94EE030C945D000C94A7010C94EE014B
:100050000C945D000C945D000C945D000C945D00AC
:100060000C945D000C945D00650311241FBECFEF5E
:10007000D8E0DEBFCDBF11E0A0E0B1E0E4E8F9E0F8
:1000800002C005900D92A23EB107D9F712E0A2EE90
:10009000B1E001C01D92A939B107E1F710E0CAE64D
:1000A000D0E004C02297FE010E94BC04C836D107EC
:1000B000C9F70E94B5030C94C0040C9400001F9271
:1000C0000F920FB60F9211242F933F934F935F938C
:1000D0006F937F938F939F93AF93BF93EF93FF9310
:1000E0000E94CD00FF91EF91BF91AF919F918F91B1
:1000F0007F916F915F914F913F912F910F900FBE24
:100100000F901F901895FF920F931F9381E792E035
:100110000E94BD02181619067CF50091C00110E07E
:10012000F090E20181E792E00E94EE0220E630E0EA
:10013000029FF001039FF00D129FF00D1124EF0DAF
:10014000F11DE050FF4F80838F2D8F5F8093E20180
:10015000803690F08091C00120E6829FC00111247A
:1001600080509F4F0E949F018091C00191E089279C
:100170008093C0011092E2011F910F91FF900895AA
:1001800080E091E00E94710181E792E040E855E251
:1001900060E070E00E9437020895CF92DF92EF9204
:1001A000FF920F931F93CF93DF930091E701E02E0F
:1001B000FF24F701EF53FE4F80818093B200C0907F
:1001C000E501D090E6011091E801439A8BB1877068
:1001D0008BB985B1887F85B91330B9F0143028F414
:1001E000113071F0123078F409C0153091F01530EB
:1001F00070F0163081F0173091F40FC084E001C028
:1002000082E085B90CC081E0FCCF80E807C080E4C3
:1002100005C080E203C080E101C088E08BB9429A4A
:10022000C12FD0E0CC0FDD1FCC0FDD1F60E070E0F0
:100230002AC0FA01EA2BFB2BEC0DFD1D8081282F33
:1002400030E0C901E4E095958795EA95E1F7E81675
:10025000F90614F4409A01C040984198419A2F70D1
:100260003070E216F30614F4409A01C040984198A9
:10027000419A4F5F5F4F44305105D9F66F5F7F4F12
:100280006330710559F0DB0185E0AA0FBB1F8A9529
:10029000E1F7AC2BBD2B40E050E0CBCF4298439828
:1002A000812F8F5F8093E801883090F01092E801F1
:1002B000802F8F5F8093E701803150F01092E7012B
:1002C0008091E3019091E4019093E6018093E50130
:1002D000DF91CF911F910F91FF90EF90DF90CF9022
:1002E0000895F8942FEF2AB927B924B91BB815B887
:1002F0009093E4018093E3019093E6018093E501FC
:10030000E0EBF0E0808183608083E1EBF0E08081CE
:100310008460808380818C7F808380818C7F8083D8
:10032000E6EBF0E080818083E0E7F0E080818160AF
:1003300080838091C1018093B20078940895F894ED
:100340009093E4018093E3017894089508951F92B7
:100350000F920FB60F9211242F933F934F938F93C9
:100360009F93EF93FF934091C60020912902309113
:100370002A022F5F3F4F2F73307080912B02909194
:100380002C022817390759F0E0912902F0912A022E
:10039000E751FE4F408330932A0220932902FF91B8
:1003A000EF919F918F914F913F912F910F900FBEA1
:1003B0000F901F901895E0917D02F0917E02E05C15
:1003C000FF4F8191919120813181821B930B8F731B
:1003D0009070892B11F00E94A60108951F920F9230
:1003E0000FB60F9211242F933F934F935F936F9308
:1003F0007F938F939F93AF93BF93EF93FF9320913E
:100400006D0230916E0280916F02909170022817F8
:10041000390731F48091C1008F7D8093C10016C0EF
:10042000E0916F02F0917002E35DFD4F4081809199
:100430006F0290917002019660E470E00E94710476
:100440009093700280936F024093C600FF91EF91EA
:10045000BF91AF919F918F917F916F915F914F91DC
:100460003F912F910F900FBE0F901F901895AF9254
:10047000BF92DF92EF92FF920F931F93CF93DF9380
:10048000EC017A018B01DD24403081EE580780E0D9
:10049000680780E0780711F0DD24D39491E0A92E5D
:1004A000B12CEC89FD89DD2069F0C5010E8C02C0FC
:1004B000880F991F0A94E2F7808360E079E08DE36A
:1004C00090E005C0108260E874E88EE190E0A80139
:1004D00097010E948404215030404040504056957E
:1004E00047953795279580E12030380720F0DD20AB
:1004F00011F0DD24D6CFE889F9893083EA89FB89B8
:100500002083EE89FF89408121E030E0C9010A8C17
:1005100002C0880F991F0A94E2F7482B4083EE89A6
:10052000FF894081C9010B8C02C0880F991F0A9472
:10053000E2F7482B4083EE89FF894081C9010C8C8A
:1005400002C0880F991F0A94E2F7482B4083EE8976
:10055000FF8980810D8C02C0220F331F0A94E2F7BD
:10056000209528232083DF91CF911F910F91FF9039
:10057000EF90DF90BF90AF900895DC011C96ED9155
:10058000FC911D97E05CFF4F219131918081918119
:10059000281B390B2F733070C9010895DC011C969C
:1005A000ED91FC911D97E05CFF4F20813181E0547B
:1005B000F040DF01AE5BBF4F8D919C9111972817E2
:1005C000390719F42FEF3FEF07C08D919C91E80F89
:1005D000F91F8081282F30E0C9010895DC011C96A5
:1005E000ED91FC911D97E05CFF4F20813181E0543B
:1005F000F040DF01AE5BBF4F8D919C9111972817A2
:10060000390719F42FEF3FEF10C08D919C9111978E
:10061000E80FF91F20818D919C91119701968F739E
:10062000907011969C938E9330E0C9010895FC015F
:1006300086859785DC01A05CBF4FFC01EE5BFF4F18
:100640002D913C9111978081918128173907C1F72D
:100650000895CF93DF93EC01462FEE85FF85E05C94
:10066000FF4F80819181E054F040019660E470E09A
:100670000E9471049C01DF01AE5BBF4F8D919C9184
:10068000119728173907D1F3E05CFF4F80819181E2
:10069000E054F040E80FF91F4083EE85FF85E05CF1
:1006A000FF4F31832083EE89FF89208181E090E034
:1006B0000D8C02C0880F991F0A94E2F7282B208323
:1006C00081E090E0DF91CF91089510927402109232
:1006D000730288EE93E0A0E0B0E0809375029093FF
:1006E0007602A0937702B093780285ED91E0909323
:1006F00072028093710289EE91E090937E02809362
:100700007D028DE292E09093800280937F0285ECDF
:1007100090E0909382028093810284EC90E0909329
:1007200084028093830280EC90E090938602809311
:10073000850281EC90E0909388028093870286EC9A
:1007400090E090938A028093890284E080938B02E8
:1007500083E080938C0287E080938D0285E0809314
:100760008E0281E080938F020895CF93DF930E94E1
:1007700036040E94C000CBEDD1E00E948300209798
:10078000E1F30E94DB01F9CFCF92DF92EF92FF926B
:100790000F931F93CF93DF937C016B018A01C0E01D
:1007A000D0E00FC0D6016D916D01D701ED91FC91A4
:1007B0000190F081E02DC7010995C80FD91F0150A4
:1007C00010400115110571F7CE01DF91CF911F91F6
:1007D0000F91FF90EF90DF90CF9008951F920F92AE
:1007E0000FB60F9211242F933F938F939F93AF9344
:1007F000BF938091940290919502A0919602B0913E
:100800009702309198020196A11DB11D232F2D5FF3
:100810002D3720F02D570196A11DB11D2093980270
:100820008093940290939502A0939602B0939702BE
:100830008091900290919102A0919202B0919302C6
:100840000196A11DB11D8093900290939102A093F7
:100850009202B0939302BF91AF919F918F913F917C
:100860002F910F900FBE0F901F901895789484B51C
:10087000826084BD84B5816084BD85B5826085BD9C
:1008800085B5816085BDEEE6F0E080818160808382
:10089000E1E8F0E010828081826080838081816065
:1008A0008083E0E8F0E0808181608083E1EBF0E02C
:1008B000808184608083E0EBF0E0808181608083D0
:1008C000EAE7F0E0808184608083808182608083B9
:1008D0008081816080838081806880831092C100E4
:1008E000089597FB092E07260AD077FD04D02ED055
:1008F00006D000201AF4709561957F4F0895F6F7A1
:10090000909581959F4F0895A1E21A2EAA1BBB1BBB
:10091000FD010DC0AA1FBB1FEE1FFF1FA217B307CB
:10092000E407F50720F0A21BB30BE40BF50B661FE1
:10093000771F881F991F1A9469F7609570958095A5
:1009400090959B01AC01BD01CF010895AA1BBB1B73
:1009500051E107C0AA1FBB1FA617B70710F0A61BBF
:10096000B70B881F991F5A95A9F780959095BC01E0
:10097000CD010895EE0FFF1F0590F491E02D09942D
:04098000F894FFCF19
:100984000000004B000004BF00004BFF0004BFFF49
:10099400004BFFFF04BFFFFF4BFFFFFFBFFFFFFD47
:1009A400FFFD7100FFD71000FDF10000DA10000018
:1009B40071000001100000170000017E000017EF15
:1009C40006EFFFFF6EFFFFFFEFFFFFFAFFFFFFA33E
:1009D400FFFFFA30FFFAA300FFFA3000FFA3000084
:1009E4000000004B000004BF00004BFF0004BFFFE9
:1009F400004BFFFF04BFFFFF4BFFFFFFBFFFFFFDE7
:100A0400FFFD7100FFD71000FDF10000DA100000B7
:100A140071000001100000170000017E000017EFB4
:100A240006EFFFFF6EFFFFFFEFFFFFFAFFFFFFA3DD
:100A3400FFFFFA30FFFAA300FFFA3000FFA3000023
:100A440001E7E7E7E7E7E7E7E7E7E7E7E7E7E7E718
:100A5400E7000000002903C403BD02EE02CE021722
:020A640003008D
:00000001FF
