:100000000C94590C0C94810C0C94810C0C94810C64
:100010000C94810C0C94810C0C94810C0C94810C2C
:100020000C94810C0C94810C0C94810C0C94810C1C
:100030000C94810C0C94702E0C94810C0C94810CFB
:100040000C94B9310C94810C0C9455320C949C3264
:100050000C94810C0C94810C0C94810C0C94810CEC
:100060000C94810C0C94810C12121F122C12411250
:100070000C13631281128E12A312B41235133513AE
:100080003513351335133513C112CA12E112F212AA
:10009000FF120C131913221353147E14B114C41439
:1000A000DA144A15381541156A156D157015751550
:1000B00094159D15A615AF15B815C515D215E815DB
:1000C0007A158315FD1506164F144F144F144F144F
:1000D0004F144F144F144F144F144F144F144F1408
:1000E0004F144F144F144F144F144F144F144F14F8
:1000F0004F144F144F144F146D1676167F16881632
:1001000091169A16F7140F16AC1CB41CE31C001DB4
:10011000231D2B1D361D411D5E1D861DB31DA01CFC
:10012000271E791ECF1EFC1E011F0A1F0F1F141F42
:10013000191F1E1F221F391F341F2F1F2A1F702334
:100140003E1F5B1FDA1CCB1F9220AC20E5207221E2
:1001500084219021E421EA21F021162246227B22EB
:10016000B522F6223423DF23E6230E2427244B2452
:1001700052245B2464247D24A124C924D423322561
:100180007E25CE2544284428442844284428442851
:1001900044284428442844284428442844284428FF
:1001A000F72528266326DB26E726172767276F27EC
:1001B0007A27BE27C327C827EA2716280000000091
:1001C00000000000100800000000000014280000DB
:1001D00000000000180000000000000018241800B3
:1001E000000000002810000000000000241800009B
:1001F000000000000000000000000008003F5589DA
:1002000089553F000000120AFE0A12000000C600D5
:10021000102844000000CE201008060000102844DA
:10022000EE28380000022242FE4020000014207C0C
:1002300024242400001C24742424240000A0C0CA08
:10024000AC0C0A000004081020408000001C1010B4
:1002500010D0301000F84420102044F800FC48482A
:1002600048484800000C10101010106000001028C2
:1002700028447C0000788484CC48CC000000FC48F2
:10028000484848000038043C444438000000005806
:10029000B468000000E0C8A4144438000000102036
:1002A000100078000000107C107C1000000020106E
:1002B000200078000000345800345800000000008E
:1002C0000000000000101010100010000024240096
:1002D000000000000048FC4848FC4800107884609A
:1002E000188478200060A8D02C541800006090601A
:1002F00094887400001010000000000008102020F6
:100300002020100820100808080810200010543879
:1003100054100000000010107C10100000000000BD
:1003200000002040000000007C00000000000000F1
:1003300000003000000408102040800000384444D1
:100340004444380000083808080808000038440809
:1003500010207C0000384418044438000008182895
:10036000487C0800007C407804443800003840781D
:1003700044443800007C0810102020000038443825
:1003800044443800003844443C0438000000003045
:1003900000003000000000300000102000000810B5
:1003A000201008000000007C007C000000002010ED
:1003B0000810200000384408100010000078849CC9
:1003C000A49C807000304884FC84840000F884F889
:1003D0008484F800007884808084780000F8848425
:1003E0008484F80000FC80F88080FC0000FC80F829
:1003F00080808000007884809C847C00008484FC61
:10040000848484000038101010103800001C080884
:1004100008887000008890A0D088840000808080C8
:100420008080FC000084CCB4848484000084C4A454
:10043000948C8400007884848484780000F8848418
:10044000F8808000007884848494780400F88484A0
:10045000F8888400007884601884780000FE10100A
:1004600010101000008484848484780000444428A0
:100470002810100000828292AA44440000442810F0
:1004800028448200008244281010100000FC08104C
:100490002040FC00382020202020203800804020F0
:1004A0001008040038080808080808381028000058
:1004B0000000000000000000000000FE1008000026
:1004C0000000000000003C44444C340000405864EC
:1004D00044447800000038444044380000043C4460
:1004E000444C3400000038447C403C00000C107C3C
:1004F0001010100000003C444C3444380040586454
:10050000444444001000701010107C0004000404E7
:1005100004244438004044487048440000701010DF
:1005200010107C000000EC9292929200000058643F
:1005300044444400000038444444380000005864F7
:100540004444784000003C44444C340400002E30C5
:1005500020202000000038403804780000107C1073
:1005600010100C0000004444444C3400000044448B
:100570002828100000008292AA4444000000442869
:1005800010284400000044444C34443800007C08E7
:1005900010207C000C1010601010100C10101010A7
:1005A00010101010601010100C1010603458000063
:1005B00000000000FEFEFEFEFEFEFEFE0038E440EF
:1005C000E04438000000102844281000000000001B
:1005D00000000818000C107C1010106000000000D3
:1005E00000001236000000000000920000107C1095
:1005F0007C10101000107C107C107C101028000063
:10060000000000000060A8D02F551E0028107C803C
:100610007804F8000000001020100000003E484E52
:1006200048483E0000404060C0407C002810FC0864
:100630003040FC000000701010107C0000002854B6
:1006400038542800001810000000000000081800AE
:1006500000000000003624000000000000123600F8
:10066000000000000000003838000000000000001A
:100670003800000000000000FF00000034580000B7
:100680000000000000F45C54000000002810384016
:100690003804780000000010081000000000344A00
:1006A0004E4836000070101830107C0028107C086E
:1006B00010207C00280044281010100000000000CA
:1006C00000000000001000101010100000081C2096
:1006D000201C0800003040F04044780000443828D6
:1006E00038440000004428107C1010001010100046
:1006F0000010101000304030483008302400000056
:1007000000000000007884B4A4B48478003C444C19
:1007100034007C0000000024482400000000000099
:100720007C040000000000007C000000007884B41D
:10073000A4A484787C0000000000000000182418A5
:10074000000000000000107C10007C003010180039
:100750000000000018081800000000000810000049
:1007600000000000000088888888F480006CE86839
:1007700028282828000000003000000000000000A9
:100780000000001008080800000000000038444481
:1007900038007C0000000048244800000044485015
:1007A000284C84000044485038488C0000C448D08D
:1007B000284C84000010001020443800201000381D
:1007C000447C440008100038447C44001028003861
:1007D000447C440034580038447C4400480030488D
:1007E000788484003048304878848400007C909C71
:1007F000F0909C0000788480808478102010FC8029
:10080000F880FC001020FC80F880FC003048FC8060
:10081000F880FC004800FC80F880FC0020103810B4
:100820001010380008103810101038001028381038
:10083000101038002800381010103800007844E4F8
:100840004444780068B000C4A4948C001008003CB4
:1008500042423C000810003C42423C001824003C4C
:1008600042423C003458003C42423C0048007884FC
:1008700084847800000044281028440000788C9478
:10088000A4C4780020108484848478001020848498
:10089000848478003048008484847800480084840C
:1008A0008484780008104428101010000080F88418
:1008B00084F8800000384458444458001008003C34
:1008C000444C34000810003C444C34001824003CD4
:1008D000444C34003458003C444C340024003C4424
:1008E000444C340010283C44444C340000006C124A
:1008F0007E906E0000003844404438102010003CC8
:1009000048503C000810003C48503C001028003C77
:1009100048503C00240038447C403C0020100070CB
:1009200010107C000810007010107C00102800705F
:1009300010107C004800701010107C00003A143C2D
:1009400044443800345800586444440020100038AF
:100950004444380008100038444438001028003857
:10096000444438003458003844443800280038449F
:1009700044443800000010007C0010000000384C97
:100980005464380020100044444C340008100044E3
:10099000444C340010280044444C340028004444A3
:1009A000444C3400081044444C34443800407844EB
:1009B00044447840280044444C34443800008400C7
:1009C0006C0040006000A400AE0000046A602E20AD
:1009D000E4A0A4204AE0AE8068A06AA0ACA0248075
:1009E0006C40E4E0EAA064C04AE0A4E00EA0C66067
:1009F0000EE082602CE0E4E086E0C6C600004040E5
:100A0000AA00EAE064C4A4A0CEE044006860C2C0CA
:100A1000E4A04E4000240E00004024804A404440A0
:100A2000C460C6C0AE2064C04660E2406660662016
:100A3000404020242C20E0E08680C2404E604EA042
:100A4000CEC06860CAC0ECE0EC806A60AEA0E4E0B2
:100A5000E4C0ACA088E0EEA0CAA04A40EE804A60A4
:100A6000ECA064C0E440AA40AE40AEE0A4A0A44024
:100A7000C460E8E08420E2E04A0000E084000E6008
:100A80004660046026600CE06E40066C8CA040401E
:100A900040C08EA0C4E00EE00CA0066006640662B2
:100AA000064006C04E400A600A400AE006600A4856
:100AB0000C606C604440C6C0C600EEE06E604A4008
:100AC00000246E48006C00A04E444EE44A00A4E0AE
:100AD00064C024206C6088E0C4600440EAE06400E4
:100AE0002600FA005F00EEE00E000F00C600EA00EC
:100AF00006C042400EF0C4E00C60A44000000404B4
:100B0000446468E0A4A0AE4040406EC0A000FB9FDB
:100B1000E6005A500E200E00F9BFE00066004E4E6F
:100B2000C600EC0024000AE8EE6004000004440063
:100B30006600A5A0A4A0A4A0A4A004864EA04EA0D8
:100B40004EA04EA04EA04EA06CE06864ECE0ECE03D
:100B5000ECE0ECE0E4E0E4E0E4E0E4E0CAC0CAA0F9
:100B60004A404A404A404A404A40A4A06AC0AA407B
:100B7000AA40AA40AA40A4408E806A800E600E60FF
:100B80000E600E600E600E600E7004640CE00CE0EF
:100B90000CE00CE04040404040404040E6600CA08B
:100BA000066006600660066006604E4007E00A6068
:100BB0000A600A600A600A4846640A4800000800A1
:100BC00008000800100008001800080020000800B5
:100BD0002800080030000800380008004000080025
:100BE000480008005000080058000A0062000A008F
:100BF0006C000A0076000C0082000C008E001000D1
:100C00009E001000AE001000BE001000CE001000CC
:100C1000DE001000EE001000FE0010000E011400B7
:100C2000220118003A0120005A0124007E01070029
:100C300085010D0092011A00AC01250000000000A2
:100C4000FFFFFFFF00000000FFFFFFFF0000FFFFAE
:100C50000000FFFF00FF00FF00FF00FF0000FFFF9C
:100C60000000FFFF00FF00FF00FF00FFFFFBF2DDC1
:100C700002000000FFFBDDFF0000800000FFFF001E
:100C80000000FFFF00FFFFFF000080FFFFFFFF00ED
:100C9000000080FF00FFFFFF00000080FFFF0099C1
:100CA000FFFFFF00008080FF800000FFFFFFFF804C
:100CB000FFFF0099FFFFFF00000080FF80FFFFFFA4
:100CC000FF80000000000080FFFF00000000AAAAD3
:100CD000AAAA55555555FFFFFFFF00000000AAAA1C
:100CE000AAAA55555555FFFFFFFF00000000808060
:100CF00080AA55000000FFFFFFFF00000000FFCCAE
:100D0000CCCC55003300FFFFFFFF00800080008047
:100D100000C080FF00FF00FF00FFFFFBFFDDF24788
:100D200000021F005690C08040000099FFFFFF8026
:100D3000000000000080FFFF80FFFFFFFFFFFF803B
:100D400000000000004080C0FFFF0099FFFFFFFF90
:100D5000FF8000000000004080C0FFFF80FFFFFF19
:100D6000FF808080C0FFFFFFFF00000080FF8080C9
:100D7000800000004080FFFFFF808080C0FFFFFFF9
:100D8000FFFFFF8000000000004080C0FFFF808068
:100D9000800000004080008080800000004080993A
:100DA000FFFFFFFFFF8000000000004080C0FFFF4A
:100DB00080FFFFFF808080C0FFFFFFFF00FF998062
:100DC000FFFF80FF00FFFF00FFFFFF99FF0000FF14
:100DD000FF008080FFFFFFFFC0009900FFFF80FF42
:100DE000FF00FF99FFFFFF800080FFFF99FFFFFFDB
:100DF000808080C0FFFFFFFFFFFF80000000000039
:100E00004080C0FFFF80808000000040800000FF25
:100E1000FF0000FFFF00FF00FF00FF00FF000000D9
:100E200000FFFFFFFF00000000FFFFFFFF00FF00CB
:100E3000FF00FF00FF0000FFFF0000FFFFFFF308BF
:100E400009AB800000FFF30964009F00000000FF71
:100E5000FFFF0000FF000080FFFF0000FF0080FF99
:100E6000FFFF000000000080FFFFFF000000FF0008
:100E7000660080FFFF000080FF80FF00FF00008011
:100E80000040FF00660080FFFFFF00000080FF00C1
:100E900080FFFFFFFFFF80000000000000AAAA0003
:100EA0000055AA5555FFFF5555FFFF0000AAAA009F
:100EB00000AAAA5555FFFF5555FFFF00008080008E
:100EC0000080AA5500FFFF0000FFFF0000CCCC000F
:100ED0000099CC5566FFCC0066FFFF0000808000C3
:100EE0000080C08000FFFF0000FFFFFFF3640908DF
:100EF0000000ABB7642C71C080400000660080FF2A
:100F0000FFFFFFFF800000000080FF004080C0FF67
:100F1000FFFFFFFF8000000000000000660040802F
:100F2000C0FFFFFFFFFF8000000000000080FF8087
:100F3000C0FFFFFF8080800080FFFFFF00000000F7
:100F40004080808000000080C0FFFFFF8080800024
:100F50004080C0FFFFFFFFFF800000000000000096
:100F60004080808000000000004080808000000001
:100F700066004080C0FFFFFFFFFF80000000000010
:100F8000008080C0FFFFFF808080FF800000FF6640
:100F900000FF0000FFFF00C00080FFFF6600FFFFB2
:100FA00000FF00FF0080FFFF0000006600FF0080E0
:100FB00000EE008066FFC0FF800080FFEE6680C00C
:100FC000FFFFFF808080004080C0FFFFFFFFFF80A9
:100FD000000000000000004080808000000000FF52
:100FE00000FF00FF00FF0000FFFF0000FFFF00FF09
:100FF00000FF00FF00FF0000FFFF0000FFFF0000F8
:101000000000FFFFFFFF00000000FFFFFFFFFF05E4
:101010008407EA12D300FF050703D300FF00000096
:101020000000FFFFFFFF0000000000FFFFFF0000C7
:101030000000FFFFFFFF0000000000FFFFFFFFFFB9
:10104000003300000000FFFF80FF8000FF000080F1
:1010500000FF00FF003300000000FFFFFFFF80FFE4
:10106000000000000080FFFFFFFFFF8000AA00AA31
:1010700000AA00AA55FF55FF55FF55FF00AA00AA78
:1010800000AA00AA55FF55FF55FF55FF00800080BC
:10109000008000AA55FF00FF00FF00FF00FF00CC0A
:1010A00000FF00CC55FF33FF99FF33FF0000000025
:1010B000808080C080000000FFFFFFFFFF05030766
:1010C00084A5D3EA1412053AC08040000033000022
:1010D00000000080FFFFFFFFFF8080FF0000000096
:1010E00000000080FFFFFFFFFFFFFF8000330000D4
:1010F000000000000080FFFFFFFFFFFFFF8080FF78
:1011000080808080FFFFFFFF00000000FFFFFFFFE7
:10111000000000008080808080808080FFFFFFFFD3
:101120000000000000000080FFFFFFFFFFFFFF80C6
:10113000000000008080808000000000008080802F
:1011400080330000000000000080FFFFFFFFFFFF72
:10115000FF808080808080FFFFFFFFFF0000FFFF97
:1011600033FF0000FF80008080FF00FF003300009D
:10117000008080FF00FF00FFFF00FF0033FF00FF43
:101180008000CC000033FF8000800080FFCC3380E3
:10119000808080FFFFFFFF0000000000000080FF54
:1011A000FFFFFFFFFFFF800000000080808080FFC6
:1011B000FFFFDD77110000FFFFDD7711000000FF6A
:1011C000DDFF1100000000DDAA1100000000007723
:1011D0001100000000001111000000000011770054
:1011E000000000001177EE000000001177EEFF0014
:1011F000000000000044BB000000000044BBFF00F2
:1012000000000044BBFFFF00000044BBFFFFFF00E5
:101210000044BBFFFFFFFF0044BBFFFFFFFFFF4495
:10122000BBFFFFFFFFFFFFBBFFFFFFFFFFFFDD0077
:1012300066EEFFFFFFFFFF66EEFFFFFFFFFFFFEE23
:10124000FFFFFFFFFFFFAAFFFFFFFFFFFFAA33FF24
:10125000FFFFFFFFAA3300FFFFFFAAAA330000FF32
:10126000FFFFAA33000000FFFFAA330000000000C8
:10127000FFFFFFFFFFFFFF00FFFFFFFFFFFFFF007C
:10128000FFFFFFFFFFFFFF00FFFFFFFFFFFFFF006C
:10129000FFFFFFFFFFFFFF00FFFFFFFFFFFFFF005C
:1012A000FFFFFFFFFFFFFF00FFFFFFFFFFFFFF004C
:1012B000000000000000000000000000000000002E
:1012C000000000000000000000000000000000001E
:1012D000000000000000000000000000000000000E
:1012E00000000000000000000000000000000000FE
:1012F00000000000000000000000000000000000EE
:1013000000000000000000000000000000000000DD
:1013100000000000000000000000000000000000CD
:1013200000000000000000000000000000000000BD
:1013300000000000000000000000000000000000AD
:10134000000000000000000000000000000000009D
:10135000000000000000000000000000000000008D
:10136000000000000000000000000000000000FF7E
:10137000FFFFDD77110000FFFFFFDD77110000FFA9
:10138000FFFFDD77110000FFFFFFDD77110000FF99
:10139000FFFFDD77110000FFFFFFDD77110000FF89
:1013A000FFFFDD77110000FFFFFFDD771100000078
:1013B000000000000000000000000000000000002D
:1013C000000000000000000000000000000000001D
:1013D000000000000000000000000000000000000D
:1013E000000000000000000000000000000000FFFE
:1013F000FFFFDD77110000FFFFDD7711000000FF28
:10140000DDFF1100000000DDAA11000000000077E0
:101410001100000000001111000000000011770011
:10142000000000001177EE000000001177EEFFFFD2
:10143000FFFFFFFFFF44BBFFFFFFFFFF44BBFF00B9
:1014400000000044BBFFFF00000044BBFFFFFF00A3
:101450000044BBFFFFFFFF0044BBFFFFFFFFFF4453
:10146000BBFFFFFFFFFFFFBBFFFFFFFFFFFFDD0035
:1014700066EEFFFFFFFFFF66EEFFFFFFFFFFFFEEE1
:10148000FFFFFFFFFFFFAAFFFFFFFFFFFFAA33FFE2
:10149000FFFFFFFFAA3300FFFFFFAAAA330000FFF0
:1014A000FFFFAA33000000FFFFAA3300000000FF87
:1014B000FFFFDD77110000FFFFDD7711000000FF67
:1014C000DDFF1100000000DDAA1100000000007720
:1014D0001100000000001111000000000011770051
:1014E000000000001177EE000000001177EEFFFF12
:1014F000FFFFFFFFFF44BBFFFFFFFFFF44BBFF00F9
:1015000000000044BBFFFF00000044BBFFFFFF00E2
:101510000044BBFFFFFFFF0044BBFFFFFFFFFF4492
:10152000BBFFFFFFFFFFFFBBFFFFFFFFFFFFDD0074
:1015300066EEFFFFFFFFFF66EEFFFFFFFFFFFFEE20
:10154000FFFFFFFFFFFFAAFFFFFFFFFFFFAA33FF21
:10155000FFFFFFFFAA3300FFFFFFAAAA330000FF2F
:10156000FFFFAA33000000FFFFAA3300000000FFC6
:10157000FFFFFFFF800000FFFFFFFF80000000FF74
:10158000FFFF8000000000FFFF800000000000FF60
:10159000800000000000408000000000004080004B
:1015A000000000004080C0000000004080C0FF003C
:1015B0004080C0FFFFFFFF4080C0FFFFFFFFFF80B4
:1015C000C0FFFFFFFFFF80C0FFFFFFFFFF8000FFA6
:1015D000FFFFFFFF800000FFFFFFFF80000000FF14
:1015E000FFFF8000000000FFFF80000000000000FF
:1015F0000000000000008000000000000080FF00EC
:101600000000000080FFFF0000000080FFFFFF00DF
:10161000000080FFFFFFFF000080FFFFFFFFFF00D3
:1016200080FFFFFFFFFFFF80FFFFFFFFFFFFFFFFC8
:10163000EEDDCCBBAA9988776655443322110000B1
:10164000000000000000000000000000000000009A
:10165000000000000000000000000000000000FF8B
:10166000EEDDCCBBAA998877665544332211000081
:10167000000000000000000000000000000000FF6B
:10168000EEDDCCBBAA998877665544332211000061
:10169000000000000000000000000000000000FF4B
:1016A000EEDDCCBBAA998877665544332211000041
:1016B000000000000000000000000000000000002A
:1016C000000000000000000000000000000000FF1B
:1016D000EEDDCCBBAA99887766554433221100FF12
:1016E000EEDDCCBBAA998877665544332211000001
:1016F00000FFFFFFFF000000FFFF0000FFFF00FFF3
:10170000FF00000000FFFFFF000000000000FF00DE
:1017100000000000000000FFFFFF0000000000FFCD
:10172000FF000000000000FF00FF000000000000BC
:10173000000000000000000000FFFFFFFF000000AD
:10174000FFFF0000FFFF0000FF00000000FF00009F
:1017500000000000000000000000FFFF000000008B
:1017600000FF00FF000000000000FFFF000000007D
:101770000000000000000000000000000000000069
:101780000000FFFF0000000000FF0000FF0000005D
:10179000000000000000000000000000FFFF00004B
:1017A00000000000FFFFFF0000000000FFFF00003E
:1017B000000000010000000200000003000000041F
:1017C00000000005000000060000000700000008FF
:1017D000000000090000000A0000000B0000000CDF
:1017E0000000000D0000000E0000000F00000010BF
:1017F0000000001200000014000000160000001895
:101800000000001A0000001C0000001E0000002064
:101810000000002200000024000000260000002834
:101820000000002A0000002C0000002E0000003004
:1018300000000034000000380000003C00000040C0
:1018400000000044000000480000004C0000005070
:1018500000000054000000580000005C0000006020
:1018600000000064000000680000006C00000070D0
:101870000000007800000080000000880000009058
:1018800000000098000000A0000000A8000000B0C8
:10189000000000B8000000C0000000C8000000D038
:1018A000000000E0000000F0000000000100000067
:1018B000133411241FBECFEFD8E0DEBFCDBF14E03C
:1018C000A0E0B1E0E6E6FAE602C005900D92A03C89
:1018D000B107D9F718E0A0ECB4E001C01D92A03523
:1018E000B107E1F718E1C2EBD8E104C02297FE018D
:1018F0000E942D35C03BD107C9F70E9463340C9478
:1019000031350C9400000F938F73E4ECF4E0E80F92
:10191000F11D6083E05CFF4F4083E05CFF4F20835C
:10192000E05CFF4F00830F910895E4ECF5E0E80FD1
:10193000F11D608308950F931F93062F8823D1F024
:10194000F8940E9401326093C0047093C1048093A4
:10195000C2049093C30478942AE030E040E050E061
:101960000E94EE342093C0043093C1044093C2041B
:101970005093C3046091C0047091C1048091C2046B
:101980009091C3040F7310E00C531B4F00541F4F72
:10199000F801208130E040E050E00E94EE34B901CF
:1019A000CA0100541040F8012081620F711D811D91
:1019B000911D00541040F80120810054104030E087
:1019C00040E050E00E94EE349B01AC01F8018081C0
:1019D000280F311D411D511D30702C533A4FF90114
:1019E00080811F910F910895EF92FF920F931F93A3
:1019F0007B018C0120E931E040E050E00E9410358D
:101A00006115710581059105E9F0C801B70124E66A
:101A100030E040E050E00E9410356115710581050D
:101A2000910511F480E00FC080E023E030E040E059
:101A300050E0E222F32204231523E114F10401050E
:101A4000110509F481E01F910F91FF90EF90089527
:101A50002F923F924F925F926F927F928F929F92BE
:101A6000AF92BF92CF92DF92EF92FF920F931F93AC
:101A70006090F7067090F8068090F9069090FA064C
:101A80004AE7E42E41E0F42E012D112DE618F70867
:101A9000080919096091FB067091FC068091FD060A
:101AA0009091FE066C5F7F4F8F4F9F4F27E030E095
:101AB00040E050E00E941035E60EF71E081F191F87
:101AC000C801B70127E030E040E050E00E94103547
:101AD0005B016C0185E0A816B104C104D10454F483
:101AE00036E0232E312C412C512C2A0C3B1C4C1C53
:101AF0005D1C07C015012601089421083108410822
:101B00005108620C731C841C951CC401B30127E0AE
:101B100030E040E050E00E94103579018A01370141
:101B20004801609103077091040780910507909127
:101B300006076D5F7F4F8F4F9F4F620D731D841D92
:101B4000951D27E030E040E050E00E94103562161D
:101B500073068406950634F021E0622E712C812CE8
:101B6000912C59C01E141F04100611060CF453C00A
:101B70006091EB067091EC068091ED069091EE0677
:101B80006F54784F8F4F9F4F0E94F40C882339F485
:101B90009DE6E92E91E0F92E012D112D06C08EE66D
:101BA000E82E81E0F82E012D112D8AE791E0A0E0CA
:101BB000B0E0A80EB91ECA1EDB1EAE18BF08C00AD0
:101BC000D10AC601B50127E030E040E050E00E94B4
:101BD00010359B01AC0125303105410551053CF420
:101BE000CA01B9016A5F7F4F8F4F9F4F06C0CA017C
:101BF000B90161507040804090406E0D7F1D801F84
:101C0000911F27E030E040E050E00E941035C9010C
:101C1000DA013C014D01B301C4011F910F91FF9006
:101C2000EF90DF90CF90BF90AF909F908F907F907C
:101C30006F905F904F903F902F900895AF92BF921A
:101C4000CF92DF92EF92FF920F931F93A090F30633
:101C5000B090F406C090F506D090F6065AE2E52E54
:101C6000F12C012D112DEA18FB080C091D096091BA
:101C7000FB067091FC068091FD069091FE066C5F5C
:101C80007F4F8F4F9F4F27E030E040E050E00E94B1
:101C90001035E60EF71E081F191FC801B70127E00F
:101CA00030E040E050E00E9410359B01AC0125304F
:101CB0003105410551053CF4CA01B9016A5F7F4F06
:101CC0008F4F9F4F06C0CA01B901615070408040DC
:101CD00090406A0D7B1D8C1D9D1D27E030E040E08B
:101CE00050E00E941035CA01B9011F910F91FF9079
:101CF000EF90DF90CF90BF90AF9008956093CA06A9
:101D00007093CB068093CC069093CD061092C806B4
:101D10001092C90608956093C4067093C506809317
:101D2000C6069093C7061092C8061092C906089579
:101D3000AF92BF92CF92DF92EF92FF920F931F93D9
:101D4000F8940E9401325B016C017894E090DB060C
:101D5000F090DC060091DD061091DE06E114F1043E
:101D600001051105F9F01E141F04100611065CF49C
:101D7000A80197010E94EE34C901DA01A80EB91E2C
:101D8000CA1EDB1E0FC022273327A9012E193F09C7
:101D9000400B510B0E94EE34C901DA01A81AB90AAE
:101DA000CA0ADB0AB501C6011F910F91FF90EF909F
:101DB000DF90CF90BF90AF900895EF92FF920F9376
:101DC0001F93E82F8091CE06882309F44FC04E2F31
:101DD000592FCB01DA012091D3063091D4064091DE
:101DE000D5065091D60604C08050944AA94DBA4FEA
:101DF000B901FA012150304040405040B7FDF4CFC6
:101E00007C018D01CB01DF0108C020E034EA49EDFF
:101E10005AEFE20EF31E041F151F9C01AD0101963F
:101E2000A11DB11D60E0E6166CE5F60666E2060748
:101E300065E0160754F72093D3063093D4064093F9
:101E4000D5065093D606E092CF06F092D0060093C6
:101E5000D1061093D2060E94980E6093D706709315
:101E6000D8068093D9069093DA064DC04E2F592F8D
:101E7000CB01DA0120E030E040E050E004C08050C7
:101E8000944AA94DBA4FB901FA012150304040405F
:101E90005040B7FDF4CF7C018D01CB01DF0108C0BC
:101EA00020E034EA49ED5AEFE20EF31E041F151F3D
:101EB0009C01AD010196A11DB11D60E0E6166CE527
:101EC000F60666E2060765E0160754F72093D30688
:101ED0003093D4064093D5065093D606E092CF06B1
:101EE000F092D0060093D1061093D2060E94980E6D
:101EF0006093D7067093D8068093D9069093DA063C
:101F000081E08093CE061092C8061092C9061F91F8
:101F10000F91FF90EF900895EF92FF920F931F9310
:101F20008091CE06882309F460C00E94980E20910B
:101F3000D7063091D8064091D9065091DA0662173B
:101F400073078407950709F471C062177307840744
:101F5000950730F4E1E0EE2EF12C012D112D06C095
:101F60007B018C01E21AF30A040B150B6093D70670
:101F70007093D8068093D9069093DA062091CF0605
:101F80003091D0064091D1065091D2062E0D3F1DC2
:101F9000401F511F8091D3069091D406A091D50681
:101FA000B091D60604C020503C4546425540BC0185
:101FB000FD010196A11DB11D20301CE5310716E27F
:101FC000410715E051077CF76093D3067093D40660
:101FD000E093D506F093D6062093CF063093D00633
:101FE0004093D1065093D2061DC01092D306109292
:101FF000D4061092D5061092D6061092CF061092F3
:10200000D0061092D1061092D2060E94980E6093CC
:10201000D7067093D8068093D9069093DA0681E0AC
:102020008093CE061092C8061092C9061F910F9198
:10203000FF90EF900895882321F48091CE068823A5
:1020400011F40E948C0F6091CF067091D0068091A0
:10205000D1069091D2060895882321F48091CE066E
:10206000882311F40E948C0F6091D3067091D406DE
:102070008091D5069091D6060895EF92FF920F9326
:102080001F938091CE06882311F40E948C0FE0905C
:10209000CA06F090CB060091CC061091CD06809137
:1020A000CF069091D006A091D106B091D206E80E4D
:1020B000F91E0A1F1B1F8091C4069091C506A091AE
:1020C000C606B091C706E80EF91E0A1F1B1F8091B5
:1020D000D3069091D406A091D506B091D60608C03B
:1020E00020E03CE546E255E0E20EF31E041F151F1A
:1020F000BC01FD010197A109B10917FDF1CFCB0189
:10210000DF01A801970104C020503C4546425540DC
:10211000BC01FD010196A11DB11D20301CE5310758
:1021200016E2410715E051077CF76093E3067093D0
:10213000E406E093E506F093E6062093DF0630938D
:10214000E0064093E1065093E20681E08093C806E2
:102150001092C9061F910F91FF90EF9008954F9232
:102160005F926F927F929F92AF92BF92CF92DF92D7
:10217000EF92FF920F931F93962E882321F4809164
:10218000CE06882311F40E948C0F26E0921609F4E3
:10219000EBC0291528F132E0931609F483C03915F4
:1021A00038F09920D9F141E0941609F025C153C0C7
:1021B00054E0951609F4ACC0E090D306F090D40634
:1021C0000091D5061091D6066091CF067091D00689
:1021D0008091D1069091D206591508F4B6C089C0F5
:1021E0006CE2961609F4E4C0691560F08AE298166C
:1021F00009F4CCC0891508F4D2C097E0991609F00B
:10220000FBC0BBC0AEE29A1609F4E4C09A1608F40B
:10221000D8C0BFE29B1609F0EFC0E5C06091D306BD
:102220007091D4068091D5069091D60620E03CE5C9
:1022300046E255E00E949C345B016C018091CF0620
:102240009091D006A091D106B091D206A80EB91EE9
:10225000CA1EDB1E82C52091CF063091D006409168
:10226000D1065091D206CA01B901660F771F881FA7
:10227000991F620F731F841F951F22E330E040E017
:1022800050E00E94103559016A016091D3067091A7
:10229000D4068091D5069091D60620E03AE14FE42D
:1022A00050E020C06091CF067091D0068091D10699
:1022B0009091D206660F771F881F991F2DE730E097
:1022C00040E050E00E94103559016A016091D30648
:1022D0007091D4068091D5069091D60620E038E121
:1022E00045E150E00E949C34A60EB71EC81ED91EC0
:1022F00034C528EE33E040E050E00E94103559012B
:102300006A01C801B70120E831E541E050E0EACFB9
:102310006091CF067091D0068091D1069091D2063F
:1023200020E63AEE40E050E00E94103559016A0183
:102330006091D3067091D4068091D5069091D6060F
:1023400020EA35E040E050E0CDCF20E83EEE46E325
:1023500050E00E94103559016A01C801B70128E117
:1023600030E040E050E0BECFA090D306B090D4065D
:10237000C090D506D090D606F0C46091D306709177
:10238000D4068091D5069091D60664C16091CA06A4
:102390007091CB068091CC069091CD0638C16091AA
:1023A000CA067091CB068091CC069091CD0622C1D1
:1023B000A090CA06B090CB06C090CC06D090CD06B7
:1023C000CCC46091C4067091C5068091C6069091F8
:1023D000C7061DC16091C4067091C5068091C606EE
:1023E0009091C70607C1A090C406B090C506C090E2
:1023F000C606D090C706B1C48091C806882311F4E0
:102400000E943D10892D90E0FC01B097E831F10564
:1024100008F02BC1EC5CFF4FEE0FFF1F0590F4910D
:10242000E02D09946091DF067091E0068091E1064D
:102430009091E20620E03EE243E952E00FC1609154
:10244000DF067091E0068091E1069091E20620E0BF
:102450003EE243E952E063C36091DF067091E0061B
:102460008091E1069091E20620E83EEE46E350E0DE
:102470000E941035CA01B9012CE030E040E050E084
:10248000A1C36091DF067091E0068091E106909112
:10249000E20620E83EEE46E350E00E941035CA0115
:1024A000B9012CE030E040E050E00E941035AC0172
:1024B000CB01DA015C016D01A114B104C104D104A6
:1024C00009F446C44AC46091DF067091E006809129
:1024D000E1069091E20620E83EEE46E350E00E94DD
:1024E0001035C901DA015C016D01A114B104C10408
:1024F000D10409F032C4F8E1AF2EB12CC12CD12C9B
:102500002CC46091DF067091E0068091E106909105
:10251000E20620E63AEE40E050E00CC06091DF06B3
:102520007091E0068091E1069091E20628EE33E09A
:1025300040E050E00E941035CA01B9012CE330E0C0
:1025400040E050E03FC36091DF067091E00680916B
:10255000E1069091E20628EE33E040E050E00E9470
:1025600010359B01AC0120C06091DF067091E00640
:102570008091E1069091E20628EE33E040E050E0E1
:1025800021C3A090DF06B090E006C090E106D09095
:10259000E206E3C32091DF063091E0064091E106B8
:1025A0005091E206CA01B901660F771F881F991F73
:1025B000620F731F841F951F22E330E040E050E05C
:1025C0004DC06091DF067091E0068091E106909128
:1025D000E206660F771F881F991F2DE730E040E065
:1025E00050E03CC06091DF067091E0068091E1060A
:1025F0009091E20628EE33E040E050E02FC0609179
:10260000DF067091E0068091E1069091E20620E6F7
:102610003AEE40E050E022C06091DF067091E006A3
:102620008091E1069091E20620E83EEE46E350E01C
:1026300015C0A090E306B090E406C090E506D090E7
:10264000E6068BC36091E3067091E4068091E5068F
:102650009091E60627E030E040E050E00E9410351F
:10266000C901DA015C016D0178C38091C906882334
:1026700009F006C18091C806882311F40E943D101C
:102680002091E3063091E4064091E5065091E6067C
:1026900080E090E0A0E0B0E004C02F54354C4D4FF6
:1026A0005F4FBC01FD010197A109B10957FDF5CFAD
:1026B00059016A01CB01DF0108C02FE435EC4DEF71
:1026C0005FEFA20EB31EC41ED51E860175019C01CC
:1026D000AD010196A11DB11D61EBA6166AE3B60618
:1026E00062E0C60660E0D60644F72093E706309322
:1026F000E8064093E9065093EA06A092FB06B092E2
:10270000FC06C092FD06D092FE068DE691E0A0E0A8
:10271000B0E0AA24BB2465011CC0E81AF90A0A0B20
:102720001B0BC601B5016D54784F8F4F9F4F0E9410
:10273000F40C882329F48DE691E0A0E0B0E004C019
:102740008EE691E0A0E0B0E00894A11CB11CC11C91
:10275000D11CE816F9060A071B07FCF6A092EB0647
:10276000B092EC06C092ED06D092EE06809303077D
:1027700090930407A0930507B0930607E092F7062D
:10278000F092F8060093F9061093FA0682EB482EB1
:1027900087E0582E612C712C4A0C5B1C6C1C7D1C34
:1027A0008FE190E0A0E0B0E0AA24BB24650147C01F
:1027B000E81AF90A0A0B1B0B0894A11CB11CC11CD6
:1027C000D11C85E0A816B104C104D10421F196E022
:1027D000A916B104C104D1046CF4A1E0AA16B10495
:1027E000C104D104E9F0B3E0AB16B104C104D104D3
:1027F00069F411C028E0A216B104C104D10459F053
:102800003AE0A316B104C104D10429F08FE190E0AD
:10281000A0E0B0E014C08EE190E0A0E0B0E00FC016
:10282000C301B2010E94F40C882329F48CE190E0EA
:10283000A0E0B0E004C08DE190E0A0E0B0E0E816D8
:10284000F9060A071B070CF0B3CFA092EF06B0926F
:10285000F006C092F106D092F2068093FF069093A4
:102860000007A0930107B0930207E092F306F092ED
:10287000F4060093F5061093F60681E08093C906EE
:10288000892D90E0FC013897E833F10540F4E45BD2
:10289000FF4FEE0FFF1F0590F491E02D0994AA243D
:1028A000BB2465015AC2AA24BB246501E090EB0653
:1028B000F090EC060091ED061091EE0682EB97E0A9
:1028C000A0E0B0E0E80EF91E0A1F1B1F6091E706AA
:1028D0007091E8068091E9069091EA0620E931E0DE
:1028E00040E050E00E949C34E60EF71E081F191FBE
:1028F0001E141F041006110644F12FC2E090EB06CF
:10290000F090EC060091ED061091EE0622EB37E018
:1029100040E050E0E20EF31E041F151F6091E70631
:102920007091E8068091E9069091EA0620E931E08D
:1029300040E050E00E949C34E60EF71E081F191F6D
:102940001E141F041006110634F011E0A12EB12C44
:10295000C12CD12C02C2B2E0AB2EB12CC12CD12C97
:10296000FCC16091EB067091EC068091ED069091B0
:10297000EE066E54784F8F4F9F4F0E94F40CA82E96
:10298000BB24CC24DD24E9C16091EB067091EC06F8
:102990008091ED069091EE066E54784F8F4F9F4FC9
:1029A0000E94F40C90E001965C01CC24B7FCC0942A
:1029B000DC2CD3C1A090EB06B090EC06C090ED06E5
:1029C000D090EE0682EB97E0A0E0B0E0A80EB91E32
:1029D000CA1EDB1E6091E7067091E8068091E90649
:1029E0009091EA0620E931E040E050E07BCCA090F5
:1029F000EB06B090EC06C090ED06D090EE0622EB10
:102A000037E040E050E0A20EB31EC41ED51E609118
:102A1000E7067091E8068091E9069091EA0620E9C0
:102A200031E040E050E00E949C34A60EB71EC81E64
:102A3000D91E8091EF069091F006A091F106B09119
:102A4000F2060097A105B10509F097C10E94280D73
:102A50006B317105810591050CF47FC138C10E946D
:102A6000280D6A317105810591050CF076C16AC1A6
:102A7000A090EF06B090F006C090F106D090F2065C
:102A80006CC1A090EF06B090F006C090F106D09017
:102A9000F20658C1A090EF06B090F006C090F10683
:102AA000D090F2063BE0A316B104C104D10409F0B2
:102AB00054C16091DF067091E0068091E10690912B
:102AC000E20628EE33E040E050E00E94103520FDA1
:102AD0003FC143C10E94280D05C00E94280D07C0B8
:102AE0000E941E0E5B016C01F2C00E941E0E5B0173
:102AF0006C0133C16091F3067091F4068091F50684
:102B00009091F606A7CD6091F3067091F40680913E
:102B1000F5069091F60627E030E040E050E00E9494
:102B2000103559016A010EC1A090F306B090F40669
:102B3000C090F506D090F60610C1A090F306B090B4
:102B4000F406C090F506D090F606FCC0A090F706FB
:102B5000B090F806C090F906D090FA06FEC0A0909A
:102B6000F706B090F806C090F906D090FA06EAC0D1
:102B70006091FB067091FC068091FD069091FE0627
:102B80006C5F7F4F8F4F9F4F19C06091FB06709114
:102B9000FC068091FD069091FE066C5F7F4F8F4F83
:102BA0009F4F22C06091FB067091FC068091FD064C
:102BB0009091FE066D5F7F4F8F4F9F4F27E030E073
:102BC00040E050E00E941035AC01CB01DA014ACD63
:102BD0006091FB067091FC068091FD069091FE06C7
:102BE0006D5F7F4F8F4F9F4F27E030E040E050E018
:102BF0000E9410355B016C01A5C0A090FF06B0904B
:102C00000007C0900107D0900207A7C0A09003075B
:102C1000B0900407C0900507D09006079EC0AAE7B1
:102C2000EA2EA1E0FA2E012D112D8091F706909148
:102C3000F806A091F906B091FA06E81AF90A0A0B0B
:102C40001B0B6091FB067091FC068091FD06909134
:102C5000FE066C5F7F4F8F4F9F4F27E030E040E0D4
:102C600050E00E941035E60EF71E081F191FC8011C
:102C7000B70127E030E040E050E00E9410359B01B2
:102C8000AC0125303105410551052CF42A5F3F4F39
:102C90004F4F5F4F04C02150304040405040609142
:102CA00003077091040780910507909106076D5FF7
:102CB0007F4F8F4F9F4F620F731F841F951F27E019
:102CC00030E040E050E00E94103559016A0108945C
:102CD000A108B108C108D10840C0A090E706B09093
:102CE000E806C090E906D090EA0637C0A090E70653
:102CF000B090E806C090E906D090EA0623C0A09004
:102D0000EB06B090EC06C090ED06D090EE0625C024
:102D1000A090EB06B090EC06C090ED06D090EE06C9
:102D200011C0A090FB06B090FC06C090FD06D090AC
:102D3000FE0613C0A090FB06B090FC06C090FD06F6
:102D4000D090FE060894A11CB11CC11CD11C05C06A
:102D5000FCE0AF2EB12CC12CD12CB501C6011F91C6
:102D60000F91FF90EF90DF90CF90BF90AF909F902A
:102D70007F906F905F904F9008950B97A105B105DC
:102D800061F76DCE9B01AC018091CE06882399F04E
:102D90002093D3063093D4064093D5065093D6069D
:102DA0000E94980E6093D7067093D8068093D90638
:102DB0009093DA061DC02093D3063093D406409337
:102DC000D5065093D6061092CF061092D0061092D8
:102DD000D1061092D2060E94980E6093D706709387
:102DE000D8068093D9069093DA0681E08093CE06C8
:102DF0001092C8061092C9060895EF92FF920F93A1
:102E00001F9379018A01AC01CB01DA0108C020E0EF
:102E10003CE546E255E0E20EF31E041F151FBC011F
:102E2000FD010197A109B10917FDF1CFCB01DF0128
:102E300008C020E034EA49ED5AEFE20EF31E041F09
:102E4000151F9C01AD010196A11DB11D60E0E616A4
:102E50006CE5F60666E2060765E0160754F7209370
:102E6000D3063093D4064093D5065093D606E0920D
:102E7000CF06F092D0060093D1061093D2060E949E
:102E8000980E6093D7067093D8068093D9069093D6
:102E9000DA0681E08093CE061092C8061092C90629
:102EA0001F910F91FF90EF9008956F927F928F92F4
:102EB0009F92AF92BF92CF92DF92EF92FF920F93C9
:102EC0001F933701480179018A01AC01CB01DA0176
:102ED00008C020E03CE546E255E0E20EF31E041F88
:102EE000151FBC01FD010197A109B10917FDF1CF23
:102EF000CB01DF0108C020E034EA49ED5AEFE20ED1
:102F0000F31E041F151F9C01AD010196A11DB11DEB
:102F100060E0E6166CE5F60666E2060765E0160771
:102F200054F72093D3063093D4064093D50650939C
:102F3000D606E092CF06F092D0060093D106109309
:102F4000D2066092CA067092CB068092CC0690920E
:102F5000CD06A092C406B092C506C092C606D09215
:102F6000C7060E94980E6093D7067093D806809388
:102F7000D9069093DA0681E08093CE061092C806B7
:102F80001092C9061F910F91FF90EF90DF90CF90A4
:102F9000BF90AF909F908F907F906F9008956093B7
:102FA000DB067093DC068093DD069093DE060E94BC
:102FB000980E6093D7067093D8068093D9069093A5
:102FC000DA060895EF920F93DC016830C0F5660FC2
:102FD000660F660F30E0932F962BFD01E90FF11D70
:102FE00081818083892F8064FD01E80FF11D81813B
:102FF0008083892F8068FD01E80FF11D8181808326
:10300000906CFD01E90FF11D818180833F5F3730B6
:1030100011F7862F8760FD01E80FF11D4083862F91
:103020008764FD01E80FF11D2083862F8768FD016D
:10303000E80FF11D0083676CA60FB11DEC920F9194
:10304000EF900895EF920F93CF93DF93EC016830E8
:10305000F0F4862F880F880F880FAE01480F511D9E
:10306000982F90649E01290F311D982F9068DE01E2
:10307000A90FB11D806CFE01E80FF11DCE01EA0120
:103080004881E90128810C91E0800E94E217DF91DC
:10309000CF910F91EF900895EF920F93DC0168307C
:1030A000C8F5660F660F660F37E0932F962BFD016C
:1030B000E90FF11D829131968083892F8064FD0193
:1030C000E80FF11D829131968083892F8068FD0180
:1030D000E80FF11D829131968083906CFD01E90F1C
:1030E000F11D8291319680833150F9F6FD01E60F92
:1030F000F11D4083862F8064FD01E80FF11D2083C0
:10310000862F8068FD01E80FF11D0083606CA60F1B
:10311000B11DEC920F91EF900895EF920F931F93D2
:10312000CF93DF93EC01683028F5862F992787FD30
:10313000909523E0880F991F2A95E1F7282F2760A3
:10314000AE01420F511D282F27648E01020F111D61
:10315000282F2768DE01A20FB11D876CFE01E80F42
:10316000F11DCE01EA014881E80128810C91E0803F
:103170000E944C18DF91CF911F910F91EF9008950D
:10318000EF920F93DC01522F6830F0F520E030E031
:10319000C90173E0880F991F7A95E1F7962F982B54
:1031A000FD01E90FF11D80858083892F8064FD0179
:1031B000E80FF11D80858083892F8068FD01E80F6D
:1031C000F11D80858083906CFD01E90FF11D8085E4
:1031D00080832F5F3F4F27303105D1F6862F8863DC
:1031E000FD01E80FF11D4083862F8867FD01E80F80
:1031F000F11D5083862F886BFD01E80FF11D0083C0
:10320000686FA60FB11DEC920F91EF900895EF92A9
:103210000F93CF93DF93EC016830D8F4AC01460FE5
:10322000511D862F80649E01280F311D862F8068D6
:10323000DE01A80FB11D862F806CFE01E80FF11D85
:10324000CE01EA014881E90128810C91E0800E94C9
:10325000C018DF91CF910F91EF900895EF920F93E7
:10326000DC01522F683008F043C027E030E0C9018C
:10327000E3E0880F991FEA95E1F7962F982BFD015F
:10328000E90FF11D3897808138968083892F8064FB
:10329000FD01E80FF11D3897808138968083892FD2
:1032A0008068FD01E80FF11D389780813896808392
:1032B000906CFD01E90FF11D38978081389680836D
:1032C00021503040222399F6FD01E60FF11D408385
:1032D000862F8064FD01E80FF11D5083862F8068E2
:1032E000FD01E80FF11D0083606CA60FB11DEC928B
:1032F0000F91EF900895EF920F93CF93DF93EC012E
:103300006830E8F4862F8863AE01480F511D862F80
:1033100088679E01280F311D862F886BDE01A80F5C
:10332000B11D862F886FFE01E80FF11DCE01EA0165
:103330004881E90128810C91E0800E942E19DF91DB
:10334000CF910F91EF9008951F93AC01683008F072
:103350003FC0660F660F660F70E017E0272F262B21
:10336000972F9127962BDA01A20FB11D3C91FA01FC
:10337000E90FF11D80818C933083822F8064DA0104
:10338000A80FB11D3C91892F8064FA01E80FF11D4F
:1033900080818C933083822F8068DA01A80FB11D61
:1033A0003C91892F8068FA01E80FF11D80818C9390
:1033B0003083206CDA01A20FB11D2C91906CFA01C0
:1033C000E90FF11D80818C9320837F5F743031F68B
:1033D0001F9108950F931F93AC01162F683008F0CA
:1033E00049C060E070E007E0CB01F3E0880F991F6F
:1033F000FA95E1F7212F282B962F9027990F990FF7
:10340000990F912BDA01A20FB11D3C91FA01E90F3E
:10341000F11D80818C933083822F8064DA01A80FA4
:10342000B11D3C91892F8064FA01E80FF11D808164
:103430008C933083822F8068DA01A80FB11D3C91F4
:10344000892F8068FA01E80FF11D80818C93308309
:10345000206CDA01A20FB11D2C91906CFA01E90FDA
:10346000F11D80818C9320836F5F7F4F64307105E5
:1034700009F0BACF1F910F9108958F929F92AF924A
:10348000BF92CF92DF92EF92FF920F931F93CF9351
:10349000DF937C01862EC22EC0E0D0E0A42EBB2498
:1034A000A7FCB09432C0102F180D17701929F7011E
:1034B000E10FF11D10828C2D60E04D2D202F0E9418
:1034C000D028912F9064F701E90FF11D80838C2D96
:1034D00061E04D2D202F0E94D028912F9068F70198
:1034E000E90FF11D80838C2D62E04D2D202F0E946D
:1034F000D028106CF701E10FF11D80830F5F0830B9
:1035000091F62196C830D10561F0DC2ECE018A0DEE
:103510009B1D87709070982E990C990C990C00E067
:10352000C2CFDF91CF911F910F91FF90EF90DF906D
:10353000CF90BF90AF909F908F9008952F923F9221
:103540004F925F926F927F928F929F92AF92BF92B3
:10355000CF92DF92EF92FF920F931F93CF93DF935F
:103560006C01362E822E642E772467FC70945301F2
:10357000C0E0D0E0462E552447FC50949C2ECE014E
:10358000860D971D28E0A216B104D0F5282E220C36
:10359000220C220C720100E088E0E816F10450F5DC
:1035A000102F130D1229F601E10FF11D1082882D45
:1035B00060E0492D202F0E94D028912F9064F601C1
:1035C000E90FF11D8083882D61E0492D202F0E9495
:1035D000D028912F9068F601E90FF11D8083882D86
:1035E00062E0492D202F0E94D028106CF601E10FD7
:1035F000F11D80830F5F0894E11CF11C083061F617
:1036000021960894A11CB11CC830D10509F0B6CF91
:10361000DF91CF911F910F91FF90EF90DF90CF90AE
:10362000BF90AF909F908F907F906F905F904F90E2
:103630003F902F9008952F923F924F925F926F92FA
:103640007F928F929F92AF92BF92CF92DF92EF9232
:10365000FF920F931F93DF93CF9300D00F92CDB7BC
:10366000DEB75C01762E2983202E3E2C6C2CC42ED6
:10367000DD24C7FCD09476011B821A82862E992401
:1036800087FC9094A0E84A2E512C0A811B810C0DD6
:103690001D1D88E0E816F104D8F589816A810E9431
:1036A0005428A02FAA0FAA0FAA0FA40120E030E0EF
:1036B000682F70E04830510520F5F201022E02C05B
:1036C000F595E7950A94E2F7CF0186239723892B96
:1036D000C1F0872D820F8A2BF501E80FF11D1082B2
:1036E000982F9064F501E90FF11D2082982F9068C2
:1036F000F501E90FF11D3082806CF501E80FF11D35
:1037000060822F5F3F4F4F5F5F4F2830310591F64A
:103710008A819B8101969B838A830894E11CF11C1A
:10372000089709F0B2CF0F900F900F90CF91DF91D3
:103730001F910F91FF90EF90DF90CF90BF90AF90CF
:103740009F908F907F906F905F904F903F902F90C1
:1037500008952F923F924F925F926F927F928F9235
:103760009F92AF92BF92CF92DF92EF92FF920F9310
:103770001F93DF93CF9300D00F92CDB7DEB75C01DC
:10378000762E2983202E3E2C6C2CC42EDD24C7FCE3
:10379000D09476011B821A82862E992487FC9094FD
:1037A000B0E84B2E512C0A811B810C0D1D1D88E0A9
:1037B000E816F104D8F589816A810E946328A02F58
:1037C000AA0FAA0FAA0FA40120E030E0682F70E032
:1037D0004830510520F5F201022E02C0F595E7951B
:1037E0000A94E2F7CF0186239723892BC1F0872D16
:1037F000820F8A2BF501E80FF11D1082982F90643B
:10380000F501E90FF11D2082982F9068F501E90F6D
:10381000F11D3082806CF501E80FF11D60822F5F91
:103820003F4F4F5F5F4F2430310591F68A819B8176
:1038300001969B838A830894E11CF11C049709F08C
:10384000B2CF0F900F900F90CF91DF911F910F91FA
:10385000FF90EF90DF90CF90BF90AF909F908F90B0
:103860007F906F905F904F903F902F9008952F9290
:103870003F924F925F926F927F928F929F92AF9200
:10388000BF92CF92DF92EF92FF920F931F93DF933D
:10389000CF9300D00F92CDB7DEB77C013B012A0158
:1038A0002983F801DB012C90DA013C90922D80E015
:1038B0008701080F191F932D80E09701280F391FEA
:1038C0003B832A83D2808380C480B580A680978082
:1038D0008C2D90E0A0E0B0E0BA2FA92F982F882778
:1038E0002B2D30E040E050E0822B932BA42BB52B06
:1038F000BA2FA92F982F88272A2D30E040E050E0DA
:10390000822B932BA42BB52B4427582F692F7A2F6A
:10391000892D90E0A0E0B0E0482B592B6A2B7B2B3F
:10392000818190E0FC013197EF32F10508F0D8C6B3
:10393000EC57FF4FEE0FFF1F0590F491E02D099417
:10394000A0E0B0E0F0E86F2E712C0B2D10E0EA2C17
:10395000FF24C92CDD2474C18A819B816D2D482DE3
:103960002C2D0E943D1A26C0AA81BB8190E01D9299
:10397000892F8064EA81FB81E80FF11D1082892F75
:103980008068EA81FB81E80FF11D1082892F806C2D
:10399000EA81FB81E80FF11D10829F5F903439F7B7
:1039A0008A819B816D2D482D2C2D0B2DEA2CC92C45
:1039B0000E941B1B8A819B810E943929D3013C9262
:1039C000F20120828DC6AA81BB8190E0CD92892F21
:1039D0008064EA81FB81E80FF11DB082892F806845
:1039E000EA81FB81E80FF11DA082892F806CEA81BA
:1039F000FB81E80FF11D90829F5F903439F7DACF99
:103A0000F7E0F81508F46CC6D7FC6AC6FD150CF48F
:103A100067C6882D880F880F880F8D29F801E80F59
:103A2000F11DC082982F9064F801E90FF11DB0825A
:103A3000982F9068F801E90FF11DA082806C080FA3
:103A4000111DD801B7C08A819B816D2D482D2C2D69
:103A50000E949E1A45C68A819B816D2D482D2C2D72
:103A60000B2DEA2CC92C0E941B1B3AC68A819B8114
:103A70006D2D482D2C2D0B2DEA2CC92C0E94A91B35
:103A80002FC6AA81BB8190E0CD92892F8064EA8104
:103A9000FB81E80FF11DB082892F8068EA81FB81EC
:103AA000E80FF11DA082892F806CEA81FB81E80F6D
:103AB000F11D90829F5F903439F712C6B7E0B815B8
:103AC00008F40EC6282D220F220F220F30E0932F6C
:103AD000922BEA81FB81E90FF11DC082892F80645E
:103AE000EA81FB81E80FF11DB082892F8068EA81AD
:103AF000FB81E80FF11DA082906CEA81FB81E90F48
:103B0000F11D90823F5F383011F7EAC5E7E0ED150F
:103B100008F4E6C520E030E0C901E3E0880F991F12
:103B2000EA95E1F79D2D982BEA81FB81E90FF11DC4
:103B3000C082892F8064EA81FB81E80FF11DB08289
:103B4000892F8068EA81FB81E80FF11DA082906CCB
:103B5000EA81FB81E90FF11D90822F5F3F4F2830F2
:103B60003105D1F6BDC5F7E0F81508F4B9C5D7FCA5
:103B7000B7C5FD150CF4B4C5882D880F880F880FC4
:103B80008D29EA81FB81E80FF11DC082982F906496
:103B9000EA81FB81E90FF11DB082982F9068EA81DC
:103BA000FB81E90FF11DA082806C2A813B81280FE7
:103BB000311DD9019C9294C5762F742BEA81FB812B
:103BC000E70FF11D10829301042E02C03595279551
:103BD0000A94E2F7C90180239123892B11F490E024
:103BE00001C09FEF872F8064EA81FB81E80FF11D00
:103BF0009083C9018E219F21892B11F490E001C08F
:103C00009FEF872F8068EA81FB81E80FF11D908389
:103C1000C9018C219D21892B11F480E001C08FEF17
:103C2000706CEA81FB81E70FF11D80834F5F5F4F6E
:103C30004830510509F61196A830B10509F450C570
:103C40006A2F660F660F660F40E050E0B5CFB7E011
:103C5000B81508F445C5682D660F660F660F40E07D
:103C600050E0A0E8B0E00B2D10E0EA2CFF24C92CB6
:103C7000DD24762F742BEA81FB81E70FF11D108282
:103C80009D01042E02C0359527950A94E2F7C901DB
:103C900080239123892B11F490E001C09FEF872F9F
:103CA0008064EA81FB81E80FF11D9083C9018E21B8
:103CB0009F21892B11F490E001C09FEF872F80682E
:103CC000EA81FB81E80FF11D9083C9018C219D21C0
:103CD000892B11F480E001C08FEF706CEA81FB81C9
:103CE000E70FF11D80834F5F5F4F4830510509F6A4
:103CF000F7C4E7E0ED1508F4F3C440E050E070E8E5
:103D0000672E712CAB2DB0E00A2D10E0E92CFF24BA
:103D1000CA0163E0880F991F6A95E1F77D2D782B22
:103D2000EA81FB81E70FF11D10829301042E02C08E
:103D3000359527950A94E2F7C9018A239B23892B9D
:103D400011F490E001C09FEF872F8064EA81FB812E
:103D5000E80FF11D9083C90180239123892B11F471
:103D600090E001C09FEF872F8068EA81FB81E80F18
:103D7000F11D9083C9018E219F21892B11F480E0D0
:103D800001C08FEF706CEA81FB81E70FF11D80832A
:103D90004F5F5F4F4830510509F0BACFA1C4F7E03B
:103DA000F81508F49DC4D7FC9BC4FD150CF498C409
:103DB000982D990F990F990F9D29EA81FB81E90FA1
:103DC000F11D1082BB0CBB08892F8064EA81FB8146
:103DD000E80FF11DB082AA0CAA08892F8068EA8139
:103DE000FB81E80FF11DA082990C9908906C2A8143
:103DF0003B81290F311DDDCECB01BA010E94CF17C7
:103E00006FC4CB01BA0120E030E040E050E00E94F6
:103E1000FD1666C4CB01BA010E94C21661C4CB0173
:103E2000BA010E94DD0E5CC4CB01BA010E947E0E75
:103E300057C4CB01BA010E948B0E52C4882D0E9438
:103E4000AA314EC4882D6C2D4B2D2A2D092D0E9490
:103E5000830C46C4882D8D5F692D0E94950C882D9A
:103E60008E5F6A2D0E94950C882D8F5F6B2D0E94AE
:103E7000950C882D6C2D0E94950C32C4082D80FE67
:103E80000FC08C2D90E0698170E00E94C734182F1C
:103E9000982F80E08E0D9F1D0E943929F301108319
:103EA00001FF1EC48B2D90E0698170E00E94C73431
:103EB000D2018C9315C440E050E0A42F2A813B81AD
:103EC000240F351FF801E40FF51F8081F90180836D
:103ED000E42FE064F0E02A813B812E0F3F1FE00FCA
:103EE000F11F8081F9018083E42FE068F0E02A81EE
:103EF0003B812E0F3F1FE00FF11F8081F90180836E
:103F0000A06CB0E0EA81FB81EA0FFB1FA00FB11F9C
:103F10008C9180834F5F5F4F4034510571F6E0C351
:103F20008A819B8160E04C2D2B2D0A2DE92C0E946B
:103F3000E2178A819B8161E04C2D2B2D0E94E217B4
:103F40008A819B8162E04C2D2B2D0E94E2178A8191
:103F50009B8163E04C2D2B2D0E94E2178A819B816F
:103F600064E04C2D2B2D0E94E2178A819B8165E035
:103F70004C2D2B2D0E94E2178A819B8166E04C2DEF
:103F80002B2D0E94E2178A819B8167E04C2D2B2DFF
:103F90000E94E217D394D7FCC3CF3BC08A819B8198
:103FA00060E04C2D2B2D0A2DE92C0E944C188A81A3
:103FB0009B8161E04C2D2B2D0E944C188A819B81A6
:103FC00062E04C2D2B2D0E944C188A819B8163E06E
:103FD0004C2D2B2D0E944C188A819B8164E04C2D26
:103FE0002B2D0E944C188A819B8165E04C2D2B2D36
:103FF0000E944C188A819B8166E04C2D2B2D0E94DB
:104000004C188A819B8167E04C2D2B2D0E944C1807
:10401000DA94DD2019F63BC08A819B8160E04C2D4B
:104020002B2D0A2DE92C0E94C0188A819B8161E00A
:104030004C2D2B2D0E94C0188A819B8162E04C2D53
:104040002B2D0E94C0188A819B8163E04C2D2B2D63
:104050000E94C0188A819B8164E04C2D2B2D0E9408
:10406000C0188A819B8165E04C2D2B2D0E94C018C1
:104070008A819B8166E04C2D2B2D0E94C0188A817D
:104080009B8167E04C2D2B2D0E94C018839487FCE8
:10409000C3CF3BC08A819B8160E04C2D2B2D0A2D24
:1040A000E92C0E942E198A819B8161E04C2D2B2DD9
:1040B0000E942E198A819B8162E04C2D2B2D0E943B
:1040C0002E198A819B8163E04C2D2B2D0E942E1985
:1040D0008A819B8164E04C2D2B2D0E942E198A81B0
:1040E0009B8165E04C2D2B2D0E942E198A819B818E
:1040F00066E04C2D2B2D0E942E198A819B8167E052
:104100004C2D2B2D0E942E198A94882019F6E8C276
:104110008A819B81682D4C2D2B2D0A2DE92C0E9424
:10412000E217D394D7FCF4CF0AC08A819B81682D13
:104130004C2D2B2D0A2DE92C0E944C18DA94DD20F1
:10414000A1F7CEC28A819B816D2D4C2D2B2D0A2D7E
:10415000E92C0E94C018839487FCF4CF0AC08A819E
:104160009B816D2D4C2D2B2D0A2DE92C0E942E1993
:104170008A948820A1F7B4C28A819B8160E00E9462
:1041800022188A819B8161E00E9422188A819B818A
:1041900062E00E9422188A819B8163E00E942218BB
:1041A0008A819B8164E00E9422188A819B8165E05C
:1041B0000E9422188A819B8166E00E9422188A81CF
:1041C0009B8167E00E942218D394D7FCD5CF29C0E9
:1041D0008A819B8160E00E948D188A819B8161E0C9
:1041E0000E948D188A819B8162E00E948D188A81CD
:1041F0009B8163E00E948D188A819B8164E00E940C
:104200008D188A819B8165E00E948D188A819B812F
:1042100066E00E948D188A819B8167E00E948D185C
:10422000DA94DD20A9F629C08A819B8160E00E9492
:1042300007198A819B8161E00E9407198A819B810D
:1042400062E00E9407198A819B8163E00E9407193E
:104250008A819B8164E00E9407198A819B8165E0C5
:104260000E9407198A819B8166E00E9407198A8152
:104270009B8167E00E940719839487FCD5CF29C0F2
:104280008A819B8160E00E947B198A819B8161E029
:104290000E947B198A819B8162E00E947B198A813E
:1042A0009B8163E00E947B198A819B8164E00E946C
:1042B0007B198A819B8165E00E947B198A819B81A1
:1042C00066E00E947B198A819B8167E00E947B19CE
:1042D0008A948820A9F604C28A819B81682D0E9455
:1042E0002218D394D7FCF8CF06C08A819B81682D11
:1042F0000E948D18DA94DD20C1F7F2C18A819B817A
:104300006D2D0E940719839487FCF8CF06C08A811F
:104310009B816D2D0E947B198A948820C1F7E0C192
:10432000DD2041F18A819B8160E00E94A4198A818D
:104330009B8161E00E94A4198A819B8162E00E94B6
:10434000A4198A819B8163E00E94A4198A819B81C0
:1043500064E00E94A4198A819B8165E00E94A419EF
:104360008A819B8166E00E94A4198A819B8167E013
:104370000E94A419882009F4B3C18A819B8160E05E
:104380000E94EA198A819B8161E00E94EA198A8170
:104390009B8162E00E94EA198A819B8163E00E940E
:1043A000EA198A819B8164E00E94EA198A819B81D3
:1043B00065E00E94EA198A819B8166E00E94EA1901
:1043C0008A819B8167E009C08A819B81682D0E9458
:1043D000A41986C18A819B816D2D0E94EA1980C132
:1043E000AA81BB8190E08C918823D9F4892F8064C5
:1043F000EA81FB81E80FF11D808180958083892F00
:104400008068EA81FB81E80FF11D808180958083BF
:10441000892F806CEA81FB81E80FF11D80818095F6
:1044200080839F5F11969034F1F65AC1F7E0F8153A
:1044300008F456C1282D220F220F220F50E0352FED
:10444000322BEA81FB81E30FF11D80818823D1F4B7
:10445000832F8064EA81FB81E80FF11D80818095C4
:104460008083832F8068EA81FB81E80FF11D8081C2
:1044700080958083306CEA81FB81E30FF11D8081A0
:10448000809580835F5F5830D1F62AC127E02D15D3
:1044900008F426C120E030E0C90153E0880F991FDD
:1044A0005A95E1F79D2D982BEA81FB81E90FF11DCB
:1044B00080818823D1F4892F8064EA81FB81E80F11
:1044C000F11D808180958083892F8068EA81FB813E
:1044D000E80FF11D808180958083906CEA81FB81DB
:1044E000E90FF11D8081809580832F5F3F4F283039
:1044F000310591F6F5C037E03D1508F4F1C0FD2C0B
:10450000FF0CFF0CFF0C00E0102F1F29EA81FB813C
:10451000E10FF11D10828C2D60E0482D202F0E94AC
:10452000D028912F9064EA81FB81E90FF11D8083EF
:104530008C2D61E0482D202F0E94D028912F90686B
:10454000EA81FB81E90FF11D80838C2D62E0482D0B
:10455000202F0E94D028106CEA81FB81E10FF11D11
:1045600080830F5F083081F6BBC087E08D1508F4AB
:10457000B7C0EE24FF24C70143E0880F991F4A9576
:10458000E1F71D2D182BEA81FB81E10FF11D10824F
:104590008C2D60E04E2D282D0E94D028912F906404
:1045A000EA81FB81E90FF11D80838C2D61E04E2DA6
:1045B000282D0E94D028912F9068EA81FB81E90F75
:1045C000F11D80838C2D62E04E2D282D0E94D02875
:1045D000106CEA81FB81E10FF11D80830894E11CDE
:1045E000F11CA8E0EA16F10431F67AC0B7E0BD1577
:1045F00008F476C08C2D682D0E9454281D2D110FB3
:10460000110F110F20E030E0A0E8B0E0482F50E09B
:10461000CD01022E02C0959587950A94E2F7842376
:104620009523892BD9F0912F922BEA81FB81E90FF9
:10463000F11D1082892F8064EA81FB81E80FF11D52
:10464000B082892F8068EA81FB81E80FF11DA0828A
:10465000906CEA81FB81E90FF11D90822F5F3F4F43
:1046600028303105A9F63CC0E7E0ED15C8F130E887
:10467000E32EF12C02C0F594E7948A94E2F700E06F
:1046800010E08C2D602F0E94542890E08E219F21F5
:10469000892B09F1C80123E0880F991F2A95E1F7BA
:1046A0009D2D982BEA81FB81E90FF11D1082892F46
:1046B0008064EA81FB81E80FF11DB082892F806858
:1046C000EA81FB81E80FF11DA082906CEA81FB81F9
:1046D000E90FF11D90820F5F1F4F0830110589F619
:1046E0000F900F900F90CF91DF911F910F91FF903E
:1046F000EF90DF90CF90BF90AF909F908F907F9082
:104700006F905F904F903F902F9008955F926F92BF
:104710007F928F929F92AF92BF92CF92DF92EF9251
:10472000FF920F931F93CF93DF934B013A01F80150
:10473000DB015C90DA01AC90352D20E0BC01620F0A
:10474000731F3A2D20E0EC01C20FD31F91818281AB
:10475000182F12951F70382F3F708381282F2295B4
:104760002F708F70B48013FD106FF32EF29440EF12
:10477000F422F32AD22ED29430EFD322D22AC82E9A
:10478000C29400EFC022C82A892F90E0FC01319723
:10479000EB32F10508F078C4ED54FF4FEE0FFF1F28
:1047A0000590F491E02D0994A0E0B0E010E8A12E6E
:1047B000B12C0F2D10E0ED2CFF24DD244CC1CE01D7
:1047C000612F40E02B2D0E943D1A20C0DE0190E0B9
:1047D0001D92892F8064FE01E80FF11D1082892F40
:1047E0008068FE01E80FF11D1082892F806CFE01A8
:1047F000E80FF11D10829F5F903451F7CE01612FB9
:1048000040E02B2D0F2DED2C0E941B1BCE010E9492
:104810003929F401A082D3015C9236C4DE0190E014
:104820001D92892F8064FE01E80FF11DF082892F0F
:104830008068FE01E80FF11DD082892F806CFE0197
:10484000E80FF11DC0829F5F903451F7DFCFB7E0D2
:10485000BB1508F419C417FD17C418300CF014C4A4
:104860008B2D880F880F880F812BFB01E80FF11D1E
:104870001082982F9064FB01E90FF11DF082982FB0
:104880009068FB01E90FF11DD082806C680F711DEB
:10489000FB01C082F9C3CE01612F40E02B2D0E94A5
:1048A0009E1AF2C3CE01612F40E02B2D0F2DED2C6F
:1048B0000E941B1BE9C3CE01612F40E02B2D0F2D61
:1048C000ED2C0E94A91BE0C3DE0190E01D92892F10
:1048D0008064FE01E80FF11DF082892F8068FE01DF
:1048E000E80FF11DD082892F806CFE01E80FF11DC9
:1048F000C0829F5F903451F7C7C3F7E0FB1508F4FF
:10490000C3C32B2D220F220F220F30E0932F922BA7
:10491000FE01E90FF11D1082892F8064FE01E80F6E
:10492000F11DF082892F8068FE01E80FF11DD08211
:10493000906CFE01E90FF11DC0823F5F383031F706
:10494000A3C3183008F0A0C320E030E0C901A3E001
:10495000880F991FAA95E1F7912F982BFE01E90F77
:10496000F11D1082892F8064FE01E80FF11DF08295
:10497000892F8068FE01E80FF11DD082906CFE0146
:10498000E90FF11DC0822F5F3F4F28303105F1F64E
:104990007BC387E08B1508F477C317FD75C3183008
:1049A0000CF072C38B2D880F880F880F812BFE01AE
:1049B000E80FF11D1082982F9064FE01E90FF11DA0
:1049C000F082982F9068FE01E90FF11DD082806C73
:1049D000C80FD11D0AC1322F362BFE01E30FF11D86
:1049E0001082A501062E02C0559547950A94E2F75C
:1049F000CA0180239123892B11F490E001C09FEF1D
:104A0000832F8064FE01E80FF11D9083CA018E217F
:104A10009F21892B11F490E001C09FEF832F8068C4
:104A2000FE01E80FF11D9083CA018C219D21892B85
:104A300011F480E001C08FEF306CFE01E30FF11D37
:104A400080836F5F7F4F6830710529F61196A8301B
:104A5000B10509F419C32A2F220F220F220F60E09B
:104A600070E0B9CFA7E0AB1508F40EC32B2D220FD1
:104A7000220F220FA0E0B0E060E870E00F2D10E000
:104A8000ED2CFF24DD24322F3A2BFE01E30FF11D24
:104A90001082AB010A2E02C0559547950A94E2F7A1
:104AA000CA0180239123892B11F490E001C09FEF6C
:104AB000832F8064FE01E80FF11D9083CA018E21CF
:104AC0009F21892B11F490E001C09FEF832F806814
:104AD000FE01E80FF11D9083CA018C219D21892BD5
:104AE00011F480E001C08FEF306CFE01E30FF11D87
:104AF00080831196A830B10531F6C6C2183008F08F
:104B0000C3C260E070E0F0E8AF2EB12CAF2DB0E092
:104B1000ED2CFF24DD24CB01E3E0880F991FEA95FB
:104B2000E1F7312F382BFE01E30FF11D1082A501B3
:104B3000062E02C0559547950A94E2F7CA018A23CA
:104B40009B23892B11F490E001C09FEF832F806499
:104B5000FE01E80FF11D9083CA018E219F21892B50
:104B600011F490E001C09FEF832F8068FE01E80FF1
:104B7000F11D9083CA018C219D21892B11F480E0C5
:104B800001C08FEF306CFE01E30FF11D80836F5F7A
:104B90007F4F6830710509F0BECF76C2B7E0BB1514
:104BA00008F472C217FD70C218300CF06DC29B2D54
:104BB000990F990F990F912BFE01E90FF11D1082AA
:104BC000FF0CFF08892F8064FE01E80FF11DF082C1
:104BD000DD0CDD08892F8068FE01E80FF11DD08211
:104BE000CC0CCC08906CC90FD11DC8824DC240E0DE
:104BF00050E0A42F9E01240F351FFB01E40FF51F89
:104C00008081F9018083E42FE064F0E09E012E0FA3
:104C10003F1FE60FF71F8081F9018083E42FE068D2
:104C2000F0E09E012E0F3F1FE60FF71F8081F90174
:104C30008083A06CB0E0FE01EA0FFB1FA60FB71F38
:104C40008C9180834F5F5F4F4034510591F61CC2B9
:104C5000CE010E943929D401AC92F301508214C2D2
:104C6000CE0160E040E02F2D0D2DEC2C0E944C1861
:104C7000CE0161E040E02F2D0E944C18CE0162E091
:104C800040E02F2D0E944C18CE0163E040E02F2D14
:104C90000E944C18CE0164E040E02F2D0E944C1879
:104CA000CE0165E040E02F2D0E944C18CE0166E059
:104CB00040E02F2D0E944C18CE0167E040E02F2DE0
:104CC0000E944C181150112359F633C0CE0160E0F8
:104CD00040E02F2D0D2DEC2C0E94C018CE0161E07C
:104CE00040E02F2D0E94C018CE0162E040E02F2D41
:104CF0000E94C018CE0163E040E02F2D0E94C01832
:104D0000CE0164E040E02F2D0E94C018CE0165E086
:104D100040E02F2D0E94C018CE0166E040E02F2D0C
:104D20000E94C018CE0167E040E02F2D0E94C018FD
:104D3000B394B7FCCBCF33C0CE0160E040E02F2D61
:104D40000D2DEC2C0E942E19CE0161E040E02F2D9C
:104D50000E942E19CE0162E040E02F2D0E942E19F4
:104D6000CE0163E040E02F2D0E942E19CE0164E0B9
:104D700040E02F2D0E942E19CE0165E040E02F2D3E
:104D80000E942E19CE0166E040E02F2D0E942E19C0
:104D9000CE0167E040E02F2D0E942E19BA94BB206F
:104DA00059F672C1CE016B2D40E02F2D0D2DEC2C4C
:104DB0000E944C1811501123A9F766C1CE01612F32
:104DC00040E02F2D0D2DEC2C0E94C018B394B7FCA1
:104DD000F5CF09C0CE01612F40E02F2D0D2DEC2C19
:104DE0000E942E19BA94BB20A9F74EC1CE0160E0F3
:104DF0000E948D18CE0161E00E948D18CE0162E004
:104E00000E948D18CE0163E00E948D18CE0164E0EF
:104E10000E948D18CE0165E00E948D18CE0166E0DB
:104E20000E948D18CE0167E00E948D181150112349
:104E3000E9F621C0CE0160E00E940719CE0161E0D1
:104E40000E940719CE0162E00E940719CE0163E0BB
:104E50000E940719CE0164E00E940719CE0165E0A7
:104E60000E940719CE0166E00E940719CE0167E093
:104E70000E940719B394B7FCDDCF21C0CE0160E0DA
:104E80000E947B19CE0161E00E947B19CE0162E095
:104E90000E947B19CE0163E00E947B19CE0164E081
:104EA0000E947B19CE0165E00E947B19CE0166E06D
:104EB0000E947B19CE0167E00E947B19BA94BB2047
:104EC000E9F6E2C0CE016B2D0E948D18115011231E
:104ED000C9F7DAC0CE01612F0E940719B394B7FC5D
:104EE000F9CF05C0CE01612F0E947B19BA94BB2077
:104EF000C9F7CAC0112301F1CE0160E00E94A419D4
:104F0000CE0161E00E94A419CE0162E00E94A419C2
:104F1000CE0163E00E94A419CE0164E00E94A419AE
:104F2000CE0165E00E94A419CE0166E00E94A4199A
:104F3000CE0167E00E94A419BB2009F4A5C0CE01F0
:104F400060E00E94EA19CE0161E00E94EA19CE01F8
:104F500062E00E94EA19CE0163E00E94EA19CE01E4
:104F600064E00E94EA19CE0165E00E94EA19CE01D0
:104F700066E00E94EA19CE0167E007C0CE016B2D02
:104F80000E94A41981C0CE01612F0E94EA197CC041
:104F9000DE0190E08C918823C1F4892F8064FE01AA
:104FA000E80FF11D808180958083892F8068FE0144
:104FB000E80FF11D808180958083892F806CFE0130
:104FC000E80FF11D8081809580839F5F119690345A
:104FD00009F75AC0F7E0FB1508F456C02B2D220F35
:104FE000220F220F40E0342F322BFE01E30FF11D80
:104FF00080818823B9F4832F8064FE01E80FF11DBE
:10500000808180958083832F8068FE01E80FF11DE9
:10501000808180958083306CFE01E30FF11D8081DB
:10502000809580834F5F4830F1F62EC0183060F5D0
:1050300020E030E0C90153E0880F991F5A95E1F74D
:10504000912F982BFE01E90FF11D80818823B9F47F
:10505000892F8064FE01E80FF11D80818095808397
:10506000892F8068FE01E80FF11D80818095808383
:10507000906CFE01E90FF11D8081809580832F5F88
:105080003F4F28303105B1F6DF91CF911F910F913D
:10509000FF90EF90DF90CF90BF90AF909F908F9058
:1050A0007F906F905F9008956770E82FF0E083E045
:1050B000EE0FFF1F8A95E1F7E60FF11DE454FE4F56
:1050C000E4918E2F089570E0FB01E370F070F59588
:1050D000E79590E0880F991FE80FF91FE454F64F09
:1050E0008491282F30E060FF08C044E0220F331F76
:1050F0004A95E1F78F70822B089594E035952795B6
:105100009A95E1F7807F822B08959F92AF92BF928C
:10511000CF92DF92EF92FF920F931F93962E590139
:105120006A0190E08F719070880F991F880F991F06
:105130002CEB3BE0F901E80FF91FE590F490FC013E
:105140003296E20FF31F2591349140E050E0C60102
:10515000B5010E94EE3400E010E0E60EF71E081FD5
:10516000191F892D63E00E94BB34292F30E081EDA7
:1051700091E0289FF001299FF00D389FF00D112438
:10518000EE0DFF1DE45CF34FE4918E2F1F910F9104
:10519000FF90EF90DF90CF90BF90AF909F900895D9
:1051A000A82F862F277063E00E94BB34B0E0A77061
:1051B000B070FD01EE0FFF1FEA0FFB1FE90FF11D9D
:1051C00093E0EE0FFF1F9A95E1F74770E40FF11D92
:1051D00083E0EE0FFF1F8A95E1F7E20FF11DE15525
:1051E000FE4EE4918E2F0895DF92EF92FF920F937F
:1051F0001F93D82E862F211531054105510549F100
:105200002E153F054007510710F0D62E22C0D616A6
:1052100078F470E06D197109882777FD8095982FD3
:105220000E949C34A80197010E94EE34D20E11C056
:105230006D1578F46D2D70E0681B7109882777FD76
:105240008095982F0E949C34A80197010E94EE340B
:10525000D21A8D2D1F910F91FF90EF90DF9008953E
:105260009093100780930F07909308078093070788
:1052700008959093100780930F0708952F923F92FF
:105280004F925F926F927F928F929F92AF92BF9256
:10529000CF92DF92EF92FF920F931F93DF93CF9302
:1052A000CDB7DEB72E970FB6F894DEBF0FBECDBFD9
:1052B000A0910707B09108072090090728868091E0
:1052C0000A078F5F80930A078150222D30E013E098
:1052D000220F331F1A95E1F7C82EDD24F901EC29BE
:1052E000FD29EA0FFB1F6081F601E064E22BF32B3E
:1052F000EA0FFB1FB080F601E068E22BF32BEA0F08
:10530000FB1F5080C601806C822B932BA80FB91F06
:105310003C90A62E67FF5EC18B2D90E09C838B8313
:10532000FC01EF73F070EE0FFF1FEE0FFF1FE15552
:10533000F84EE590F590059114916F73A6FE09C0A3
:10534000862F0E949B31AC01CB01DA013C014D015B
:105350000BC08091AE020E94AF10AC01CB01DA010C
:105360003C014D011092AE02E114F104010511055A
:10537000E9F0A52CA294AFE0AA220BC0C401B301AE
:10538000A80197010E94EE34C901DA013C014D01E8
:10539000AA94AA2099F7C401B301A80197010E9419
:1053A000EE34AC01CB01DA013C014D018B81807CF4
:1053B00009F4F7C0252D30E0C9019595879595959D
:1053C00087958370907045E550E0849FD001859F5C
:1053D000B00D949FB00D1124BC87AB87AD832370B3
:1053E0003070249FB001259F700D349F700D1124E3
:1053F0006A83832D829586958695837090E0849F3D
:105400002001859F500C949F500C11244E82232D17
:1054100030E0C901E4E095958795EA95E1F783705E
:105420009070849FF001859FF00D949FF00D1124E2
:10543000FA87E987E983C9019595879595958795B9
:1054400083709070849F1001859F300C949F300C66
:1054500011243E862D862F8223703070249F1001E8
:10546000259F300C349F300C1124A22CB7FE6DC048
:10547000E114F1040105110509F43FC06FE3E616DC
:10548000F1040105110558F57AE0671671048104ED
:10549000910428F480E390E0A0E0B0E01BC094E227
:1054A000691671048104910428F467E370E080E0D8
:1054B00090E01FC07EE3671671048104910430F010
:1054C0008FE3682E712C812C912C17C08DE390E016
:1054D000A0E0B0E0680E791E8A1E9B1E0EC091E609
:1054E000E916F1040105110540F460E270E080E086
:1054F00090E0660E771E881E991E7B8176FF05C0A0
:10550000862D68850E94542804C0862D68850E94D7
:105510006328282F80E890E002C095958795CA946B
:10552000E2F7822311F49D819A83AA81A0930E074A
:10553000882311F4BE81B983E981E0930D078823A4
:1055400009F4AF80A0920C0769C0F2E0EF16F104F5
:1055500001051105F8F0570168010894A108B10888
:10556000C108D1088B85A4019301860175010E94B1
:10557000F42880930E07842D6985A40193010E946D
:10558000F42880930D078D85622DA40193010E945C
:10559000F4281DC02B8420920E0740920D073D84F5
:1055A0003BC0832D60E0A40193010E948528809375
:1055B0000E07832D61E0A40193010E94852880934A
:1055C0000D07832D62E0A40193010E94852880933A
:1055D0000C0724C062FF08C08091AD026B2D0E94B1
:1055E0009B0CB82E1092AD02A1FE08C08091AD02B6
:1055F000652D0E949B0C582E1092AD02A0FE08C093
:105600008091AD02632D0E949B0C382E1092AD024A
:10561000B0920E0750920D0730920C0780912C012A
:1056200090E040910B0720EC30E0829FB001839F17
:10563000700D929F700D1124FB01E40FF11DE35DCD
:10564000FE4F80910C078083842F8064FB01E80F5C
:10565000F11DE35DFE4F80910D078083842F8068EC
:10566000FB01E80FF11DE35DFE4F80910E07808383
:105670004F5F40930B0780910A07883020F110920A
:105680000A07809109078F5F809309078830D8F057
:1056900010920907CB01835D9E4F0E94812B809160
:1056A0002C0121E0822780932C0110920B0780911E
:1056B0000F07909110079093080780930707209396
:1056C000AD022093AE022E960FB6F894DEBF0FBE49
:1056D000CDBFCF91DF911F910F91FF90EF90DF90A1
:1056E000CF90BF90AF909F908F907F906F905F9082
:1056F0004F903F902F9008958DE291E00E94BB2B38
:105700000895F89490931207809311077894089560
:1057100090E022E0289885B1822785B99F5F90317B
:10572000C9F7289890E022E085B1822785B99F5F6C
:10573000903CD1F790E022E0289885B1822785B986
:105740009F5F9031C9F7289890E022E085B18227C9
:1057500085B99F5F903CD1F728988AE090E00E943D
:105760000F325F9890E021E085B1822785B99F5F75
:105770009830D1F70895F8942AB1206F2AB92BB147
:105780002F702BB9529A209A219A28982998259AF5
:105790009093120780931107909314078093130737
:1057A0000E94882B10928000E1E8F0E080E1808385
:1057B00080E197E2909387008093860081E0809358
:1057C0006F00109285001092840080818160808338
:1057D000789408951F9310911507110F110F110F51
:1057E0000E94882B90E022E0289885B1822785B915
:1057F0009F5F9031C9F7A0911307B0911407812FD3
:105800008760FD01E80FF11D8081282F30E090E0D6
:1058100042E037FF02C0289A01C0289885B184274A
:1058200085B99F5F903119F0220F331FF2CF812F7E
:105830008660FD01E80FF11D8081282F30E090E0A7
:1058400042E037FF02C0289A01C0289885B184271A
:1058500085B99F5F903119F0220F331FF2CF812F4E
:105860008560FD01E80FF11D8081282F30E090E078
:1058700042E037FF02C0289A01C0289885B18427EA
:1058800085B99F5F903119F0220F331FF2CF812F1E
:105890008460FD01E80FF11D8081282F30E090E049
:1058A00042E037FF02C0289A01C0289885B18427BA
:1058B00085B99F5F903119F0220F331FF2CF812FEE
:1058C0008360FD01E80FF11D8081282F30E090E01A
:1058D00042E037FF02C0289A01C0289885B184278A
:1058E00085B99F5F903119F0220F331FF2CF812FBE
:1058F0008260FD01E80FF11D8081282F30E090E0EB
:1059000042E037FF02C0289A01C0289885B1842759
:1059100085B99F5F903119F0220F331FF2CF812F8D
:105920008160FD01E80FF11D8081282F30E090E0BB
:1059300042E037FF02C0289A01C0289885B1842729
:1059400085B99F5F903119F0220F331FF2CFFD010F
:10595000E10FF11D8081282F30E090E042E037FF19
:1059600002C0289A01C0289885B1842785B99F5F15
:10597000903119F0220F331FF2CF812F8764FD0180
:10598000E80FF11D8081282F30E090E042E037FFE2
:1059900002C0289A01C0289885B1842785B99F5FE5
:1059A000903119F0220F331FF2CF812F8664FD0151
:1059B000E80FF11D8081282F30E090E042E037FFB2
:1059C00002C0289A01C0289885B1842785B99F5FB5
:1059D000903119F0220F331FF2CF812F8564FD0122
:1059E000E80FF11D8081282F30E090E042E037FF82
:1059F00002C0289A01C0289885B1842785B99F5F85
:105A0000903119F0220F331FF2CF812F8464FD01F2
:105A1000E80FF11D8081282F30E090E042E037FF51
:105A200002C0289A01C0289885B1842785B99F5F54
:105A3000903119F0220F331FF2CF90E022E0289826
:105A400085B1822785B99F5F9031C9F7812F836423
:105A5000FD01E80FF11D8081282F30E090E042E049
:105A600037FF02C0289A01C0289885B1842785B9DC
:105A70009F5F903119F0220F331FF2CF812F826484
:105A8000FD01E80FF11D8081282F30E090E042E019
:105A900037FF02C0289A01C0289885B1842785B9AC
:105AA0009F5F903119F0220F331FF2CF812F816455
:105AB000FD01E80FF11D8081282F30E090E042E0E9
:105AC00037FF02C0289A01C0289885B1842785B97C
:105AD0009F5F903119F0220F331FF2CF812F806426
