:100000000C941D020C9445020C9445020C9445027C
:100010000C9445020C9445020C9445020C94450244
:100020000C9445020C9445020C9445020C94450234
:100030000C9445020C9447020C9445020C94450222
:100040000C94A1070C9445020C942F080C9476088C
:100050000C9445020C9445020C9445020C94450204
:100060000C9445020C9445020000004B000004BFB4
:1000700000004BFF0004BFFF004BFFFF04BFFFFF6A
:100080004BFFFFFFBFFFFFFDFFFD7100FFD710001B
:10009000FDF10000DA1000007100000110000017EF
:1000A0000000017E000017EF06EFFFFF6EFFFFFF6D
:1000B000EFFFFFFAFFFFFFA3FFFFFA30FFFAA300F5
:1000C000FFFA3000FFA30000000000000000000065
:1000D0000000000000000000000000000000000020
:1000E00000000000000000000FFFFFFF0FFFFFFFF8
:1000F0000FFFFFFF0FFFFFFF0FFFFFFF0FFFFFFFD0
:100100000FFFFFFF0FFFFFFF0000000000000000D7
:1001100000000000000000000000000000000000DF
:100120000000000000000000FFFD7100FFFD7100F5
:10013000FFFD7100FFFD7100FFFD7100FFFD71000B
:10014000FFFD7100FFFD71000000000000000000D5
:10015000000000000000000000000000000000009F
:10016000000000000000000000000000000000008F
:10017000000000000000000000000000000000007F
:100180000000000000000000FFFFFF4BFFFFF4BF76
:1001900000004BFF0004BFFF004BFFFF04BFFFFF49
:1001A0004BFFFFFFBFFFFFFDFFFD7100FFD71000FA
:1001B000FDF10000DA1000007100000110000017CE
:1001C0000000017E000017EF06EFFFFF6EFFFFFF4C
:1001D000EFFFFFFAFFFFFFA3FFFFFA30FFFAA300D4
:1001E000FFFA3000FFA30000FFFFFF4BFFFFF4BF4B
:1001F00000004BFF0004BFFF004BFFFF04BFFFFFE9
:100200004BFFFFFFBFFFFFFDFFFD7100FFD7100099
:10021000FDF10000DA10000071000001100000176D
:100220000000017E000017EF06EFFFFF6EFFFFFFEB
:10023000EFFFFFFAFFFFFFA3FFFFFA30FFFAA30073
:10024000FFFA3000FFA300000044447C444428101F
:10025000003C44443C44443C0038440404044438D6
:10026000001C24444444241C007C04043C04047CFE
:10027000000404043C04047C0078444474044438BE
:10028000004444447C44444400381010101010389A
:100290000018242020202070004424140C1424442E
:1002A000007C0404040404040044444454546C4496
:1002B00000444464544C4444003844444444443866
:1002C000000404043C44443C00582454444444384E
:1002D000004424143C44443C003C4040380404782E
:1002E000001010101010107C003844444444444462
:1002F0000010284444444444002854545444444482
:100300000044442810284444001010102844444459
:10031000007C04081020407C0078447840380000BD
:10032000003C44444C3404040038440404380000C5
:1003300000784444645840400038047C443800004D
:10034000000808081C084830384078444478000009
:10035000004444444C3404040038101010180010B9
:1003600018242020203000200024140C142404041D
:10037000003810101010101800444454542C000081
:10038000004444444C3400000038444444380000E5
:1003900004043C44443C000040405864645800005D
:1003A000000404044C340000003C403804380000D1
:1003B00000304808081C0808005864444444000001
:1003C00000102844444400000028545444440000D1
:1003D0000044281028440000384078444444000079
:1003E000007C0810207C00000038444C54644438E1
:1003F0000038101010101810007C081020404438ED
:10040000003844402010207C0020207C242830200C
:1004100000384440403C047C003844443C040830EC
:10042000000808081020407C003844443844443810
:100430000018204078444438ED0911241FBECFEF46
:10044000D8E0DEBFCDBF12E0A0E0B1E0E6EAF5E122
:1004500002C005900D92A239B107D9F713E0A2E9C5
:10046000B2E001C01D92AC34B107E1F714E0CAE379
:10047000D4E004C02297FE010E94CD0AC833D10700
:10048000C9F70E943D0A0C94D10A0C9400001F92F7
:100490000F920FB60F9211242F933F934F935F93B8
:1004A0006F937F938F939F93AF93BF93EF93FF933C
:1004B0000E941B05FF91EF91BF91AF919F918F918A
:1004C0007F916F915F914F913F912F910F900FBE50
:1004D0000F901F9018951F9380918102882381F0BF
:1004E0008DE293E00E944509181619064CF48DE23E
:1004F00093E00E9476098235910511F410928102F1
:1005000080918102882309F050C08DE293E00E941F
:10051000450904970CF449C08DE293E00E947609E6
:10052000809393028DE293E00E9476098093940277
:100530008DE293E00E947609809395028DE293E02C
:100540000E9476098093960282E992E00E94E4027A
:10055000909180028823D1F010EC919FC00111246A
:1005600080509F4F62E972E00E94ED02809180020C
:10057000819FC001112480509F4F0E94B20480913E
:10058000800291E08927809380020CC081E0982747
:1005900080EC989FC001112480509F4F62E972E067
:1005A0000E94ED0281E0809381021F91089580E016
:1005B00091E00E94EC048DE293E040E855E260E0B7
:1005C00070E00E94BF080895FC0181818150833052
:1005D00010F080E0089581E008952F923F924F92AD
:1005E0005F926F927F928F929F92AF92BF92CF92C3
:1005F000DF92EF92FF920F931F93CF93DF934C0103
:10060000FB018281A82EA2949FE0A9220FE0402E38
:1006100048228381582E52941FE05122182F1F70B8
:10062000E4808181823009F4A9C0833020F48130D4
:1006300009F046C119C0833021F0843009F040C16F
:1006400004C050E020E030E008C14A2D50E08E2D7B
:1006500090E0B3E0880F991FBA95E1F7482B592B2A
:1006600090E020E030E01AC16A2C77242A2C2694EE
:10067000FF2421E06222772482E0F81611F480E062
:1006800007C0F3948F2D8295880F880F807CFA9491
:10069000CC24DD24482E55245EC0043010F4202FD5
:1006A00002C0202F24508E2D6F2D432D0E947304E5
:1006B000182F6114710421F1033018F4202F2F5FDB
:1006C00002C0202F23508E2D6F2D432D0E947304C6
:1006D000FE01EE0FFF1FEA29FB29D401AE0FBF1F59
:1006E000912F9F701295107F912B9C93E160E80DE4
:1006F000F91D982F907F82958F70982B90831EC044
:10070000FE01EE0FFF1FEA29FB29282F30E0D4015C
:10071000AE0FBF1FA90164E0559547956A95E1F7B3
:10072000807F842B8C93E160E80DF91D54E0220F4B
:10073000331F5A95E1F71F70122B108321960F5F1C
:10074000C430D10509F0A9CF0894C11CD11C98E090
:10075000C916D10469F03C2C560143E0AA0CBB1C1D
:100760004A95E1F7A428B528022DC0E0D0E095CF46
:10077000F39423E0F21609F07FCFA2C08E2D0E94E1
:10078000A004382E8FEF381609F49AC0BB24EE244B
:10079000FF24CA2CDD2488EF9FEFC80ED91E09C0A4
:1007A00091E0B91611F0142D01C0152D0894E11C2B
:1007B000F11C012F0295007F012B370136E0660CFA
:1007C000771C3A95E1F7C0E0D0E0832D6C2F0E94B2
:1007D000920490E026E02A1538F00A2C02C0880F17
:1007E000991F0A94E2F706C00C2C02C095958795D4
:1007F0000A94E2F7AE0123E0440F551F2A95E1F772
:100800004629572920E030E0682F70E0CB01022E06
:1008100002C0880F991F0A94E2F78823880F880B7B
:100820008023F901E42BF52BE80DF91D80832F5F60
:100830003F4F2830310551F72196C830D10529F6B0
:10084000B39483E0B81609F0ABCF3AC0513011F041
:10085000142D01C0152D2F5F3F4F412F4295407F32
:10086000412BB90196E0660F771F9A95E1F780E07A
:1008700090E0FC01E62BF72BE80DF91D4083019673
:1008800080349105B1F75F5F533001F719C09130A3
:1008900011F0142D01C0152D2F5F3F4FF90186E097
:1008A000EE0FFF1F8A95E1F7E42BF52BE80DF91DFC
:1008B000812F8295807F812B80839F5F933039F7D2
:1008C000DF91CF911F910F91FF90EF90DF90CF902C
:1008D000BF90AF909F908F907F906F905F904F9060
:1008E0003F902F900895E42FF0E0EE0FFF1FEE0FE2
:1008F000FF1F30E0E22BF32B70E095E0660F771FCF
:100900009A95E1F7E62BF72B65E00E94760A80E6E0
:10091000989FC0011124E80FF91FE859FF4FE49197
:100920008E2F0895E82FF0E043E0EE0FFF1F4A9569
:10093000E1F7E60FF11DE85BFD4FE4918E2F08957E
:10094000982F81548A3168F080528A3110F4865E83
:100950000895892F80538A3010F08FEF0895892FE2
:100960008C5F0895F89490939802809397027894FE
:10097000089590E022E0289885B1822785B99F5F8D
:100980009031C9F7289890E022E085B1822785B997
:100990009F5F903CD1F790E022E0289885B18227B4
:1009A00085B99F5F9031C9F7289890E022E085B122
:1009B000822785B99F5F903CD1F728988AE090E024
:1009C0000E94E9075F9890E021E085B1822785B910
:1009D0009F5F9830D1F70895F8942AB1206F2AB913
:1009E0002BB12F702BB9529A209A219A28982998C6
:1009F000259A909398028093970290939A028093FD
:100A000099020E94B90410928000E1E8F0E080E1D0
:100A1000808380E197E2909387008093860081E055
:100A200080936F0010928500109284008081816015
:100A30008083789408951F9310919B02110F110FDA
:100A4000110F0E94B90490E022E0289885B1822716
:100A500085B99F5F9031C9F7A0919902B0919A0230
:100A6000812F8760FD01E80FF11D8081282F30E084
:100A700090E042E037FF02C0289A01C0289885B173
:100A8000842785B99F5F903119F0220F331FF2CF71
:100A9000812F8660FD01E80FF11D8081282F30E055
:100AA00090E042E037FF02C0289A01C0289885B143
:100AB000842785B99F5F903119F0220F331FF2CF41
:100AC000812F8560FD01E80FF11D8081282F30E026
:100AD00090E042E037FF02C0289A01C0289885B113
:100AE000842785B99F5F903119F0220F331FF2CF11
:100AF000812F8460FD01E80FF11D8081282F30E0F7
:100B000090E042E037FF02C0289A01C0289885B1E2
:100B1000842785B99F5F903119F0220F331FF2CFE0
:100B2000812F8360FD01E80FF11D8081282F30E0C7
:100B300090E042E037FF02C0289A01C0289885B1B2
:100B4000842785B99F5F903119F0220F331FF2CFB0
:100B5000812F8260FD01E80FF11D8081282F30E098
:100B600090E042E037FF02C0289A01C0289885B182
:100B7000842785B99F5F903119F0220F331FF2CF80
:100B8000812F8160FD01E80FF11D8081282F30E069
:100B900090E042E037FF02C0289A01C0289885B152
:100BA000842785B99F5F903119F0220F331FF2CF50
:100BB000FD01E10FF11D8081282F30E090E042E03F
:100BC00037FF02C0289A01C0289885B1842785B9CB
:100BD0009F5F903119F0220F331FF2CF812F87646E
:100BE000FD01E80FF11D8081282F30E090E042E008
:100BF00037FF02C0289A01C0289885B1842785B99B
:100C00009F5F903119F0220F331FF2CF812F86643E
:100C1000FD01E80FF11D8081282F30E090E042E0D7
:100C200037FF02C0289A01C0289885B1842785B96A
:100C30009F5F903119F0220F331FF2CF812F85640F
:100C4000FD01E80FF11D8081282F30E090E042E0A7
:100C500037FF02C0289A01C0289885B1842785B93A
:100C60009F5F903119F0220F331FF2CF812F8464E0
:100C7000FD01E80FF11D8081282F30E090E042E077
:100C800037FF02C0289A01C0289885B1842785B90A
:100C90009F5F903119F0220F331FF2CF90E022E0D6
:100CA000289885B1822785B99F5F9031C9F7812F38
:100CB0008364FD01E80FF11D8081282F30E090E072
:100CC00042E037FF02C0289A01C0289885B18427E6
:100CD00085B99F5F903119F0220F331FF2CF812F1A
:100CE0008264FD01E80FF11D8081282F30E090E043
:100CF00042E037FF02C0289A01C0289885B18427B6
:100D000085B99F5F903119F0220F331FF2CF812FE9
:100D10008164FD01E80FF11D8081282F30E090E013
:100D200042E037FF02C0289A01C0289885B1842785
:100D300085B99F5F903119F0220F331FF2CF812FB9
:100D40008064FD01E80FF11D8081282F30E090E0E4
:100D500042E037FF02C0289A01C0289885B1842755
:100D600085B99F5F903119F0220F331FF2CF812F89
:100D70008768FD01E80FF11D8081282F30E090E0A9
:100D800042E037FF02C0289A01C0289885B1842725
:100D900085B99F5F903119F0220F331FF2CF812F59
:100DA0008668FD01E80FF11D8081282F30E090E07A
:100DB00042E037FF02C0289A01C0289885B18427F5
:100DC00085B99F5F903119F0220F331FF2CF812F29
:100DD0008568FD01E80FF11D8081282F30E090E04B
:100DE00042E037FF02C0289A01C0289885B18427C5
:100DF00085B99F5F903119F0220F331FF2CF812FF9
:100E00008468FD01E80FF11D8081282F30E090E01B
:100E100042E037FF02C0289A01C0289885B1842794
:100E200085B99F5F903119F0220F331FF2CF812FC8
:100E30008368FD01E80FF11D8081282F30E090E0EC
:100E400042E037FF02C0289A01C0289885B1842764
:100E500085B99F5F903119F0220F331FF2CF812F98
:100E60008268FD01E80FF11D8081282F30E090E0BD
:100E700042E037FF02C0289A01C0289885B1842734
:100E800085B99F5F903119F0220F331FF2CF812F68
:100E90008168FD01E80FF11D8081282F30E090E08E
:100EA00042E037FF02C0289A01C0289885B1842704
:100EB00085B99F5F903119F0220F331FF2CF106870
:100EC000A10FB11D8C91282F30E090E042E037FF58
:100ED00002C0289A01C0289885B1842785B99F5FF0
:100EE000903119F0220F331FF2CF28988AE090E05A
:100EF0000E94E9075F9890E021E085B1822785B9DB
:100F00009F5F9830D1F790919B028BB18F708BB916
:100F10002BB1892F8295807F822B8BB95F9A5A984B
:100F20009F5F90939B02983050F010929B028091AB
:100F300097029091980290939A02809399021F9140
:100F400008951F920F920FB60F9211242F933F9383
:100F50008F939F93AF93BF938091A0029091A10232
:100F6000A091A202B091A3023091A4020196A11D0A
:100F7000B11D232F2D5F2D3720F02D570196A11D78
:100F8000B11D2093A4028093A0029093A102A0938C
:100F9000A202B093A30280919C0290919D02A09125
:100FA0009E02B0919F020196A11DB11D80939C02EB
:100FB00090939D02A0939E02B0939F02BF91AF9128
:100FC0009F918F913F912F910F900FBE0F901F9087
:100FD0001895019739F0880F991F880F991F02976C
:100FE0000197F1F70895789484B5826084BD84B543
:100FF000816084BD85B5826085BD85B5816085BD14
:10100000EEE6F0E0808181608083E1E8F0E010822C
:10101000808182608083808181608083E0E8F0E06D
:10102000808181608083E1EBF0E080818460808357
:10103000E0EBF0E0808181608083EAE7F0E080818E
:1010400084608083808182608083808181608083EE
:101050008081806880831092C100089508951F9256
:101060000F920FB60F9211242F933F934F938F93AC
:101070009F93EF93FF934091C6002091E50230913A
:10108000E6022F5F3F4F2F7330708091E7029091FF
:10109000E8022817390759F0E091E502F091E602DD
:1010A000EB55FD4F40833093E6022093E502FF911C
:1010B000EF919F918F914F913F912F910F900FBE84
:1010C0000F901F901895E0913903F0913A03E05C7E
:1010D000FF4F8191919120813181821B930B8F73FE
:1010E0009070892B11F00E942E0808951F920F9284
:1010F0000FB60F9211242F933F934F935F936F93EB
:101100007F938F939F93AF93BF93EF93FF93209120
:10111000290330912A0380912B0390912C032817E7
:10112000390731F48091C1008F7D8093C10016C0D2
:10113000E0912B03F0912C03E751FD4F408180910A
:101140002B0390912C03019660E470E00E94820AC8
:1011500090932C0380932B034093C600FF91EF9153
:10116000BF91AF919F918F917F916F915F914F91BF
:101170003F912F910F900FBE0F901F901895AF9237
:10118000BF92DF92EF92FF920F931F93CF93DF9363
:10119000EC017A018B01DD24403081EE580780E0BC
:1011A000680780E0780711F0DD24D39491E0A92E40
:1011B000B12CEC89FD89DD2069F0C5010E8C02C0DF
:1011C000880F991F0A94E2F7808360E079E08DE34D
:1011D00090E005C0108260E874E88EE190E0A8011C
:1011E00097010E94950A215030404040504056954A
:1011F00047953795279580E12030380720F0DD208E
:1012000011F0DD24D6CFE889F9893083EA89FB899A
:101210002083EE89FF89408121E030E0C9010A8CFA
:1012200002C0880F991F0A94E2F7482B4083EE8989
:10123000FF894081C9010B8C02C0880F991F0A9455
:10124000E2F7482B4083EE89FF894081C9010C8C6D
:1012500002C0880F991F0A94E2F7482B4083EE8959
:10126000FF8980810D8C02C0220F331F0A94E2F7A0
:10127000209528232083DF91CF911F910F91FF901C
:10128000EF90DF90BF90AF900895DC011C96ED9138
:10129000FC911D97E05CFF4F2191319180819181FC
:1012A000281B390B2F733070C9010895DC011C967F
:1012B000ED91FC911D97E05CFF4F20813181E0545E
:1012C000F040DF01AE5BBF4F8D919C9111972817C5
:1012D000390719F42FEF3FEF07C08D919C91E80F6C
:1012E000F91F8081282F30E0C9010895DC011C9688
:1012F000ED91FC911D97E05CFF4F20813181E0541E
:10130000F040DF01AE5BBF4F8D919C911197281784
:10131000390719F42FEF3FEF10C08D919C91119771
:10132000E80FF91F20818D919C91119701968F7381
:10133000907011969C938E9330E0C9010895FC0142
:1013400086859785DC01A05CBF4FFC01EE5BFF4FFB
:101350002D913C9111978081918128173907C1F710
:101360000895CF93DF93EC01462FEE85FF85E05C77
:10137000FF4F80819181E054F040019660E470E07D
:101380000E94820A9C01DF01AE5BBF4F8D919C9150
:10139000119728173907D1F3E05CFF4F80819181C5
:1013A000E054F040E80FF91F4083EE85FF85E05CD4
:1013B000FF4F31832083EE89FF89208181E090E017
:1013C0000D8C02C0880F991F0A94E2F7282B208306
:1013D00081E090E0DF91CF91089510923003109258
:1013E0002F0388EE93E0A0E0B0E080933103909368
:1013F0003203A0933303B093340386E892E09093D2
:101400002E0380932D0385EA92E090933A03809314
:10141000390389EE92E090933C0380933B0385EC83
:1014200090E090933E0380933D0384EC90E0909392
:10143000400380933F0380EC90E0909342038093BD
:10144000410381EC90E0909344038093430386EC46
:1014500090E0909346038093450384E08093470394
:1014600083E08093480387E08093490385E080937D
:101470004A0381E080934B030895CF93DF930E944A
:10148000F3070E94D702C3E6D8E00E946B022097C0
:10149000E1F30E946308F9CFCF92DF92EF92FF92BF
:1014A0000F931F93CF93DF937C016B018A01C0E000
:1014B000D0E00FC0D6016D916D01D701ED91FC9187
:1014C0000190F081E02DC7010995C80FD91F015087
:1014D00010400115110571F7CE01DF91CF911F91D9
:1014E0000F91FF90EF90DF90CF900895991B79E0D6
:1014F00004C0991F961708F0961B881F7A95C9F7A4
:101500008095089597FB092E07260AD077FD04D011
:101510002ED006D000201AF4709561957F4F089563
:10152000F6F7909581959F4F0895A1E21A2EAA1B78
:10153000BB1BFD010DC0AA1FBB1FEE1FFF1FA21783
:10154000B307E407F50720F0A21BB30BE40BF50B80
:10155000661F771F881F991F1A9469F76095709509
:10156000809590959B01AC01BD01CF010895AA1B08
:10157000BB1B51E107C0AA1FBB1FA617B70710F07E
:10158000A61BB70B881F991F5A95A9F780959095B0
:10159000BC01CD010895EE0FFF1F0590F491E02DE1
:0615A0000994F894FFCF4E
:1015A6000000000000000000000000000000000035
:1015B6000000000000000000000000000000000025
:1015C600000000FFFF000000000000000000000017
:1015D6000000000000000000000000000000000005
:1015E60000000000000000000000000000000000F5
:1015F6000000000000000000000000FF00000000E6
:1016060000000000FF0000000000000000000000D5
:1016160000000000000000000000000000000000C4
:1016260000000000000000000000000000000000B4
:10163600000000000000000000000000FF000000A5
:1016460000000000FF000000000000000000000095
:101656000000000000000000000000000000000084
:101666000000000000000000000000000000000074
:101676000000000000000000000000000000000064
:10168600000000FFFF000000000000000000000056
:101696000000000000000000000000000000000044
:1016A6000000000000000000000000000000000034
:1016B6000000000000000000000000FF0000000025
:1016C60000000000FF000000000000000000000015
:1016D6000000000000000000000000000000000004
:1016E60000000000000000000000000000000000F4
:1016F600000000000000000000000000FF000000E5
:1017060000000000FF0000000000000000000000D4
:1017160000000000000000000000000000000000C3
:10172600010100000000B1094C0A45097609560975
:021736009F0909
:00000001FF
