:100000000C9435000C945D000C945D000C945D0024
:100010000C945D000C945D000C945D000C945D00EC
:100020000C945D000C945D000C945D000C945D00DC
:100030000C945D000C945F000C945D000C945D00CA
:100040000C94BC030C945D000C944A040C94910431
:100050000C945D000C945D000C945D000C945D00AC
:100060000C945D000C945D00080611241FBECFEFB8
:10007000D8E0DEBFCDBF12E0A0E0B1E0E4ECFDE0EF
:1000800002C005900D92A239B107D9F713E0A2E999
:10009000B2E001C01D92A834B107E1F710E0CAE652
:1000A000D0E004C02297FE010E94DC06C836D107CA
:1000B000C9F70E9458060C94E0060C9400001F92A9
:1000C0000F920FB60F9211242F933F934F935F938C
:1000D0006F937F938F939F93AF93BF93EF93FF9310
:1000E0000E943601FF91EF91BF91AF919F918F9147
:1000F0007F916F915F914F913F912F910F900FBE24
:100100000F901F901895FF920F931F9389E293E031
:100110000E946005181619067CF50091800210E017
:10012000F090920289E293E00E94910520EC30E089
:10013000029FF001039FF00D129FF00D1124EF0DAF
:10014000F11DE050FF4F80838F2D8F5F80939202CF
:10015000803C90F08091800220EC829FC0011124AD
:1001600080509F4F0E94CD008091800291E08927AE
:1001700080938002109292021F910F91FF90089538
:1001800080E091E00E94070189E293E040E855E2B7
:1001900060E070E00E94DA040895F894909394026D
:1001A000809393027894089590E022E0289885B196
:1001B000822785B99F5F9031C9F7289890E022E0A7
:1001C00085B1822785B99F5F903CD1F790E022E00E
:1001D000289885B1822785B99F5F9031C9F7289803
:1001E00090E022E085B1822785B99F5F903CD1F7EE
:1001F00028988AE090E00E9404045F9890E021E053
:1002000085B1822785B99F5F9830D1F70895F8941A
:100210002AB1206F2AB92BB12F702BB9529A209A8C
:10022000219A28982998259A909394028093930272
:1002300090939602809395020E94D40010928000C1
:10024000E1E8F0E080E1808380E197E2909387002D
:100250008093860081E080936F0010928500109259
:100260008400808181608083789408951F93109129
:100270009702110F110F110F0E94D40090E022E09D
:10028000289885B1822785B99F5F9031C9F7A091E1
:100290009502B0919602812F8760FD01E80FF11D54
:1002A0008081282F30E090E042E037FF02C0289A9A
:1002B00001C0289885B1842785B99F5F903119F0D6
:1002C000220F331FF2CF812F8660FD01E80FF11D51
:1002D0008081282F30E090E042E037FF02C0289A6A
:1002E00001C0289885B1842785B99F5F903119F0A6
:1002F000220F331FF2CF812F8560FD01E80FF11D22
:100300008081282F30E090E042E037FF02C0289A39
:1003100001C0289885B1842785B99F5F903119F075
:10032000220F331FF2CF812F8460FD01E80FF11DF2
:100330008081282F30E090E042E037FF02C0289A09
:1003400001C0289885B1842785B99F5F903119F045
:10035000220F331FF2CF812F8360FD01E80FF11DC3
:100360008081282F30E090E042E037FF02C0289AD9
:1003700001C0289885B1842785B99F5F903119F015
:10038000220F331FF2CF812F8260FD01E80FF11D94
:100390008081282F30E090E042E037FF02C0289AA9
:1003A00001C0289885B1842785B99F5F903119F0E5
:1003B000220F331FF2CF812F8160FD01E80FF11D65
:1003C0008081282F30E090E042E037FF02C0289A79
:1003D00001C0289885B1842785B99F5F903119F0B5
:1003E000220F331FF2CFFD01E10FF11D8081282F75
:1003F00030E090E042E037FF02C0289A01C0289820
:1004000085B1842785B99F5F903119F0220F331F82
:10041000F2CF812F8764FD01E80FF11D8081282F25
:1004200030E090E042E037FF02C0289A01C02898EF
:1004300085B1842785B99F5F903119F0220F331F52
:10044000F2CF812F8664FD01E80FF11D8081282FF6
:1004500030E090E042E037FF02C0289A01C02898BF
:1004600085B1842785B99F5F903119F0220F331F22
:10047000F2CF812F8564FD01E80FF11D8081282FC7
:1004800030E090E042E037FF02C0289A01C028988F
:1004900085B1842785B99F5F903119F0220F331FF2
:1004A000F2CF812F8464FD01E80FF11D8081282F98
:1004B00030E090E042E037FF02C0289A01C028985F
:1004C00085B1842785B99F5F903119F0220F331FC2
:1004D000F2CF90E022E0289885B1822785B99F5F0E
:1004E0009031C9F7812F8364FD01E80FF11D8081F0
:1004F000282F30E090E042E037FF02C0289A01C088
:10050000289885B1842785B99F5F903119F0220F13
:10051000331FF2CF812F8264FD01E80FF11D80812E
:10052000282F30E090E042E037FF02C0289A01C057
:10053000289885B1842785B99F5F903119F0220FE3
:10054000331FF2CF812F8164FD01E80FF11D8081FF
:10055000282F30E090E042E037FF02C0289A01C027
:10056000289885B1842785B99F5F903119F0220FB3
:10057000331FF2CF812F8064FD01E80FF11D8081D0
:10058000282F30E090E042E037FF02C0289A01C0F7
:10059000289885B1842785B99F5F903119F0220F83
:1005A000331FF2CF812F8768FD01E80FF11D808195
:1005B000282F30E090E042E037FF02C0289A01C0C7
:1005C000289885B1842785B99F5F903119F0220F53
:1005D000331FF2CF812F8668FD01E80FF11D808166
:1005E000282F30E090E042E037FF02C0289A01C097
:1005F000289885B1842785B99F5F903119F0220F23
:10060000331FF2CF812F8568FD01E80FF11D808136
:10061000282F30E090E042E037FF02C0289A01C066
:10062000289885B1842785B99F5F903119F0220FF2
:10063000331FF2CF812F8468FD01E80FF11D808107
:10064000282F30E090E042E037FF02C0289A01C036
:10065000289885B1842785B99F5F903119F0220FC2
:10066000331FF2CF812F8368FD01E80FF11D8081D8
:10067000282F30E090E042E037FF02C0289A01C006
:10068000289885B1842785B99F5F903119F0220F92
:10069000331FF2CF812F8268FD01E80FF11D8081A9
:1006A000282F30E090E042E037FF02C0289A01C0D6
:1006B000289885B1842785B99F5F903119F0220F62
:1006C000331FF2CF812F8168FD01E80FF11D80817A
:1006D000282F30E090E042E037FF02C0289A01C0A6
:1006E000289885B1842785B99F5F903119F0220F32
:1006F000331FF2CF1068A10FB11D8C91282F30E06D
:1007000090E042E037FF02C0289A01C0289885B1E6
:10071000842785B99F5F903119F0220F331FF2CFE4
:1007200028988AE090E00E9404045F9890E021E01D
:1007300085B1822785B99F5F9830D1F79091970254
:100740008BB18F708BB92BB1892F8295807F822BD3
:100750008BB95F9A5A989F5F90939702983050F0A8
:100760001092970280919302909194029093960236
:10077000809395021F9108951F920F920FB60F92CA
:1007800011242F933F938F939F93AF93BF938091A7
:100790009C0290919D02A0919E02B0919F02309187
:1007A000A0020196A11DB11D232F2D5F2D3720F032
:1007B0002D570196A11DB11D2093A00280939C028C
:1007C00090939D02A0939E02B0939F028091980205
:1007D00090919902A0919A02B0919B020196A11D5D
:1007E000B11D8093980290939902A0939A02B093BE
:1007F0009B02BF91AF919F918F913F912F910F904D
:100800000FBE0F901F901895019739F0880F991F10
:10081000880F991F02970197F1F70895789484B58E
:10082000826084BD84B5816084BD85B5826085BDEC
:1008300085B5816085BDEEE6F0E0808181608083D2
:10084000E1E8F0E0108280818260808380818160B5
:100850008083E0E8F0E0808181608083E1EBF0E07C
:10086000808184608083E0EBF0E080818160808320
:10087000EAE7F0E080818460808380818260808309
:100880008081816080838081806880831092C10034
:10089000089508951F920F920FB60F9211242F936F
:1008A0003F934F938F939F93EF93FF934091C60095
:1008B0002091E1023091E2022F5F3F4F2F733070A1
:1008C0008091E3029091E4022817390759F0E091F2
:1008D000E102F091E202EF55FD4F40833093E202D6
:1008E0002093E102FF91EF919F918F914F913F9162
:1008F0002F910F900FBE0F901F901895E091350328
:10090000F0913603E05CFF4F81919191208131811C
:10091000821B930B8F739070892B11F00E944904F6
:1009200008951F920F920FB60F9211242F933F93A9
:100930004F935F936F937F938F939F93AF93BF93E7
:10094000EF93FF9320912503309126038091270395
:10095000909128032817390731F48091C1008F7DC9
:100960008093C10016C0E0912703F0912803EB515A
:10097000FD4F40818091270390912803019660E408
:1009800070E00E9491069093280380932703409380
:10099000C600FF91EF91BF91AF919F918F917F9191
:1009A0006F915F914F913F912F910F900FBE0F90DC
:1009B0001F901895AF92BF92DF92EF92FF920F9324
:1009C0001F93CF93DF93EC017A018B01DD2440303C
:1009D00081EE580780E0680780E0780711F0DD2499
:1009E000D39491E0A92EB12CEC89FD89DD2069F02A
:1009F000C5010E8C02C0880F991F0A94E2F780830C
:100A000060E079E08DE390E005C0108260E874E872
:100A10008EE190E0A80197010E94A4062150304089
:100A200040405040569547953795279580E12030B6
:100A3000380720F0DD2011F0DD24D6CFE889F989D0
:100A40003083EA89FB892083EE89FF89408121E098
:100A500030E0C9010A8C02C0880F991F0A94E2F79E
:100A6000482B4083EE89FF894081C9010B8C02C06D
:100A7000880F991F0A94E2F7482B4083EE89FF897B
:100A80004081C9010C8C02C0880F991F0A94E2F7BB
:100A9000482B4083EE89FF8980810D8C02C0220F94
:100AA000331F0A94E2F7209528232083DF91CF910A
:100AB0001F910F91FF90EF90DF90BF90AF9008953E
:100AC000DC011C96ED91FC911D97E05CFF4F21919C
:100AD000319180819181281B390B2F733070C901AE
:100AE0000895DC011C96ED91FC911D97E05CFF4F91
:100AF00020813181E054F040DF01AE5BBF4F8D912A
:100B00009C9111972817390719F42FEF3FEF07C071
:100B10008D919C91E80FF91F8081282F30E0C90149
:100B20000895DC011C96ED91FC911D97E05CFF4F50
:100B300020813181E054F040DF01AE5BBF4F8D91E9
:100B40009C9111972817390719F42FEF3FEF10C028
:100B50008D919C911197E80FF91F20818D919C91A7
:100B6000119701968F73907011969C938E9330E03D
:100B7000C9010895FC0186859785DC01A05CBF4F03
:100B8000FC01EE5BFF4F2D913C911197808191818B
:100B900028173907C1F70895CF93DF93EC01462F4B
:100BA000EE85FF85E05CFF4F80819181E054F0404D
:100BB000019660E470E00E9491069C01DF01AE5B4B
:100BC000BF4F8D919C91119728173907D1F3E05CA5
:100BD000FF4F80819181E054F040E80FF91F40837E
:100BE000EE85FF85E05CFF4F31832083EE89FF892E
:100BF000208181E090E00D8C02C0880F991F0A943B
:100C0000E2F7282B208381E090E0DF91CF910895D7
:100C100010922C0310922B0388EE93E0A0E0B0E03A
:100C200080932D0390932E03A0932F03B093300352
:100C300085E892E090932A038093290381EA92E069
:100C4000909336038093350385EE92E090933803BA
:100C50008093370385EC90E090933A0380933903B7
:100C600084EC90E090933C0380933B0380EC90E015
:100C700090933E0380933D0381EC90E0909340037A
:100C800080933F0386EC90E090934203809341036E
:100C900084E08093430383E08093440387E0809360
:100CA000450385E08093460381E0809347030895E0
:100CB000CF93DF930E940E040E94C000CEE7D4E0E1
:100CC0000E9483002097E1F30E947E04F9CFCF9227
:100CD000DF92EF92FF920F931F93CF93DF937C01EC
:100CE0006B018A01C0E0D0E00FC0D6016D916D01AB
:100CF000D701ED91FC910190F081E02DC70109959C
:100D0000C80FD91F015010400115110571F7CE0110
:100D1000DF91CF911F910F91FF90EF90DF90CF90D7
:100D2000089597FB092E07260AD077FD04D02ED010
:100D300006D000201AF4709561957F4F0895F6F75C
:100D4000909581959F4F0895A1E21A2EAA1BBB1B77
:100D5000FD010DC0AA1FBB1FEE1FFF1FA217B30787
:100D6000E407F50720F0A21BB30BE40BF50B661F9D
:100D7000771F881F991F1A9469F760957095809561
:100D800090959B01AC01BD01CF010895AA1BBB1B2F
:100D900051E107C0AA1FBB1FA617B70710F0A61B7B
:100DA000B70B881F991F5A95A9F780959095BC019C
:100DB000CD010895EE0FFF1F0590F491E02D0994E9
:040DC000F894FFCFD5
:100DC400000000000000000000000000000000001F
:100DD400000000000000000000000000000000000F
:100DE400000000FFFF000000000000000000000001
:100DF40000000000000000000000000000000000EF
:100E040000000000000000000000000000000000DE
:100E14000000000000000000000000FF00000000CF
:100E240000000000FF0000000000000000000000BF
:100E340000000000000000000000000000000000AE
:100E4400000000000000000000000000000000009E
:100E5400000000000000000000000000FF0000008F
:100E640000000000FF00000000000000000000007F
:100E7400000000000000000000000000000000006E
:100E8400000000000000000000000000000000005E
:100E9400000000000000000000000000000000004E
:100EA400000000FFFF000000000000000000000040
:100EB400000000000000000000000000000000002E
:100EC400000000000000000000000000000000001E
:100ED4000000000000000000000000FF000000000F
:100EE40000000000FF0000000000000000000000FF
:100EF40000000000000000000000000000000000EE
:100F040000000000000000000000000000000000DD
:100F1400000000000000000000000000FF000000CE
:100F240000000000FF0000000000000000000000BE
:100F340000000000000000000000000000000000AD
:100F44000100000000CC056706600591057105BA33
:020F5400050096
:00000001FF
