:100000000C94590C0C94810C0C94810C0C94810C64
:100010000C94810C0C94810C0C94810C0C94810C2C
:100020000C94810C0C94882C0C94810C0C94810CF5
:100030000C94810C0C94810C0C94810C0C94810C0C
:100040000C94D12F0C94810C0C9463300C94AA3036
:100050000C94810C0C94810C0C94810C0C94810CEC
:100060000C94810C0C94810C12121F122C12411250
:100070000C13631281128E12A312B41235133513AE
:100080003513351335133513C112CA12E112F212AA
:10009000FF120C131913221353147E14B114C41439
:1000A000DA144A15381541156A156D157015751550
:1000B00094159D15A615AF15B815C515D215E815DB
:1000C0007A158315FD1506164F144F144F144F144F
:1000D0004F144F144F144F144F144F144F144F1408
:1000E0004F144F144F144F144F144F144F144F14F8
:1000F0004F144F144F144F146D1676167F16881632
:1001000091169A16F7140F16AC1CB41CE31C001DB4
:10011000231D2B1D361D411D5E1D861DB31DA01CFC
:10012000271E791ECF1EFC1E011F0A1F0F1F141F42
:10013000191F1E1F221F391F341F2F1F2A1F3E1F6A
:10014000431F601FDA1CD01F9720B120EA207721BF
:1001500089219521E921EF21F5211B224B228022C3
:10016000BA22FB223923E423EB2313242C2450242A
:100170005724602469248224A624CE24D923372539
:100180008325D32549284928492849284928492829
:1001900049284928492849284928492849284928D7
:1001A000FC252D266826E026EC261C276C277427C4
:1001B0007F27C327C827CD27EF271B280000000073
:1001C00000000000100800000000000014280000DB
:1001D00000000000180000000000000018241800B3
:1001E000000000002810000000000000241800009B
:1001F000000000000000000000000008003F5589DA
:1002000089553F000000120AFE0A12000000C600D5
:10021000102844000000CE201008060000102844DA
:10022000EE28380000022242FE4020000014207C0C
:1002300024242400001C24742424240000A0C0CA08
:10024000AC0C0A000004081020408000001C1010B4
:1002500010D0301000F84420102044F800FC48482A
:1002600048484800000C10101010106000001028C2
:1002700028447C0000788484CC48CC000000FC48F2
:10028000484848000038043C444438000000005806
:10029000B468000000E0C8A4144438000000102036
:1002A000100078000000107C107C1000000020106E
:1002B000200078000000345800345800000000008E
:1002C0000000000000101010100010000024240096
:1002D000000000000048FC4848FC4800107884609A
:1002E000188478200060A8D02C541800006090601A
:1002F00094887400001010000000000008102020F6
:100300002020100820100808080810200010543879
:1003100054100000000010107C10100000000000BD
:1003200000002040000000007C00000000000000F1
:1003300000003000000408102040800000384444D1
:100340004444380000083808080808000038440809
:1003500010207C0000384418044438000008182895
:10036000487C0800007C407804443800003840781D
:1003700044443800007C0810102020000038443825
:1003800044443800003844443C0438000000003045
:1003900000003000000000300000102000000810B5
:1003A000201008000000007C007C000000002010ED
:1003B0000810200000384408100010000078849CC9
:1003C000A49C807000304884FC84840000F884F889
:1003D0008484F800007884808084780000F8848425
:1003E0008484F80000FC80F88080FC0000FC80F829
:1003F00080808000007884809C847C00008484FC61
:10040000848484000038101010103800001C080884
:1004100008887000008890A0D088840000808080C8
:100420008080FC000084CCB4848484000084C4A454
:10043000948C8400007884848484780000F8848418
:10044000F8808000007884848494780400F88484A0
:10045000F8888400007884601884780000FE10100A
:1004600010101000008484848484780000444428A0
:100470002810100000828292AA44440000442810F0
:1004800028448200008244281010100000FC08104C
:100490002040FC00382020202020203800804020F0
:1004A0001008040038080808080808381028000058
:1004B0000000000000000000000000FE1008000026
:1004C0000000000000003C44444C340000405864EC
:1004D00044447800000038444044380000043C4460
:1004E000444C3400000038447C403C00000C107C3C
:1004F0001010100000003C444C3444380040586454
:10050000444444001000701010107C0004000404E7
:1005100004244438004044487048440000701010DF
:1005200010107C000000EC9292929200000058643F
:1005300044444400000038444444380000005864F7
:100540004444784000003C44444C340400002E30C5
:1005500020202000000038403804780000107C1073
:1005600010100C0000004444444C3400000044448B
:100570002828100000008292AA4444000000442869
:1005800010284400000044444C34443800007C08E7
:1005900010207C000C1010601010100C10101010A7
:1005A00010101010601010100C1010603458000063
:1005B00000000000FEFEFEFEFEFEFEFE0038E440EF
:1005C000E04438000000102844281000000000001B
:1005D00000000818000C107C1010106000000000D3
:1005E00000001236000000000000920000107C1095
:1005F0007C10101000107C107C107C101028000063
:10060000000000000060A8D02F551E0028107C803C
:100610007804F8000000001020100000003E484E52
:1006200048483E0000404060C0407C002810FC0864
:100630003040FC000000701010107C0000002854B6
:1006400038542800001810000000000000081800AE
:1006500000000000003624000000000000123600F8
:10066000000000000000003838000000000000001A
:100670003800000000000000FF00000034580000B7
:100680000000000000F45C54000000002810384016
:100690003804780000000010081000000000344A00
:1006A0004E4836000070101830107C0028107C086E
:1006B00010207C00280044281010100000000000CA
:1006C00000000000001000101010100000081C2096
:1006D000201C0800003040F04044780000443828D6
:1006E00038440000004428107C1010001010100046
:1006F0000010101000304030483008302400000056
:1007000000000000007884B4A4B48478003C444C19
:1007100034007C0000000024482400000000000099
:100720007C040000000000007C000000007884B41D
:10073000A4A484787C0000000000000000182418A5
:10074000000000000000107C10007C003010180039
:100750000000000018081800000000000810000049
:1007600000000000000088888888F480006CE86839
:1007700028282828000000003000000000000000A9
:100780000000001008080800000000000038444481
:1007900038007C0000000048244800000044485015
:1007A000284C84000044485038488C0000C448D08D
:1007B000284C84000010001020443800201000381D
:1007C000447C440008100038447C44001028003861
:1007D000447C440034580038447C4400480030488D
:1007E000788484003048304878848400007C909C71
:1007F000F0909C0000788480808478102010FC8029
:10080000F880FC001020FC80F880FC003048FC8060
:10081000F880FC004800FC80F880FC0020103810B4
:100820001010380008103810101038001028381038
:10083000101038002800381010103800007844E4F8
:100840004444780068B000C4A4948C001008003CB4
:1008500042423C000810003C42423C001824003C4C
:1008600042423C003458003C42423C0048007884FC
:1008700084847800000044281028440000788C9478
:10088000A4C4780020108484848478001020848498
:10089000848478003048008484847800480084840C
:1008A0008484780008104428101010000080F88418
:1008B00084F8800000384458444458001008003C34
:1008C000444C34000810003C444C34001824003CD4
:1008D000444C34003458003C444C340024003C4424
:1008E000444C340010283C44444C340000006C124A
:1008F0007E906E0000003844404438102010003CC8
:1009000048503C000810003C48503C001028003C77
:1009100048503C00240038447C403C0020100070CB
:1009200010107C000810007010107C00102800705F
:1009300010107C004800701010107C00003A143C2D
:1009400044443800345800586444440020100038AF
:100950004444380008100038444438001028003857
:10096000444438003458003844443800280038449F
:1009700044443800000010007C0010000000384C97
:100980005464380020100044444C340008100044E3
:10099000444C340010280044444C340028004444A3
:1009A000444C3400081044444C34443800407844EB
:1009B00044447840280044444C34443800008400C7
:1009C0006C0040006000A400AE0000046A602E20AD
:1009D000E4A0A4204AE0AE8068A06AA0ACA0248075
:1009E0006C40E4E0EAA064C04AE0A4E00EA0C66067
:1009F0000EE082602CE0E4E086E0C6C600004040E5
:100A0000AA00EAE064C4A4A0CEE044006860C2C0CA
:100A1000E4A04E4000240E00004024804A404440A0
:100A2000C460C6C0AE2064C04660E2406660662016
:100A3000404020242C20E0E08680C2404E604EA042
:100A4000CEC06860CAC0ECE0EC806A60AEA0E4E0B2
:100A5000E4C0ACA088E0EEA0CAA04A40EE804A60A4
:100A6000ECA064C0E440AA40AE40AEE0A4A0A44024
:100A7000C460E8E08420E2E04A0000E084000E6008
:100A80004660046026600CE06E40066C8CA040401E
:100A900040C08EA0C4E00EE00CA0066006640662B2
:100AA000064006C04E400A600A400AE006600A4856
:100AB0000C606C604440C6C0C600EEE06E604A4008
:100AC00000246E48006C00A04E444EE44A00A4E0AE
:100AD00064C024206C6088E0C4600440EAE06400E4
:100AE0002600FA005F00EEE00E000F00C600EA00EC
:100AF00006C042400EF0C4E00C60A44000000404B4
:100B0000446468E0A4A0AE4040406EC0A000FB9FDB
:100B1000E6005A500E200E00F9BFE00066004E4E6F
:100B2000C600EC0024000AE8EE6004000004440063
:100B30006600A5A0A4A0A4A0A4A004864EA04EA0D8
:100B40004EA04EA04EA04EA06CE06864ECE0ECE03D
:100B5000ECE0ECE0E4E0E4E0E4E0E4E0CAC0CAA0F9
:100B60004A404A404A404A404A40A4A06AC0AA407B
:100B7000AA40AA40AA40A4408E806A800E600E60FF
:100B80000E600E600E600E600E7004640CE00CE0EF
:100B90000CE00CE04040404040404040E6600CA08B
:100BA000066006600660066006604E4007E00A6068
:100BB0000A600A600A600A4846640A4800000800A1
:100BC00008000800100008001800080020000800B5
:100BD0002800080030000800380008004000080025
:100BE000480008005000080058000A0062000A008F
:100BF0006C000A0076000C0082000C008E001000D1
:100C00009E001000AE001000BE001000CE001000CC
:100C1000DE001000EE001000FE0010000E011400B7
:100C2000220118003A0120005A0124007E01070029
:100C300085010D0092011A00AC01250000000000A2
:100C4000FFFFFFFF00000000FFFFFFFF0000FFFFAE
:100C50000000FFFF00FF00FF00FF00FF0000FFFF9C
:100C60000000FFFF00FF00FF00FF00FFFFFBF2DDC1
:100C700002000000FFFBDDFF0000800000FFFF001E
:100C80000000FFFF00FFFFFF000080FFFFFFFF00ED
:100C9000000080FF00FFFFFF00000080FFFF0099C1
:100CA000FFFFFF00008080FF800000FFFFFFFF804C
:100CB000FFFF0099FFFFFF00000080FF80FFFFFFA4
:100CC000FF80000000000080FFFF00000000AAAAD3
:100CD000AAAA55555555FFFFFFFF00000000AAAA1C
:100CE000AAAA55555555FFFFFFFF00000000808060
:100CF00080AA55000000FFFFFFFF00000000FFCCAE
:100D0000CCCC55003300FFFFFFFF00800080008047
:100D100000C080FF00FF00FF00FFFFFBFFDDF24788
:100D200000021F005690C08040000099FFFFFF8026
:100D3000000000000080FFFF80FFFFFFFFFFFF803B
:100D400000000000004080C0FFFF0099FFFFFFFF90
:100D5000FF8000000000004080C0FFFF80FFFFFF19
:100D6000FF808080C0FFFFFFFF00000080FF8080C9
:100D7000800000004080FFFFFF808080C0FFFFFFF9
:100D8000FFFFFF8000000000004080C0FFFF808068
:100D9000800000004080008080800000004080993A
:100DA000FFFFFFFFFF8000000000004080C0FFFF4A
:100DB00080FFFFFF808080C0FFFFFFFF00FF998062
:100DC000FFFF80FF00FFFF00FFFFFF99FF0000FF14
:100DD000FF008080FFFFFFFFC0009900FFFF80FF42
:100DE000FF00FF99FFFFFF800080FFFF99FFFFFFDB
:100DF000808080C0FFFFFFFFFFFF80000000000039
:100E00004080C0FFFF80808000000040800000FF25
:100E1000FF0000FFFF00FF00FF00FF00FF000000D9
:100E200000FFFFFFFF00000000FFFFFFFF00FF00CB
:100E3000FF00FF00FF0000FFFF0000FFFFFFF308BF
:100E400009AB800000FFF30964009F00000000FF71
:100E5000FFFF0000FF000080FFFF0000FF0080FF99
:100E6000FFFF000000000080FFFFFF000000FF0008
:100E7000660080FFFF000080FF80FF00FF00008011
:100E80000040FF00660080FFFFFF00000080FF00C1
:100E900080FFFFFFFFFF80000000000000AAAA0003
:100EA0000055AA5555FFFF5555FFFF0000AAAA009F
:100EB00000AAAA5555FFFF5555FFFF00008080008E
:100EC0000080AA5500FFFF0000FFFF0000CCCC000F
:100ED0000099CC5566FFCC0066FFFF0000808000C3
:100EE0000080C08000FFFF0000FFFFFFF3640908DF
:100EF0000000ABB7642C71C080400000660080FF2A
:100F0000FFFFFFFF800000000080FF004080C0FF67
:100F1000FFFFFFFF8000000000000000660040802F
:100F2000C0FFFFFFFFFF8000000000000080FF8087
:100F3000C0FFFFFF8080800080FFFFFF00000000F7
:100F40004080808000000080C0FFFFFF8080800024
:100F50004080C0FFFFFFFFFF800000000000000096
:100F60004080808000000000004080808000000001
:100F700066004080C0FFFFFFFFFF80000000000010
:100F8000008080C0FFFFFF808080FF800000FF6640
:100F900000FF0000FFFF00C00080FFFF6600FFFFB2
:100FA00000FF00FF0080FFFF0000006600FF0080E0
:100FB00000EE008066FFC0FF800080FFEE6680C00C
:100FC000FFFFFF808080004080C0FFFFFFFFFF80A9
:100FD000000000000000004080808000000000FF52
:100FE00000FF00FF00FF0000FFFF0000FFFF00FF09
:100FF00000FF00FF00FF0000FFFF0000FFFF0000F8
:101000000000FFFFFFFF00000000FFFFFFFFFF05E4
:101010008407EA12D300FF050703D300FF00000096
:101020000000FFFFFFFF0000000000FFFFFF0000C7
:101030000000FFFFFFFF0000000000FFFFFFFFFFB9
:10104000003300000000FFFF80FF8000FF000080F1
:1010500000FF00FF003300000000FFFFFFFF80FFE4
:10106000000000000080FFFFFFFFFF8000AA00AA31
:1010700000AA00AA55FF55FF55FF55FF00AA00AA78
:1010800000AA00AA55FF55FF55FF55FF00800080BC
:10109000008000AA55FF00FF00FF00FF00FF00CC0A
:1010A00000FF00CC55FF33FF99FF33FF0000000025
:1010B000808080C080000000FFFFFFFFFF05030766
:1010C00084A5D3EA1412053AC08040000033000022
:1010D00000000080FFFFFFFFFF8080FF0000000096
:1010E00000000080FFFFFFFFFFFFFF8000330000D4
:1010F000000000000080FFFFFFFFFFFFFF8080FF78
:1011000080808080FFFFFFFF00000000FFFFFFFFE7
:10111000000000008080808080808080FFFFFFFFD3
:101120000000000000000080FFFFFFFFFFFFFF80C6
:10113000000000008080808000000000008080802F
:1011400080330000000000000080FFFFFFFFFFFF72
:10115000FF808080808080FFFFFFFFFF0000FFFF97
:1011600033FF0000FF80008080FF00FF003300009D
:10117000008080FF00FF00FFFF00FF0033FF00FF43
:101180008000CC000033FF8000800080FFCC3380E3
:10119000808080FFFFFFFF0000000000000080FF54
:1011A000FFFFFFFFFFFF800000000080808080FFC6
:1011B000FFFFDD77110000FFFFDD7711000000FF6A
:1011C000DDFF1100000000DDAA1100000000007723
:1011D0001100000000001111000000000011770054
:1011E000000000001177EE000000001177EEFF0014
:1011F000000000000044BB000000000044BBFF00F2
:1012000000000044BBFFFF00000044BBFFFFFF00E5
:101210000044BBFFFFFFFF0044BBFFFFFFFFFF4495
:10122000BBFFFFFFFFFFFFBBFFFFFFFFFFFFDD0077
:1012300066EEFFFFFFFFFF66EEFFFFFFFFFFFFEE23
:10124000FFFFFFFFFFFFAAFFFFFFFFFFFFAA33FF24
:10125000FFFFFFFFAA3300FFFFFFAAAA330000FF32
:10126000FFFFAA33000000FFFFAA330000000000C8
:10127000FFFFFFFFFFFFFF00FFFFFFFFFFFFFF007C
:10128000FFFFFFFFFFFFFF00FFFFFFFFFFFFFF006C
:10129000FFFFFFFFFFFFFF00FFFFFFFFFFFFFF005C
:1012A000FFFFFFFFFFFFFF00FFFFFFFFFFFFFF004C
:1012B000000000000000000000000000000000002E
:1012C000000000000000000000000000000000001E
:1012D000000000000000000000000000000000000E
:1012E00000000000000000000000000000000000FE
:1012F00000000000000000000000000000000000EE
:1013000000000000000000000000000000000000DD
:1013100000000000000000000000000000000000CD
:1013200000000000000000000000000000000000BD
:1013300000000000000000000000000000000000AD
:10134000000000000000000000000000000000009D
:10135000000000000000000000000000000000008D
:10136000000000000000000000000000000000FF7E
:10137000FFFFDD77110000FFFFFFDD77110000FFA9
:10138000FFFFDD77110000FFFFFFDD77110000FF99
:10139000FFFFDD77110000FFFFFFDD77110000FF89
:1013A000FFFFDD77110000FFFFFFDD771100000078
:1013B000000000000000000000000000000000002D
:1013C000000000000000000000000000000000001D
:1013D000000000000000000000000000000000000D
:1013E000000000000000000000000000000000FFFE
:1013F000FFFFDD77110000FFFFDD7711000000FF28
:10140000DDFF1100000000DDAA11000000000077E0
:101410001100000000001111000000000011770011
:10142000000000001177EE000000001177EEFFFFD2
:10143000FFFFFFFFFF44BBFFFFFFFFFF44BBFF00B9
:1014400000000044BBFFFF00000044BBFFFFFF00A3
:101450000044BBFFFFFFFF0044BBFFFFFFFFFF4453
:10146000BBFFFFFFFFFFFFBBFFFFFFFFFFFFDD0035
:1014700066EEFFFFFFFFFF66EEFFFFFFFFFFFFEEE1
:10148000FFFFFFFFFFFFAAFFFFFFFFFFFFAA33FFE2
:10149000FFFFFFFFAA3300FFFFFFAAAA330000FFF0
:1014A000FFFFAA33000000FFFFAA3300000000FF87
:1014B000FFFFDD77110000FFFFDD7711000000FF67
:1014C000DDFF1100000000DDAA1100000000007720
:1014D0001100000000001111000000000011770051
:1014E000000000001177EE000000001177EEFFFF12
:1014F000FFFFFFFFFF44BBFFFFFFFFFF44BBFF00F9
:1015000000000044BBFFFF00000044BBFFFFFF00E2
:101510000044BBFFFFFFFF0044BBFFFFFFFFFF4492
:10152000BBFFFFFFFFFFFFBBFFFFFFFFFFFFDD0074
:1015300066EEFFFFFFFFFF66EEFFFFFFFFFFFFEE20
:10154000FFFFFFFFFFFFAAFFFFFFFFFFFFAA33FF21
:10155000FFFFFFFFAA3300FFFFFFAAAA330000FF2F
:10156000FFFFAA33000000FFFFAA3300000000FFC6
:10157000FFFFFFFF800000FFFFFFFF80000000FF74
:10158000FFFF8000000000FFFF800000000000FF60
:10159000800000000000408000000000004080004B
:1015A000000000004080C0000000004080C0FF003C
:1015B0004080C0FFFFFFFF4080C0FFFFFFFFFF80B4
:1015C000C0FFFFFFFFFF80C0FFFFFFFFFF8000FFA6
:1015D000FFFFFFFF800000FFFFFFFF80000000FF14
:1015E000FFFF8000000000FFFF80000000000000FF
:1015F0000000000000008000000000000080FF00EC
:101600000000000080FFFF0000000080FFFFFF00DF
:10161000000080FFFFFFFF000080FFFFFFFFFF00D3
:1016200080FFFFFFFFFFFF80FFFFFFFFFFFFFFFFC8
:10163000EEDDCCBBAA9988776655443322110000B1
:10164000000000000000000000000000000000009A
:10165000000000000000000000000000000000FF8B
:10166000EEDDCCBBAA998877665544332211000081
:10167000000000000000000000000000000000FF6B
:10168000EEDDCCBBAA998877665544332211000061
:10169000000000000000000000000000000000FF4B
:1016A000EEDDCCBBAA998877665544332211000041
:1016B000000000000000000000000000000000002A
:1016C000000000000000000000000000000000FF1B
:1016D000EEDDCCBBAA99887766554433221100FF12
:1016E000EEDDCCBBAA998877665544332211000001
:1016F00000FFFFFFFF000000FFFF0000FFFF00FFF3
:10170000FF00000000FFFFFF000000000000FF00DE
:1017100000000000000000FFFFFF0000000000FFCD
:10172000FF000000000000FF00FF000000000000BC
:10173000000000000000000000FFFFFFFF000000AD
:10174000FFFF0000FFFF0000FF00000000FF00009F
:1017500000000000000000000000FFFF000000008B
:1017600000FF00FF000000000000FFFF000000007D
:101770000000000000000000000000000000000069
:101780000000FFFF0000000000FF0000FF0000005D
:10179000000000000000000000000000FFFF00004B
:1017A00000000000FFFFFF0000000000FFFF00003E
:1017B000000000010000000200000003000000041F
:1017C00000000005000000060000000700000008FF
:1017D000000000090000000A0000000B0000000CDF
:1017E0000000000D0000000E0000000F00000010BF
:1017F0000000001200000014000000160000001895
:101800000000001A0000001C0000001E0000002064
:101810000000002200000024000000260000002834
:101820000000002A0000002C0000002E0000003004
:1018300000000034000000380000003C00000040C0
:1018400000000044000000480000004C0000005070
:1018500000000054000000580000005C0000006020
:1018600000000064000000680000006C00000070D0
:101870000000007800000080000000880000009058
:1018800000000098000000A0000000A8000000B0C8
:10189000000000B8000000C0000000C8000000D038
:1018A000000000E0000000F0000000000100000067
:1018B000213211241FBECFEFD8E0DEBFCDBF14E030
:1018C000A0E0B1E0E2E8F6E602C005900D92A0319A
:1018D000B107D9F717E0A0E1B4E001C01D92A13A29
:1018E000B107E1F718E1C2EBD8E104C02297FE018D
:1018F0000E943B33C03BD107C9F70E9471320C9460
:101900003F330C9400000F938F73E4E1F4E0E80F91
:10191000F11D6083E05CFF4F4083E05CFF4F20835C
:10192000E05CFF4F00830F910895E4E1F5E0E80FDC
:10193000F11D608308950F931F93062F8823D1F024
:10194000F8940E94193060931004709311048093EE
:1019500012049093130478942AE030E040E050E0C1
:101960000E94FC322093100430931104409312041F
:10197000509313046091100470911104809112042B
:10198000909113040F7310E00C5E1B4F00541F4F17
:10199000F801208130E040E050E00E94FC32B901C3
:1019A000CA0100541040F8012081620F711D811D91
:1019B000911D00541040F80120810054104030E087
:1019C00040E050E00E94FC329B01AC01F8018081B4
:1019D000280F311D411D511D30702C5E3A4FF90109
:1019E00080811F910F910895EF92FF920F931F93A3
:1019F0007B018C0120E931E040E050E00E941E3381
:101A00006115710581059105E9F0C801B70124E66A
:101A100030E040E050E00E941E3361157105810501
:101A2000910511F480E00FC080E023E030E040E059
:101A300050E0E222F32204231523E114F10401050E
:101A4000110509F481E01F910F91FF90EF90089527
:101A50002F923F924F925F926F927F928F929F92BE
:101A6000AF92BF92CF92DF92EF92FF920F931F93AC
:101A700060904706709048068090490690904A060C
:101A80004AE7E42E41E0F42E012D112DE618F70867
:101A90000809190960914B0670914C0680914D061A
:101AA00090914E066C5F7F4F8F4F9F4F27E030E045
:101AB00040E050E00E941E33E60EF71E081F191F7B
:101AC000C801B70127E030E040E050E00E941E333B
:101AD0005B016C0185E0A816B104C104D10454F483
:101AE00036E0232E312C412C512C2A0C3B1C4C1C53
:101AF0005D1C07C015012601089421083108410822
:101B00005108620C731C841C951CC401B30127E0AE
:101B100030E040E050E00E941E3379018A01370135
:101B2000480160915306709154068091550690913A
:101B300056066D5F7F4F8F4F9F4F620D731D841D43
:101B4000951D27E030E040E050E00E941E33621611
:101B500073068406950634F021E0622E712C812CE8
:101B6000912C59C01E141F04100611060CF453C00A
:101B700060913B0670913C0680913D0690913E0637
:101B80006F54784F8F4F9F4F0E94F40C882339F485
:101B90009DE6E92E91E0F92E012D112D06C08EE66D
:101BA000E82E81E0F82E012D112D8AE791E0A0E0CA
:101BB000B0E0A80EB91ECA1EDB1EAE18BF08C00AD0
:101BC000D10AC601B50127E030E040E050E00E94B4
:101BD0001E339B01AC0125303105410551053CF414
:101BE000CA01B9016A5F7F4F8F4F9F4F06C0CA017C
:101BF000B90161507040804090406E0D7F1D801F84
:101C0000911F27E030E040E050E00E941E33C90100
:101C1000DA013C014D01B301C4011F910F91FF9006
:101C2000EF90DF90CF90BF90AF909F908F907F907C
:101C30006F905F904F903F902F900895AF92BF921A
:101C4000CF92DF92EF92FF920F931F93A0904306E3
:101C5000B0904406C0904506D09046065AE2E52E64
:101C6000F12C012D112DEA18FB080C091D096091BA
:101C70004B0670914C0680914D0690914E066C5F1C
:101C80007F4F8F4F9F4F27E030E040E050E00E94B1
:101C90001E33E60EF71E081F191FC801B70127E003
:101CA00030E040E050E00E941E339B01AC01253043
:101CB0003105410551053CF4CA01B9016A5F7F4F06
:101CC0008F4F9F4F06C0CA01B901615070408040DC
:101CD00090406A0D7B1D8C1D9D1D27E030E040E08B
:101CE00050E00E941E33CA01B9011F910F91FF906D
:101CF000EF90DF90CF90BF90AF90089560931A0659
:101D000070931B0680931C0690931D061092180674
:101D10001092190608956093140670931506809327
:101D20001606909317061092180610921906089539
:101D3000AF92BF92CF92DF92EF92FF920F931F93D9
:101D4000F8940E9419305B016C017894E0902B06A6
:101D5000F0902C0600912D0610912E06E114F1044E
:101D600001051105F9F01E141F04100611065CF49C
:101D7000A80197010E94FC32C901DA01A80EB91E20
:101D8000CA1EDB1E0FC022273327A9012E193F09C7
:101D9000400B510B0E94FC32C901DA01A81AB90AA2
:101DA000CA0ADB0AB501C6011F910F91FF90EF909F
:101DB000DF90CF90BF90AF900895EF92FF920F9376
:101DC0001F93E82F80911E06882309F44FC04E2FE1
:101DD000592FCB01DA01209123063091240640913E
:101DE00025065091260604C08050944AA94DBA4F4A
:101DF000B901FA012150304040405040B7FDF4CFC6
:101E00007C018D01CB01DF0108C020E034EA49EDFF
:101E10005AEFE20EF31E041F151F9C01AD0101963F
:101E2000A11DB11D60E0E6166CE5F60666E2060748
:101E300065E0160754F72093230630932406409359
:101E4000250650932606E0921F06F0922006009386
:101E50002106109322060E94980E60932706709325
:101E600028068093290690932A064DC04E2F592F9D
:101E7000CB01DA0120E030E040E050E004C08050C7
:101E8000944AA94DBA4FB901FA012150304040405F
:101E90005040B7FDF4CF7C018D01CB01DF0108C0BC
:101EA00020E034EA49ED5AEFE20EF31E041F151F3D
:101EB0009C01AD010196A11DB11D60E0E6166CE527
:101EC000F60666E2060765E0160754F72093230638
:101ED000309324064093250650932606E0921F0671
:101EE000F092200600932106109322060E94980E7D
:101EF00060932706709328068093290690932A06FC
:101F000081E080931E0610921806109219061F9108
:101F10000F91FF90EF900895EF92FF920F931F9310
:101F200080911E06882309F460C00E94980E2091BB
:101F30002706309128064091290650912A066217FB
:101F400073078407950709F471C062177307840744
:101F5000950730F4E1E0EE2EF12C012D112D06C095
:101F60007B018C01E21AF30A040B150B6093270620
:101F7000709328068093290690932A0620911F06C5
:101F80003091200640912106509122062E0D3F1DD2
:101F9000401F511F8091230690912406A091250691
:101FA000B091260604C020503C4546425540BC0135
:101FB000FD010196A11DB11D20301CE5310716E27F
:101FC000410715E051077CF76093230670932406C0
:101FD000E0932506F093260620931F0630932006F3
:101FE00040932106509322061DC0109223061092A2
:101FF0002406109225061092260610921F061092B3
:10200000200610922106109222060E94980E6093DC
:102010002706709328068093290690932A0681E06C
:1020200080931E0610921806109219061F910F91A8
:10203000FF90EF900895882321F480911E06882355
:1020400011F40E948C0F60911F0670912006809100
:102050002106909122060895882321F480911E067E
:10206000882311F40E948C0F60912306709124063E
:1020700080912506909126060895EF92FF920F9386
:102080001F9380911E06882311F40E948C0FE0900C
:102090001A06F0901B0600911C0610911D068091F7
:1020A0001F0690912006A0912106B0912206E80E0D
:1020B000F91E0A1F1B1F8091140690911506A0910E
:1020C0001606B0911706E80EF91E0A1F1B1F809115
:1020D000230690912406A0912506B091260608C0FB
:1020E00020E03CE546E255E0E20EF31E041F151F1A
:1020F000BC01FD010197A109B10917FDF1CFCB0189
:10210000DF01A801970104C020503C4546425540DC
:10211000BC01FD010196A11DB11D20301CE5310758
:1021200016E2410715E051077CF760933306709380
:102130003406E0933506F093360620932F0630934D
:102140003006409331065093320681E080931806A2
:10215000109219061F910F91FF90EF9008954F92E2
:102160005F926F927F929F92AF92BF92CF92DF92D7
:10217000EF92FF920F931F93962E882321F4809164
:102180001E06882311F40E948C0F26E0921609F493
:10219000EBC0291528F132E0931609F483C03915F4
:1021A00038F09920D9F141E0941609F025C153C0C7
:1021B00054E0951609F4ACC0E0902306F090240694
:1021C000009125061091260660911F067091200649
:1021D0008091210690912206591508F4B6C089C055
:1021E0006CE2961609F4E4C0691560F08AE298166C
:1021F00009F4CCC0891508F4D2C097E0991609F00B
:10220000FBC0BBC0AEE29A1609F4E4C09A1608F40B
:10221000D8C0BFE29B1609F0EFC0E5C0609123066D
:1022200070912406809125069091260620E03CE5D9
:1022300046E255E00E94AA325B016C0180911F06C4
:1022400090912006A0912106B0912206A80EB91EF9
:10225000CA1EDB1E82C520911F06309120064091C8
:10226000210650912206CA01B901660F771F881F07
:10227000991F620F731F841F951F22E330E040E017
:1022800050E00E941E3359016A016091230670914B
:102290002406809125069091260620E03AE14FE43D
:1022A00050E020C060911F067091200680912106A9
:1022B00090912206660F771F881F991F2DE730E047
:1022C00040E050E00E941E3359016A0160912306EC
:1022D00070912406809125069091260620E038E131
:1022E00045E150E00E94AA32A60EB71EC81ED91EB4
:1022F00034C528EE33E040E050E00E941E3359011F
:102300006A01C801B70120E831E541E050E0EACFB9
:1023100060911F06709120068091210690912206FF
:1023200020E63AEE40E050E00E941E3359016A0177
:1023300060912306709124068091250690912606CF
:1023400020EA35E040E050E0CDCF20E83EEE46E325
:1023500050E00E941E3359016A01C801B70128E10B
:1023600030E040E050E0BECFA0902306B0902406BD
:10237000C0902506D0902606F0C460912306709187
:102380002406809125069091260664C160911A0664
:1023900070911B0680911C0690911D0638C16091BA
:1023A0001A0670911B0680911C0690911D0622C191
:1023B000A0901A06B0901B06C0901C06D0901D0677
:1023C000CCC4609114067091150680911606909108
:1023D00017061DC1609114067091150680911606AE
:1023E0009091170607C1A0901406B0901506C090F2
:1023F0001606D0901706B1C480911806882311F4F0
:102400000E943D10892D90E0FC01B097E831F10564
:1024100008F02BC1EC5CFF4FEE0FFF1F0590F4910D
:10242000E02D099460912F0670913006809131065D
:102430009091320620E03EE243E952E00FC1609104
:102440002F0670913006809131069091320620E07F
:102450003EE243E952E063C360912F06709130067B
:10246000809131069091320620E83EEE46E350E03E
:102470000E941E33CA01B9012CE030E040E050E078
:10248000A1C360912F067091300680913106909122
:10249000320620E83EEE46E350E00E941E33CA01B9
:1024A000B9012CE030E040E050E00E941E33AC0166
:1024B000CB01DA015C016D01A114B104C104D104A6
:1024C00009F446C44AC460912F0670913006809189
:1024D00031069091320620E83EEE46E350E00E943D
:1024E0001E33C901DA015C016D01A114B104C104FC
:1024F000D10409F032C4F8E1AF2EB12CC12CD12C9B
:102500002CC460912F067091300680913106909115
:10251000320620E63AEE40E050E00CC060912F0613
:1025200070913006809131069091320628EE33E0AA
:1025300040E050E00E941E33CA01B9012CE330E0B4
:1025400040E050E03FC360912F06709130068091CB
:1025500031069091320628EE33E040E050E00E94D0
:102560001E339B01AC0120C060912F067091300694
:10257000809131069091320628EE33E040E050E041
:1025800021C3A0902F06B0903006C0903106D090A5
:102590003206E3C320912F06309130064091310678
:1025A00050913206CA01B901660F771F881F991F23
:1025B000620F731F841F951F22E330E040E050E05C
:1025C0004DC060912F067091300680913106909138
:1025D0003206660F771F881F991F2DE730E040E015
:1025E00050E03CC060912F0670913006809131061A
:1025F0009091320628EE33E040E050E02FC0609129
:102600002F0670913006809131069091320620E6B7
:102610003AEE40E050E022C060912F067091300603
:10262000809131069091320620E83EEE46E350E07C
:1026300015C0A0903306B0903406C0903506D090F7
:1026400036068BC36091330670913406809135064F
:102650009091360627E030E040E050E00E941E33C3
:10266000C901DA015C016D0178C3809119068823E4
:1026700009F006C180911806882311F40E943D10CC
:10268000209133063091340640913506509136063C
:1026900080E090E0A0E0B0E004C02F54354C4D4FF6
:1026A0005F4FBC01FD010197A109B10957FDF5CFAD
:1026B00059016A01CB01DF0108C02FE435EC4DEF71
:1026C0005FEFA20EB31EC41ED51E860175019C01CC
:1026D000AD010196A11DB11D61EBA6166AE3B60618
:1026E00062E0C60660E0D60644F7209337063093D2
:1026F00038064093390650933A06A0924B06B092A2
:102700004C06C0924D06D0924E068DE691E0A0E0B8
:10271000B0E0AA24BB2465011CC0E81AF90A0A0B20
:102720001B0BC601B5016D54784F8F4F9F4F0E9410
:10273000F40C882329F48DE691E0A0E0B0E004C019
:102740008EE691E0A0E0B0E00894A11CB11CC11C91
:10275000D11CE816F9060A071B07FCF6A0923B06F7
:10276000B0923C06C0923D06D0923E06809353063E
:1027700090935406A0935506B0935606E0924706F0
:10278000F09248060093490610934A0682EB482EC1
:1027900087E0582E612C712C4A0C5B1C6C1C7D1C34
:1027A0008FE190E0A0E0B0E0AA24BB24650147C01F
:1027B000E81AF90A0A0B1B0B0894A11CB11CC11CD6
:1027C000D11C85E0A816B104C104D10421F196E022
:1027D000A916B104C104D1046CF4A1E0AA16B10495
:1027E000C104D104E9F0B3E0AB16B104C104D104D3
:1027F00069F411C028E0A216B104C104D10459F053
:102800003AE0A316B104C104D10429F08FE190E0AD
:10281000A0E0B0E014C08EE190E0A0E0B0E00FC016
:10282000C301B2010E94F40C882329F48CE190E0EA
:10283000A0E0B0E004C08DE190E0A0E0B0E0E816D8
:10284000F9060A071B070CF0B3CFA0923F06B0921F
:102850004006C0924106D092420680934F06909364
:102860005006A0935106B0935206E0924306F092B0
:102870004406009345061093460681E080931906AE
:10288000892D90E0FC013897E833F10540F4E45BD2
:10289000FF4FEE0FFF1F0590F491E02D0994AA243D
:1028A000BB2465015AC2AA24BB246501E0903B0603
:1028B000F0903C0600913D0610913E0682EB97E0B9
:1028C000A0E0B0E0E80EF91E0A1F1B1F609137065A
:1028D000709138068091390690913A0620E931E0EE
:1028E00040E050E00E94AA32E60EF71E081F191FB2
:1028F0001E141F041006110644F12FC2E0903B067F
:10290000F0903C0600913D0610913E0622EB37E028
:1029100040E050E0E20EF31E041F151F60913706E1
:10292000709138068091390690913A0620E931E09D
:1029300040E050E00E94AA32E60EF71E081F191F61
:102940001E141F041006110634F011E0A12EB12C44
:10295000C12CD12C02C2B2E0AB2EB12CC12CD12C97
:10296000FCC160913B0670913C0680913D069091C0
:102970003E066E54784F8F4F9F4F0E94F40CA82E46
:10298000BB24CC24DD24E9C160913B0670913C0658
:1029900080913D0690913E066E54784F8F4F9F4F29
:1029A0000E94F40C90E001965C01CC24B7FCC0942A
:1029B000DC2CD3C1A0903B06B0903C06C0903D06F5
:1029C000D0903E0682EB97E0A0E0B0E0A80EB91EE2
:1029D000CA1EDB1E60913706709138068091390659
:1029E00090913A0620E931E040E050E07BCCA090A5
:1029F0003B06B0903C06C0903D06D0903E0622EBD0
:102A000037E040E050E0A20EB31EC41ED51E609118
:102A10003706709138068091390690913A0620E980
:102A200031E040E050E00E94AA32A60EB71EC81E58
:102A3000D91E80913F0690914006A0914106B09129
:102A400042060097A105B10509F097C10E94280D23
:102A50006B317105810591050CF47FC138C10E946D
:102A6000280D6A317105810591050CF076C16AC1A6
:102A7000A0903F06B0904006C0904106D09042061C
:102A80006CC1A0903F06B0904006C0904106D09027
:102A9000420658C1A0903F06B0904006C090410643
:102AA000D09042063BE0A316B104C104D10409F062
:102AB00054C160912F06709130068091310690913B
:102AC000320628EE33E040E050E00E941E3320FD45
:102AD0003FC143C10E94280D05C00E94280D07C0B8
:102AE0000E941E0E5B016C01F2C00E941E0E5B0173
:102AF0006C0133C160914306709144068091450694
:102B000090914606A7CD609143067091440680914E
:102B100045069091460627E030E040E050E00E94F4
:102B20001E3359016A010EC1A0904306B0904406BD
:102B3000C0904506D090460610C1A0904306B090C4
:102B40004406C0904506D0904606FCC0A0904706BB
:102B5000B0904806C0904906D0904A06FEC0A090AA
:102B60004706B0904806C0904906D0904A06EAC091
:102B700060914B0670914C0680914D0690914E06E7
:102B80006C5F7F4F8F4F9F4F19C060914B067091C4
:102B90004C0680914D0690914E066C5F7F4F8F4F93
:102BA0009F4F22C060914B0670914C0680914D065C
:102BB00090914E066D5F7F4F8F4F9F4F27E030E023
:102BC00040E050E00E941E33AC01CB01DA014ACD57
:102BD00060914B0670914C0680914D0690914E0687
:102BE0006D5F7F4F8F4F9F4F27E030E040E050E018
:102BF0000E941E335B016C01A5C0A0904F06B090EF
:102C00005006C0905106D0905206A7C0A09053061F
:102C1000B0905406C0905506D09056069EC0AAE7C4
:102C2000EA2EA1E0FA2E012D112D809147069091F8
:102C30004806A0914906B0914A06E81AF90A0A0B1B
:102C40001B0B60914B0670914C0680914D06909144
:102C50004E066C5F7F4F8F4F9F4F27E030E040E084
:102C600050E00E941E33E60EF71E081F191FC80110
:102C7000B70127E030E040E050E00E941E339B01A6
:102C8000AC0125303105410551052CF42A5F3F4F39
:102C90004F4F5F4F04C02150304040405040609142
:102CA00053067091540680915506909156066D5FBB
:102CB0007F4F8F4F9F4F620F731F841F951F27E019
:102CC00030E040E050E00E941E3359016A01089450
:102CD000A108B108C108D10840C0A0903706B09043
:102CE0003806C0903906D0903A0637C0A090370613
:102CF000B0903806C0903906D0903A0623C0A09014
:102D00003B06B0903C06C0903D06D0903E0625C0E4
:102D1000A0903B06B0903C06C0903D06D0903E0689
:102D200011C0A0904B06B0904C06C0904D06D090BC
:102D30004E0613C0A0904B06B0904C06C0904D06B6
:102D4000D0904E060894A11CB11CC11CD11C05C01A
:102D5000FCE0AF2EB12CC12CD12CB501C6011F91C6
:102D60000F91FF90EF90DF90CF90BF90AF909F902A
:102D70007F906F905F904F9008950B97A105B105DC
:102D800061F76DCE9B01AC0180911E06882399F0FE
:102D9000209323063093240640932506509326065D
:102DA0000E94980E60932706709328068093290648
:102DB00090932A061DC02093230630932406409347
:102DC00025065093260610921F0610922006109298
:102DD0002106109222060E94980E60932706709397
:102DE00028068093290690932A0681E080931E0688
:102DF00010921806109219060895EF92FF920F9301
:102E00001F9379018A01AC01CB01DA0108C020E0EF
:102E10003CE546E255E0E20EF31E041F151FBC011F
:102E2000FD010197A109B10917FDF1CFCB01DF0128
:102E300008C020E034EA49ED5AEFE20EF31E041F09
:102E4000151F9C01AD010196A11DB11D60E0E616A4
:102E50006CE5F60666E2060765E0160754F7209370
:102E60002306309324064093250650932606E092CD
:102E70001F06F092200600932106109322060E945E
:102E8000980E6093270670932806809329069093E6
:102E90002A0681E080931E061092180610921906E9
:102EA0001F910F91FF90EF9008956F927F928F92F4
:102EB0009F92AF92BF92CF92DF92EF92FF920F93C9
:102EC0001F933701480179018A01AC01CB01DA0176
:102ED00008C020E03CE546E255E0E20EF31E041F88
:102EE000151FBC01FD010197A109B10917FDF1CF23
:102EF000CB01DF0108C020E034EA49ED5AEFE20ED1
:102F0000F31E041F151F9C01AD010196A11DB11DEB
:102F100060E0E6166CE5F60666E2060765E0160771
:102F200054F72093230630932406409325065093AC
:102F30002606E0921F06F0922006009321061093C9
:102F4000220660921A0670921B0680921C069092CE
:102F50001D06A0921406B0921506C0921606D092D5
:102F600017060E94980E6093270670932806809398
:102F7000290690932A0681E080931E061092180677
:102F8000109219061F910F91FF90EF90DF90CF9054
:102F9000BF90AF909F908F907F906F9008956093B7
:102FA0002B0670932C0680932D0690932E060E947C
:102FB000980E6093270670932806809329069093B5
:102FC0002A060895EF920F93DC016830C0F5660F72
:102FD000660F660F30E0932F962BFD01E90FF11D70
:102FE00081818083892F8064FD01E80FF11D81813B
:102FF0008083892F8068FD01E80FF11D8181808326
:10300000906CFD01E90FF11D818180833F5F3730B6
:1030100011F7862F8760FD01E80FF11D4083862F91
:103020008764FD01E80FF11D2083862F8768FD016D
:10303000E80FF11D0083676CA60FB11DEC920F9194
:10304000EF900895EF920F93CF93DF93EC016830E8
:10305000F0F4862F880F880F880FAE01480F511D9E
:10306000982F90649E01290F311D982F9068DE01E2
:10307000A90FB11D806CFE01E80FF11DCE01EA0120
:103080004881E90128810C91E0800E94E217DF91DC
:10309000CF910F91EF900895EF920F93DC0168307C
:1030A000C8F5660F660F660F37E0932F962BFD016C
:1030B000E90FF11D829131968083892F8064FD0193
:1030C000E80FF11D829131968083892F8068FD0180
:1030D000E80FF11D829131968083906CFD01E90F1C
:1030E000F11D8291319680833150F9F6FD01E60F92
:1030F000F11D4083862F8064FD01E80FF11D2083C0
:10310000862F8068FD01E80FF11D0083606CA60F1B
:10311000B11DEC920F91EF900895EF920F931F93D2
:10312000CF93DF93EC01683028F5862F992787FD30
:10313000909523E0880F991F2A95E1F7282F2760A3
:10314000AE01420F511D282F27648E01020F111D61
:10315000282F2768DE01A20FB11D876CFE01E80F42
:10316000F11DCE01EA014881E80128810C91E0803F
:103170000E944C18DF91CF911F910F91EF9008950D
:10318000EF920F93DC01522F6830F0F520E030E031
:10319000C90173E0880F991F7A95E1F7962F982B54
:1031A000FD01E90FF11D80858083892F8064FD0179
:1031B000E80FF11D80858083892F8068FD01E80F6D
:1031C000F11D80858083906CFD01E90FF11D8085E4
:1031D00080832F5F3F4F27303105D1F6862F8863DC
:1031E000FD01E80FF11D4083862F8867FD01E80F80
:1031F000F11D5083862F886BFD01E80FF11D0083C0
:10320000686FA60FB11DEC920F91EF900895EF92A9
:103210000F93CF93DF93EC016830D8F4AC01460FE5
:10322000511D862F80649E01280F311D862F8068D6
:10323000DE01A80FB11D862F806CFE01E80FF11D85
:10324000CE01EA014881E90128810C91E0800E94C9
:10325000C018DF91CF910F91EF900895EF920F93E7
:10326000DC01522F683008F043C027E030E0C9018C
:10327000E3E0880F991FEA95E1F7962F982BFD015F
:10328000E90FF11D3897808138968083892F8064FB
:10329000FD01E80FF11D3897808138968083892FD2
:1032A0008068FD01E80FF11D389780813896808392
:1032B000906CFD01E90FF11D38978081389680836D
:1032C00021503040222399F6FD01E60FF11D408385
:1032D000862F8064FD01E80FF11D5083862F8068E2
:1032E000FD01E80FF11D0083606CA60FB11DEC928B
:1032F0000F91EF900895EF920F93CF93DF93EC012E
:103300006830E8F4862F8863AE01480F511D862F80
:1033100088679E01280F311D862F886BDE01A80F5C
:10332000B11D862F886FFE01E80FF11DCE01EA0165
:103330004881E90128810C91E0800E942E19DF91DB
:10334000CF910F91EF9008951F93AC01683008F072
:103350003FC0660F660F660F70E017E0272F262B21
:10336000972F9127962BDA01A20FB11D3C91FA01FC
:10337000E90FF11D80818C933083822F8064DA0104
:10338000A80FB11D3C91892F8064FA01E80FF11D4F
:1033900080818C933083822F8068DA01A80FB11D61
:1033A0003C91892F8068FA01E80FF11D80818C9390
:1033B0003083206CDA01A20FB11D2C91906CFA01C0
:1033C000E90FF11D80818C9320837F5F743031F68B
:1033D0001F9108950F931F93AC01162F683008F0CA
:1033E00049C060E070E007E0CB01F3E0880F991F6F
:1033F000FA95E1F7212F282B962F9027990F990FF7
:10340000990F912BDA01A20FB11D3C91FA01E90F3E
:10341000F11D80818C933083822F8064DA01A80FA4
:10342000B11D3C91892F8064FA01E80FF11D808164
:103430008C933083822F8068DA01A80FB11D3C91F4
:10344000892F8068FA01E80FF11D80818C93308309
:10345000206CDA01A20FB11D2C91906CFA01E90FDA
:10346000F11D80818C9320836F5F7F4F64307105E5
:1034700009F0BACF1F910F9108958F929F92AF924A
:10348000BF92CF92DF92EF92FF920F931F93CF9351
:10349000DF937C01862EC22EC0E0D0E0A42EBB2498
:1034A000A7FCB09432C0102F180D17701929F7011E
:1034B000E10FF11D10828C2D60E04D2D202F0E9418
:1034C000D528912F9064F701E90FF11D80838C2D91
:1034D00061E04D2D202F0E94D528912F9068F70193
:1034E000E90FF11D80838C2D62E04D2D202F0E946D
:1034F000D528106CF701E10FF11D80830F5F0830B4
:1035000091F62196C830D10561F0DC2ECE018A0DEE
:103510009B1D87709070982E990C990C990C00E067
:10352000C2CFDF91CF911F910F91FF90EF90DF906D
:10353000CF90BF90AF909F908F9008952F923F9221
:103540004F925F926F927F928F929F92AF92BF92B3
:10355000CF92DF92EF92FF920F931F93CF93DF935F
:103560006C01362E822E642E772467FC70945301F2
:10357000C0E0D0E0462E552447FC50949C2ECE014E
:10358000860D971D28E0A216B104D0F5282E220C36
:10359000220C220C720100E088E0E816F10450F5DC
:1035A000102F130D1229F601E10FF11D1082882D45
:1035B00060E0492D202F0E94D528912F9064F601BC
:1035C000E90FF11D8083882D61E0492D202F0E9495
:1035D000D528912F9068F601E90FF11D8083882D81
:1035E00062E0492D202F0E94D528106CF601E10FD2
:1035F000F11D80830F5F0894E11CF11C083061F617
:1036000021960894A11CB11CC830D10509F0B6CF91
:10361000DF91CF911F910F91FF90EF90DF90CF90AE
:10362000BF90AF909F908F907F906F905F904F90E2
:103630003F902F9008952F923F924F925F926F92FA
:103640007F928F929F92AF92BF92CF92DF92EF9232
:10365000FF920F931F93DF93CF9300D00F92CDB7BC
:10366000DEB75C01762E2983202E3E2C6C2CC42ED6
:10367000DD24C7FCD09476011B821A82862E992401
:1036800087FC9094A0E84A2E512C0A811B810C0DD6
:103690001D1D88E0E816F104D8F589816A810E9431
:1036A0005928A02FAA0FAA0FAA0FA40120E030E0EA
:1036B000682F70E04830510520F5F201022E02C05B
:1036C000F595E7950A94E2F7CF0186239723892B96
:1036D000C1F0872D820F8A2BF501E80FF11D1082B2
:1036E000982F9064F501E90FF11D2082982F9068C2
:1036F000F501E90FF11D3082806CF501E80FF11D35
:1037000060822F5F3F4F4F5F5F4F2830310591F64A
:103710008A819B8101969B838A830894E11CF11C1A
:10372000089709F0B2CF0F900F900F90CF91DF91D3
:103730001F910F91FF90EF90DF90CF90BF90AF90CF
:103740009F908F907F906F905F904F903F902F90C1
:1037500008952F923F924F925F926F927F928F9235
:103760009F92AF92BF92CF92DF92EF92FF920F9310
:103770001F93DF93CF9300D00F92CDB7DEB75C01DC
:10378000762E2983202E3E2C6C2CC42EDD24C7FCE3
:10379000D09476011B821A82862E992487FC9094FD
:1037A000B0E84B2E512C0A811B810C0D1D1D88E0A9
:1037B000E816F104D8F589816A810E946828A02F53
:1037C000AA0FAA0FAA0FA40120E030E0682F70E032
:1037D0004830510520F5F201022E02C0F595E7951B
:1037E0000A94E2F7CF0186239723892BC1F0872D16
:1037F000820F8A2BF501E80FF11D1082982F90643B
:10380000F501E90FF11D2082982F9068F501E90F6D
:10381000F11D3082806CF501E80FF11D60822F5F91
:103820003F4F4F5F5F4F2430310591F68A819B8176
:1038300001969B838A830894E11CF11C049709F08C
:10384000B2CF0F900F900F90CF91DF911F910F91FA
:10385000FF90EF90DF90CF90BF90AF909F908F90B0
:103860007F906F905F904F903F902F9008952F9290
:103870003F924F925F926F927F928F929F92AF9200
:10388000BF92CF92DF92EF92FF920F931F93DF933D
:10389000CF9300D00F92CDB7DEB77C013B012A0158
:1038A0002983F801DB012C90DA013C90922D80E015
:1038B0008701080F191F932D80E09701280F391FEA
:1038C0003B832A83C280D380B480A5809680878082
:1038D0008B2D90E0A0E0B0E0BA2FA92F982F882779
:1038E0002A2D30E040E050E0822B932BA42BB52B07
:1038F000BA2FA92F982F8827292D30E040E050E0DB
:10390000822B932BA42BB52B4427582F692F7A2F6A
:10391000882D90E0A0E0B0E0482B592B6A2B7B2B40
:10392000818190E0FC013197EF32F10508F0DDC6AE
:10393000EC57FF4FEE0FFF1F0590F491E02D099417
:10394000A0E0B0E0F0E86F2E712C0A2D10E0E92C19
:10395000FF24C82CDD2474C18A819B816C2D4D2DE0
:103960002B2D0E943D1A26C0AA81BB8190E01D929A
:10397000892F8064EA81FB81E80FF11D1082892F75
:103980008068EA81FB81E80FF11D1082892F806C2D
:10399000EA81FB81E80FF11D10829F5F903439F7B7
:1039A0008A819B816C2D4D2D2B2D0A2DE92CC82C45
:1039B0000E941B1B8A819B810E943E29D3013C925D
:1039C000F201208292C6AA81BB8190E0BD92892F2C
:1039D0008064EA81FB81E80FF11DA082892F806855
:1039E000EA81FB81E80FF11D9082892F806CEA81CA
:1039F000FB81E80FF11D80829F5F903439F7DACFA9
:103A0000F7E0FD1508F471C6C7FC6FC6FC150CF491
:103A10006CC68D2D880F880F880F8C29F801E80F50
:103A2000F11DB082982F9064F801E90FF11DA0827A
:103A3000982F9068F801E90FF11D9082806C080FB3
:103A4000111DD801B7C08A819B816C2D4D2D2B2D66
:103A50000E949E1A4AC68A819B816C2D4D2D2B2D6A
:103A60000A2DE92CC82C0E941B1B3FC68A819B8112
:103A70006C2D4D2D2B2D0A2DE92CC82C0E94A91B35
:103A800034C6AA81BB8190E0BD92892F8064EA810F
:103A9000FB81E80FF11DA082892F8068EA81FB81FC
:103AA000E80FF11D9082892F806CEA81FB81E80F7D
:103AB000F11D80829F5F903439F717C6B7E0BD15BE
:103AC00008F413C62D2D220F220F220F30E0932F62
:103AD000922BEA81FB81E90FF11DB082892F80646E
:103AE000EA81FB81E80FF11DA082892F8068EA81BD
:103AF000FB81E80FF11D9082906CEA81FB81E90F58
:103B0000F11D80823F5F383011F7EFC5E7E0EC151B
:103B100008F4EBC520E030E0C901E3E0880F991F0D
:103B2000EA95E1F79C2D982BEA81FB81E90FF11DC5
:103B3000B082892F8064EA81FB81E80FF11DA082A9
:103B4000892F8068EA81FB81E80FF11D9082906CDB
:103B5000EA81FB81E90FF11D80822F5F3F4F283002
:103B60003105D1F6C2C5F7E0FD1508F4BEC5C7FCA6
:103B7000BCC5FC150CF4B9C58D2D880F880F880FB6
:103B80008C29EA81FB81E80FF11DB082982F9064A7
:103B9000EA81FB81E90FF11DA082982F9068EA81EC
:103BA000FB81E90FF11D9082806C2A813B81280FF7
:103BB000311DD9018C9299C5762F742BEA81FB8136
:103BC000E70FF11D10829301042E02C03595279551
:103BD0000A94E2F7C90180239123892B11F490E024
:103BE00001C09FEF872F8064EA81FB81E80FF11D00
:103BF0009083C9018E219F21892B11F490E001C08F
:103C00009FEF872F8068EA81FB81E80FF11D908389
:103C1000C9018C219D21892B11F480E001C08FEF17
:103C2000706CEA81FB81E70FF11D80834F5F5F4F6E
:103C30004830510509F61196A830B10509F455C56B
:103C40006A2F660F660F660F40E050E0B5CFB7E011
:103C5000BD1508F44AC56D2D660F660F660F40E06E
:103C600050E0A0E8B0E00A2D10E0E92CFF24C82CB9
:103C7000DD24762F742BEA81FB81E70FF11D108282
:103C80009D01042E02C0359527950A94E2F7C901DB
:103C900080239123892B11F490E001C09FEF872F9F
:103CA0008064EA81FB81E80FF11D9083C9018E21B8
:103CB0009F21892B11F490E001C09FEF872F80682E
:103CC000EA81FB81E80FF11D9083C9018C219D21C0
:103CD000892B11F480E001C08FEF706CEA81FB81C9
:103CE000E70FF11D80834F5F5F4F4830510509F6A4
:103CF000FCC4E7E0EC1508F4F8C440E050E070E8DC
:103D0000672E712CAA2DB0E0092D10E0E82CFF24BD
:103D1000CA0163E0880F991F6A95E1F77C2D782B23
:103D2000EA81FB81E70FF11D10829301042E02C08E
:103D3000359527950A94E2F7C9018A239B23892B9D
:103D400011F490E001C09FEF872F8064EA81FB812E
:103D5000E80FF11D9083C90180239123892B11F471
:103D600090E001C09FEF872F8068EA81FB81E80F18
:103D7000F11D9083C9018E219F21892B11F480E0D0
:103D800001C08FEF706CEA81FB81E70FF11D80832A
:103D90004F5F5F4F4830510509F0BACFA6C4F7E036
:103DA000FD1508F4A2C4C7FCA0C4FC150CF49DC406
:103DB0009D2D990F990F990F9C29EA81FB81E90F9D
:103DC000F11D1082AA0CAA08892F8064EA81FB8168
:103DD000E80FF11DA082990C9908892F8068EA816B
:103DE000FB81E80FF11D9082880C8808906C2A8175
:103DF0003B81290F311DDDCECB01BA010E94CF17C7
:103E000074C4CB01BA0120E030E040E050E00E94F1
:103E1000FD166BC4CB01BA010E94C21666C4CB0169
:103E2000BA010E94DD0E61C4CB01BA010E947E0E70
:103E30005CC4CB01BA010E948B0E57C48D2D0E9429
:103E4000C22F53C48D2D6B2D4A2D292D082D0E9474
:103E5000830C4BC48D2D8D5F682D0E94950C8D2D8C
:103E60008E5F692D0E94950C8D2D8F5F6A2D0E94AB
:103E7000950C8D2D6B2D0E94950C37C48D2D6B2DBF
:103E80000E94822C32C40D2DD0FE0FC08B2D90E0ED
:103E9000698170E00E94D532182F982F80E08E0D36
:103EA0009F1D0E943E29F301108301FF1EC48A2D2D
:103EB00090E0698170E00E94D532D2018C9315C4E4
:103EC00040E050E0A42F2A813B81240F351FF801E8
:103ED000E40FF51F8081F9018083E42FE064F0E0B6
:103EE0002A813B812E0F3F1FE00FF11F8081F901D6
:103EF0008083E42FE068F0E02A813B812E0F3F1F92
:103F0000E00FF11F8081F9018083A06CB0E0EA81AD
:103F1000FB81EA0FFB1FA00FB11F8C9180834F5FC5
:103F20005F4F4034510571F6E0C38A819B8160E0A8
:103F30004B2D2A2D092DE82C0E94E2178A819B81A6
:103F400061E04B2D2A2D0E94E2178A819B8162E05D
:103F50004B2D2A2D0E94E2178A819B8163E04B2D15
:103F60002A2D0E94E2178A819B8164E04B2D2A2D25
:103F70000E94E2178A819B8165E04B2D2A2D0E94C9
:103F8000E2178A819B8166E04B2D2A2D0E94E21761
:103F90008A819B8167E04B2D2A2D0E94E217C394F2
:103FA000C7FCC3CF3BC08A819B8160E04B2D2A2D8B
:103FB000092DE82C0E944C188A819B8161E04B2DD1
:103FC0002A2D0E944C188A819B8162E04B2D2A2D5C
:103FD0000E944C188A819B8163E04B2D2A2D0E9400
:103FE0004C188A819B8164E04B2D2A2D0E944C182D
:103FF0008A819B8165E04B2D2A2D0E944C188A8175
:104000009B8166E04B2D2A2D0E944C188A819B8152
:1040100067E04B2D2A2D0E944C18CA94CC2019F62B
:104020003BC08A819B8160E04B2D2A2D092DE82C15
:104030000E94C0188A819B8161E04B2D2A2D0E942D
:10404000C0188A819B8162E04B2D2A2D0E94C018E6
:104050008A819B8163E04B2D2A2D0E94C0188A81A2
:104060009B8164E04B2D2A2D0E94C0188A819B8180
:1040700065E04B2D2A2D0E94C0188A819B8166E045
:104080004B2D2A2D0E94C0188A819B8167E04B2D01
:104090002A2D0E94C018D394D7FCC3CF3BC08A817D
:1040A0009B8160E04B2D2A2D092DE82C0E942E19B2
:1040B0008A819B8161E04B2D2A2D0E942E198A81D5
:1040C0009B8162E04B2D2A2D0E942E198A819B81B3
:1040D00063E04B2D2A2D0E942E198A819B8164E07A
:1040E0004B2D2A2D0E942E198A819B8165E04B2D34
:1040F0002A2D0E942E198A819B8166E04B2D2A2D44
:104100000E942E198A819B8167E04B2D2A2D0E94E7
:104110002E19DA94DD2019F6E8C28A819B816D2D73
:104120004B2D2A2D092DE82C0E94E217C394C7FCC1
:10413000F4CF0AC08A819B816D2D4B2D2A2D092D2C
:10414000E82C0E944C18CA94CC20A1F7CEC28A81D8
:104150009B816C2D4B2D2A2D092DE82C0E94C01817
:10416000D394D7FCF4CF0AC08A819B816C2D4B2D50
:104170002A2D092DE82C0E942E19DA94DD20A1F7B2
:10418000B4C28A819B8160E00E9422188A819B814F
:1041900061E00E9422188A819B8162E00E942218BD
:1041A0008A819B8163E00E9422188A819B8164E05E
:1041B0000E9422188A819B8165E00E9422188A81D0
:1041C0009B8166E00E9422188A819B8167E00E94A1
:1041D0002218C394C7FCD5CF29C08A819B8160E097
:1041E0000E948D188A819B8161E00E948D188A81CE
:1041F0009B8162E00E948D188A819B8163E00E940E
:104200008D188A819B8164E00E948D188A819B8130
:1042100065E00E948D188A819B8166E00E948D185E
:104220008A819B8167E00E948D18CA94CC20A9F6F0
:1042300029C08A819B8160E00E9407198A819B8145
:1042400061E00E9407198A819B8162E00E94071940
:104250008A819B8163E00E9407198A819B8164E0C7
:104260000E9407198A819B8165E00E9407198A8153
:104270009B8166E00E9407198A819B8167E00E940A
:104280000719D394D7FCD5CF29C08A819B8160E0E0
:104290000E947B198A819B8161E00E947B198A813F
:1042A0009B8162E00E947B198A819B8163E00E946E
:1042B0007B198A819B8164E00E947B198A819B81A2
:1042C00065E00E947B198A819B8166E00E947B19D0
:1042D0008A819B8167E00E947B19DA94DD20A9F630
:1042E00004C28A819B816D2D0E942218C394C7FC51
:1042F000F8CF06C08A819B816D2D0E948D18CA94CB
:10430000CC20C1F7F2C18A819B816C2D0E940719D4
:10431000D394D7FCF8CF06C08A819B816C2D0E9474
:104320007B19DA94DD20C1F7E0C1CC2041F18A810C
:104330009B8160E00E94A4198A819B8161E00E94B8
:10434000A4198A819B8162E00E94A4198A819B81C1
:1043500063E00E94A4198A819B8164E00E94A419F1
:104360008A819B8165E00E94A4198A819B8166E015
:104370000E94A4198A819B8167E00E94A419DD2014
:1043800009F4B3C18A819B8160E00E94EA198A81A5
:104390009B8161E00E94EA198A819B8162E00E9410
:1043A000EA198A819B8163E00E94EA198A819B81D4
:1043B00064E00E94EA198A819B8165E00E94EA1903
:1043C0008A819B8166E00E94EA198A819B8167E06D
:1043D00009C08A819B816D2D0E94A41986C18A81A2
:1043E0009B816C2D0E94EA1980C1AA81BB8190E05B
:1043F0008C918823D9F4892F8064EA81FB81E80FAE
:10440000F11D808180958083892F8068EA81FB81FE
:10441000E80FF11D808180958083892F806CEA816F
:10442000FB81E80FF11D8081809580839F5F11964D
:104430009034F1F65AC1F7E0FD1508F456C12D2D60
:10444000220F220F220F50E0352F322BEA81FB8101
:10445000E30FF11D80818823D1F4832F8064EA81EA
:10446000FB81E80FF11D808180958083832F806818
:10447000EA81FB81E80FF11D808180958083306C9B
:10448000EA81FB81E30FF11D8081809580835F5F6E
:104490005830D1F62AC127E02C1508F426C120E0B7
:1044A00030E0C90153E0880F991F5A95E1F79C2D20
:1044B000982BEA81FB81E90FF11D80818823D1F4DB
:1044C000892F8064EA81FB81E80FF11D808180954E
:1044D0008083892F8068EA81FB81E80FF11D80814C
:1044E00080958083906CEA81FB81E90FF11D8081CA
:1044F000809580832F5F3F4F2830310591F6F5C0BE
:1045000037E03C1508F4F1C0FC2CFF0CFF0CFF0C4D
:1045100000E0102F1F29EA81FB81E10FF11D1082BD
:104520008B2D60E04D2D202F0E94D528912F906477
:10453000EA81FB81E90FF11D80838B2D61E04D2D18
:10454000202F0E94D528912F9068EA81FB81E90FE6
:10455000F11D80838B2D62E04D2D202F0E94D528E8
:10456000106CEA81FB81E10FF11D80830F5F083041
:1045700081F6BBC087E08C1508F4B7C0EE24FF2499
:10458000C70143E0880F991F4A95E1F71C2D182BAE
:10459000EA81FB81E10FF11D10828B2D60E04E2D31
:1045A0002D2D0E94D528912F9064EA81FB81E90F7F
:1045B000F11D80838B2D61E04E2D2D2D0E94D5287D
:1045C000912F9068EA81FB81E90FF11D80838B2D8B
:1045D00062E04E2D2D2D0E94D528106CEA81FB81C2
:1045E000E10FF11D80830894E11CF11CA8E0EA169C
:1045F000F10431F67AC0B7E0BC1508F476C08B2D13
:104600006D2D0E9459281C2D110F110F110F20E044
:1046100030E0A0E8B0E0482F50E0CD01022E02C00B
:10462000959587950A94E2F784239523892BD9F0F1
:10463000912F922BEA81FB81E90FF11D1082892FC6
:104640008064EA81FB81E80FF11DA082892F8068D8
:10465000EA81FB81E80FF11D9082906CEA81FB8179
:10466000E90FF11D80822F5F3F4F28303105A9F6F9
:104670003CC0E7E0EC15C8F130E8E32EF12C02C0B5
:10468000F594E794DA94E2F700E010E08B2D602FC8
:104690000E94592890E08E219F21892B09F1C801A1
:1046A00023E0880F991F2A95E1F79C2D982BEA812A
:1046B000FB81E90FF11D1082892F8064EA81FB8163
:1046C000E80FF11DA082892F8068EA81FB81E80F45
:1046D000F11D9082906CEA81FB81E90FF11D8082CF
:1046E0000F5F1F4F0830110589F60F900F900F9044
:1046F000CF91DF911F910F91FF90EF90DF90CF90BE
:10470000BF90AF909F908F907F906F905F904F90F1
:104710003F902F9008955F926F927F928F929F9219
:10472000AF92BF92CF92DF92EF92FF920F931F93BF
:10473000CF93DF934B013A01F801DB015C90DA0182
:10474000AC90352D20E0BC01620F731F3A2D20E0A4
:10475000EC01C20FD31F91818281182F12951F7017
:10476000382F3F708381282F22952F708F70B4804F
:1047700013FD106FF32EF29440EFF422F32AD22EA1
:10478000D29430EFD322D22AC82EC29400EFC02296
:10479000C82A892F90E0FC013197EB32F10508F02F
:1047A00078C4ED54FF4FEE0FFF1F0590F491E02DFC
:1047B0000994A0E0B0E010E8A12EB12C0F2D10E07C
:1047C000ED2CFF24DD244CC1CE01612F40E02B2DC8
:1047D0000E943D1A20C0DE0190E01D92892F806466
:1047E000FE01E80FF11D1082892F8068FE01E80F9D
:1047F000F11D1082892F806CFE01E80FF11D1082DF
:104800009F5F903451F7CE01612F40E02B2D0F2D8B
:10481000ED2C0E941B1BCE010E943E29F401A082B8
:10482000D3015C9236C4DE0190E01D92892F806432
:10483000FE01E80FF11DF082892F8068FE01E80F6C
:10484000F11DD082892F806CFE01E80FF11DC0821E
:104850009F5F903451F7DFCFB7E0BB1508F419C460
:1048600017FD17C418300CF014C48B2D880F880F57
:10487000880F812BFB01E80FF11D1082982F9064A7
:10488000FB01E90FF11DF082982F9068FB01E90F01
:10489000F11DD082806C680F711DFB01C082F9C3CD
:1048A000CE01612F40E02B2D0E949E1AF2C3CE0153
:1048B000612F40E02B2D0F2DED2C0E941B1BE9C317
:1048C000CE01612F40E02B2D0F2DED2C0E94A91B56
:1048D000E0C3DE0190E01D92892F8064FE01E80FA5
:1048E000F11DF082892F8068FE01E80FF11DD08252
:1048F000892F806CFE01E80FF11DC0829F5F90340C
:1049000051F7C7C3F7E0FB1508F4C3C32B2D220FE3
:10491000220F220F30E0932F922BFE01E90FF11DA1
:104920001082892F8064FE01E80FF11DF082892F2B
:104930008068FE01E80FF11DD082906CFE01E90F46
:10494000F11DC0823F5F383031F7A3C3183008F043
:10495000A0C320E030E0C901A3E0880F991FAA9509
:10496000E1F7912F982BFE01E90FF11D1082892F9D
:104970008064FE01E80FF11DF082892F8068FE013E
:10498000E80FF11DD082906CFE01E90FF11DC0828D
:104990002F5F3F4F28303105F1F67BC387E08B1541
:1049A00008F477C317FD75C318300CF072C38B2D54
:1049B000880F880F880F812BFE01E80FF11D1082F0
:1049C000982F9064FE01E90FF11DF082982F9068F6
:1049D000FE01E90FF11DD082806CC80FD11D0AC104
:1049E000322F362BFE01E30FF11D1082A501062E9A
:1049F00002C0559547950A94E2F7CA018023912396
:104A0000892B11F490E001C09FEF832F8064FE0199
:104A1000E80FF11D9083CA018E219F21892B11F48B
:104A200090E001C09FEF832F8068FE01E80FF11D29
:104A30009083CA018C219D21892B11F480E001C053
:104A40008FEF306CFE01E30FF11D80836F5F7F4FAE
:104A50006830710529F61196A830B10509F419C31B
:104A60002A2F220F220F220F60E070E0B9CFA7E0BB
:104A7000AB1508F40EC32B2D220F220F220FA0E03E
:104A8000B0E060E870E00F2D10E0ED2CFF24DD2495
:104A9000322F3A2BFE01E30FF11D1082AB010A2EDB
:104AA00002C0559547950A94E2F7CA0180239123E5
:104AB000892B11F490E001C09FEF832F8064FE01E9
:104AC000E80FF11D9083CA018E219F21892B11F4DB
:104AD00090E001C09FEF832F8068FE01E80FF11D79
:104AE0009083CA018C219D21892B11F480E001C0A3
:104AF0008FEF306CFE01E30FF11D80831196A8301B
:104B0000B10531F6C6C2183008F0C3C260E070E0EB
:104B1000F0E8AF2EB12CAF2DB0E0ED2CFF24DD245A
:104B2000CB01E3E0880F991FEA95E1F7312F382B8D
:104B3000FE01E30FF11D1082A501062E02C055955E
:104B400047950A94E2F7CA018A239B23892B11F423
:104B500090E001C09FEF832F8064FE01E80FF11DFC
:104B60009083CA018E219F21892B11F490E001C00E
:104B70009FEF832F8068FE01E80FF11D9083CA012B
:104B80008C219D21892B11F480E001C08FEF306CC6
:104B9000FE01E30FF11D80836F5F7F4F6830710569
:104BA00009F0BECF76C2B7E0BB1508F472C217FD9C
:104BB00070C218300CF06DC29B2D990F990F990F90
:104BC000912BFE01E90FF11D1082FF0CFF08892FC8
:104BD0008064FE01E80FF11DF082DD0CDD08892FF5
:104BE0008068FE01E80FF11DD082CC0CCC08906CDF
:104BF000C90FD11DC8824DC240E050E0A42F9E01D4
:104C0000240F351FFB01E40FF51F8081F90180831C
:104C1000E42FE064F0E09E012E0F3F1FE60FF71F28
:104C20008081F9018083E42FE068F0E09E012E0F7F
:104C30003F1FE60FF71F8081F9018083A06CB0E071
:104C4000FE01EA0FFB1FA60FB71F8C9180834F5FF9
:104C50005F4F4034510591F61CC2CE010E943E299F
:104C6000D401AC92F301508214C2CE0160E040E066
:104C70002F2D0D2DEC2C0E944C18CE0161E040E050
:104C80002F2D0E944C18CE0162E040E02F2D0E9493
:104C90004C18CE0163E040E02F2D0E944C18CE014D
:104CA00064E040E02F2D0E944C18CE0165E040E00A
:104CB0002F2D0E944C18CE0166E040E02F2D0E945F
:104CC0004C18CE0167E040E02F2D0E944C18115087
:104CD000112359F633C0CE0160E040E02F2D0D2D99
:104CE000EC2C0E94C018CE0161E040E02F2D0E9404
:104CF000C018CE0162E040E02F2D0E94C018CE0106
:104D000063E040E02F2D0E94C018CE0164E040E037
:104D10002F2D0E94C018CE0165E040E02F2D0E948B
:104D2000C018CE0166E040E02F2D0E94C018CE01D1
:104D300067E040E02F2D0E94C018B394B7FCCBCFA2
:104D400033C0CE0160E040E02F2D0D2DEC2C0E94F1
:104D50002E19CE0161E040E02F2D0E942E19CE01C8
:104D600062E040E02F2D0E942E19CE0163E040E06A
:104D70002F2D0E942E19CE0164E040E02F2D0E94BD
:104D80002E19CE0165E040E02F2D0E942E19CE0194
:104D900066E040E02F2D0E942E19CE0167E040E032
:104DA0002F2D0E942E19BA94BB2059F672C1CE0144
:104DB0006B2D40E02F2D0D2DEC2C0E944C18115026
:104DC0001123A9F766C1CE01612F40E02F2D0D2DD3
:104DD000EC2C0E94C018B394B7FCF5CF09C0CE01EB
:104DE000612F40E02F2D0D2DEC2C0E942E19BA942E
:104DF000BB20A9F74EC1CE0160E00E948D18CE0104
:104E000061E00E948D18CE0162E00E948D18CE01F3
:104E100063E00E948D18CE0164E00E948D18CE01DF
:104E200065E00E948D18CE0166E00E948D18CE01CB
:104E300067E00E948D1811501123E9F621C0CE01C0
:104E400060E00E940719CE0161E00E940719CE01BF
:104E500062E00E940719CE0163E00E940719CE01AB
:104E600064E00E940719CE0165E00E940719CE0197
:104E700066E00E940719CE0167E00E940719B3940B
:104E8000B7FCDDCF21C0CE0160E00E947B19CE01CE
:104E900061E00E947B19CE0162E00E947B19CE0185
:104EA00063E00E947B19CE0164E00E947B19CE0171
:104EB00065E00E947B19CE0166E00E947B19CE015D
:104EC00067E00E947B19BA94BB20E9F6E2C0CE01EC
:104ED0006B2D0E948D1811501123C9F7DAC0CE0135
:104EE000612F0E940719B394B7FCF9CF05C0CE011A
:104EF000612F0E947B19BA94BB20C9F7CAC0112345
:104F000001F1CE0160E00E94A419CE0161E00E948F
:104F1000A419CE0162E00E94A419CE0163E00E94B0
:104F2000A419CE0164E00E94A419CE0165E00E949C
:104F3000A419CE0166E00E94A419CE0167E00E9488
:104F4000A419BB2009F4A5C0CE0160E00E94EA19B3
:104F5000CE0161E00E94EA19CE0162E00E94EA19E6
:104F6000CE0163E00E94EA19CE0164E00E94EA19D2
:104F7000CE0165E00E94EA19CE0166E00E94EA19BE
:104F8000CE0167E007C0CE016B2D0E94A41981C03D
:104F9000CE01612F0E94EA197CC0DE0190E08C9165
:104FA0008823C1F4892F8064FE01E80FF11D808100
:104FB00080958083892F8068FE01E80FF11D808134
:104FC00080958083892F806CFE01E80FF11D808120
:104FD000809580839F5F1196903409F75AC0F7E05F
:104FE000FB1508F456C02B2D220F220F220F40E094
:104FF000342F322BFE01E30FF11D80818823B9F499
:10500000832F8064FE01E80FF11D808180958083ED
:10501000832F8068FE01E80FF11D808180958083D9
:10502000306CFE01E30FF11D8081809580834F5F1E
:105030004830F1F62EC0183060F520E030E0C901AC
:1050400053E0880F991F5A95E1F7912F982BFE0195
:10505000E90FF11D80818823B9F4892F8064FE0156
:10506000E80FF11D808180958083892F8068FE0183
:10507000E80FF11D808180958083906CFE01E90F1F
:10508000F11D8081809580832F5F3F4F283031054F
:10509000B1F6DF91CF911F910F91FF90EF90DF90CC
:1050A000CF90BF90AF909F908F907F906F905F90C8
:1050B00008956770E82FF0E083E0EE0FFF1F8A95F8
:1050C000E1F7E60FF11DE454FE4FE4918E2F0895B1
:1050D00070E0FB01E370F070F595E79590E0880FC4
:1050E000991FE80FF91FE454F64F8491282F30E000
:1050F00060FF08C044E0220F331F4A95E1F78F702C
:10510000822B089594E0359527959A95E1F7807F55
:10511000822B08959F92AF92BF92CF92DF92EF922F
:10512000FF920F931F93962E59016A0190E08F71A1
:105130009070880F991F880F991F2CEB3BE0F901A5
:10514000E80FF91FE590F490FC013296E20FF31F8F
:105150002591349140E050E0C601B5010E94FC3237
:1051600000E010E0E60EF71E081F191F892D63E00E
:105170000E94C932292F30E081ED91E0289FF00193
:10518000299FF00D389FF00D1124EE0DFF1DE45CFA
:10519000F34FE4918E2F1F910F91FF90EF90DF90CE
:1051A000CF90BF90AF909F900895A82F862F277023
:1051B00063E00E94C932B0E0A770B070FD01EE0F4D
:1051C000FF1FEA0FFB1FE90FF11D93E0EE0FFF1F1A
:1051D0009A95E1F74770E40FF11D83E0EE0FFF1F92
:1051E0008A95E1F7E20FF11DE155FE4EE4918E2F15
:1051F0000895DF92EF92FF920F931F93D82E862F80
:10520000211531054105510549F12E153F0540078E
:10521000510710F0D62E22C0D61678F470E06D1922
:105220007109882777FD8095982F0E94AA32A801DE
:1052300097010E94FC32D20E11C06D1578F46D2DCD
:1052400070E0681B7109882777FD8095982F0E9470
:10525000AA32A80197010E94FC32D21A8D2D1F910B
:105260000F91FF90EF90DF900895909360068093E8
:105270005F069093580680935706089590936006B2
:1052800080935F0608952F923F924F925F926F92A4
:105290007F928F929F92AF92BF92CF92DF92EF92C6
:1052A000FF920F931F93DF93CF93CDB7DEB72E9767
:1052B0000FB6F894DEBF0FBECDBF6887242E33240F
:1052C0003F822E82A62FB0E013E0AA0FBB1F1A95D3
:1052D000E1F7A229B329FC01EA0FFB1F6081FD0160
:1052E000E064E80FF91FB080FD01E068E80FF91FE6
:1052F0005080A06CA80FB91F3C90A62E67FF5CC120
:10530000CB2CDD24F601EF73F070EE0FFF1FEE0FD4
:10531000FF1FE155F84EE590F590059114916F73DC
:10532000A6FE09C0862F0E94B32FAC01CB01DA0183
:105330003C014D010BC08091EE010E94AF10AC0109
:10534000CB01DA013C014D011092EE01E114F104B0
:1053500001051105E9F0A52CA294AFE0AA220BC02B
:10536000C401B301A80197010E94FC32C901DA010E
:105370003C014D01AA94AA2099F7C401B301A801E8
:1053800097010E94FC32AC01CB01DA013C014D01D6
:105390008C2D807C09F4F7C0252D30E0C90195954E
:1053A0008795959587958370907045E550E0849F2B
:1053B000B001859F700D949F700D11247C876B87C1
:1053C0006D8323703070249FB001259F700D349F32
:1053D000700D11246C83832D82958695869583703C
:1053E00090E0849F2001859F500C949F500C1124C5
:1053F0004B82232D30E0C901E4E095958795EA952D
:10540000E1F783709070849FD001859FB00D949FC9
:10541000B00D1124BA87A987AA83C90195958795EC
:105420009595879583709070849FF001859FF00D0E
:10543000949FF00D1124FE87ED87E983237030706F
:10544000249F1001259F300C349F300C1124A22C76
:10545000B7FE6DC0E114F1040105110509F43FC068
:10546000FFE3EF16F1040105110558F52AE0621675
:1054700071048104910428F460E370E080E090E01E
:105480001BC074E2671671048104910428F487E359
:1054900090E0A0E0B0E01FC09EE3691671048104B3
:1054A000910430F08FE3682E712C812C912C17C061
:1054B0006DE370E080E090E0660E771E881E991E16
:1054C0000EC071E6E716F1040105110540F480E213
:1054D00090E0A0E0B0E0680E791E8A1E9B1EC6FE1A
:1054E00005C0862D68850E94592804C0862D6885D0
:1054F0000E946828282F80E890E00E8002C09595D1
:1055000087950A94E2F7822311F49D819C83AC81F4
:10551000A0935B06882311F4BB81BA83EA81E093F0
:105520005C06882309F4A980A0925D0669C0F2E0B8
:10553000EF16F10401051105F8F057016801089410
:10554000A108B108C108D1088B85A4019301860187
:1055500075010E94F92880935B06842D6985A4015A
:1055600093010E94F92880935C068D85622DA40129
:1055700093010E94F9281DC02B8420925B06409263
:105580005C063D843BC0832D60E0A40193010E9432
:105590008A2880935B06832D61E0A40193010E9419
:1055A0008A2880935C06832D62E0A40193010E9407
:1055B0008A2880935D0624C062FF08C08091ED01B7
:1055C0006B2D0E949B0CB82E1092ED01A1FE08C01D
:1055D0008091ED01652D0E949B0C582E1092ED01DB
:1055E000A0FE08C08091ED01632D0E949B0C382E17
:1055F0001092ED01B0925B0650925C0630925D060F
:105600002E960FB6F894DEBF0FBECDBFCF91DF91BF
:105610001F910F91FF90EF90DF90CF90BF90AF90D0
:105620009F908F907F906F905F904F903F902F90C2
:105630000895FF920F931F938091570690915806FB
:105640006091590640915A064F5F40935A06415067
:105650000E94432900915B0610915C06F0905D0664
:1056600080915706909158066091590640915A06CC
:105670004F5F40935A0641500E94432940915B0678
:1056800060915D0680912C0190E050915E0620E6CD
:1056900030E0829FD001839FB00D929FB00D112406
:1056A000FD01E50FF11DE35DFE4F80915C068295E3
:1056B0008F70107F812B8083852F8062FD01E80F22
:1056C000F11DE35DFE4F42954F70007F402B4083FC
:1056D000852F8064FD01E80FF11DE35DFE4F6295AB
:1056E0006F7080EFF8226F2960835F5F50935E06D2
:1056F00080915A06883020F110925A0680915906FE
:105700008F5F809359068830D8F010925906CD01EA
:10571000835D9E4F0E947B2C80912C0121E082278B
:1057200080932C0110925E0680915F069091600636
:1057300090935806809357062093ED012093EE0135
:105740001F910F91FF9008958DE291E00E944D2CE2
:105750000895CF92DF92EF92FF920F931F93CF9312
:10576000DF9300916506E02EFF24F701E151FE4F23
:1057700080818093B200C0906306D090640610913F
:105780006606439A8BB187708BB985B1887F85B9DE
:105790001330B9F0143028F4113071F0123078F46D
:1057A00009C0153091F0153070F0163081F01730C7
:1057B00091F40FC084E001C082E085B90CC081E0A3
:1057C000FCCF80E807C080E405C080E203C080E130
:1057D00001C088E08BB9429AC12FD0E0CC0FDD1F09
:1057E000CC0FDD1F60E070E02AC0FA01EA2BFB2B32
:1057F000EC0DFD1D8081282F30E0C901E4E0959576
:105800008795EA95E1F7E816F90614F4409A01C085
:1058100040984198419A2F703070E216F30614F4C4
:10582000409A01C040984198419A4F5F5F4F443081
:105830005105D9F66F5F7F4F6330710559F0DB0179
:1058400085E0AA0FBB1F8A95E1F7AC2BBD2B40E08A
:1058500050E0CBCF42984398812F8F5F80936606AC
:10586000883090F010926606802F8F5F80936506D7
:10587000803150F010926506809161069091620629
:105880009093640680936306DF91CF911F910F91EF
:10589000FF90EF90DF90CF900895F8942FEF2AB902
:1058A00027B924B91BB815B8909362068093610696
:1058B0009093640680936306E0EBF0E08081836060
:1058C0008083E1EBF0E080818460808380818C7F45
:1058D000808380818C7F8083E6EBF0E08081808311
:1058E000E0E7F0E08081816080838091EF01809328
:1058F000B20078940895F8949093620680936106BC
:1059000078940895EFEEF1E0E80FF11D60830895BB
:105910001F920F920FB60F9211242F933F934F9324
:105920005F936F937F938F939F93AF93BF93EF9307
:10593000FF930E94A92BFF91EF91BF91AF919F918F
:105940008F917F916F915F914F913F912F910F9028
:105950000FBE0F901F901895CF93DF93DB010D9032
:105960000020E9F71197A61BB70BEC01E881F9813C
:105970000280F381E02DAD010995DF91CF9108956B
:105980002F923F924F925F926F927F928F929F924F
:10599000AF92BF92CF92DF92EF92FF920F931F933D
:1059A000CF93DF930E94192B80916806882379F4A6
:1059B00082E897E00E9479311816190644F482E8CB
:1059C00097E00E94AA318093680610927006809139
:1059D0006806882309F4A5C2843609F48DC185368A
:1059E00048F4843409F413C18235A1F0833309F0FB
:1059F00096C254C1873C09F409C2883C20F482371E
:105A000009F08DC232C0833D09F47EC18D3F09F09B
:105A100086C267C282E897E00E94793104970CF44D
:105A200080C282E897E00E94AA318093690682E8EA
:105A300097E00E94AA3180936A0682E897E00E946C
:105A4000AA3180936B0682E897E00E94AA31809386
:105A50006C068FEF91E067E676E04FEF53E022E0CF
:105A600008E616E00E948B235AC282E897E00E9463
:105A7000793107970CF455C282E897E00E94AA3169
:105A80008093690682E897E00E94AA3180936A06B3
:105A900082E897E00E94AA3180936B0682E897E043
:105AA0000E94AA3180936C0682E897E00E94AA3196
:105AB00080936D0682E897E00E94AA3180936E067B
:105AC00082E897E00E94AA3180936F068FEF91E001
:105AD00067E676E04FEF53E022E008E616E00E942A
